:100000000C9434000C9451000C9451000C94510049
:100010000C9451000C9451000C9451000C9451001C
:100020000C9451000C9451000C9451000C9451000C
:100030000C9451000C9451000C9451000C945100FC
:100040000C9451000C9451000C94D7020C94FF03B3
:100050000C9451000C9451000C9451000C945100DC
:100060000C9451000C94510011241FBECFEFD8E026
:10007000DEBFCDBF11E0A0E0B1E0E6EAFAE002C0E9
:1000800005900D92AA32B107D9F721E0AAE2B1E0BA
:1000900001C01D92A13BB207E1F70E9453000C94EE
:1000A0003D050C940000CF93DF93CDB7DEB70E94DF
:1000B0008D020E9446010E94770082E091E00E943A
:1000C0004C018BE490E00E9464020E94DF000E94D9
:1000D000BA000E94F000CC01A0E0B0E0BC01CD016C
:1000E0000E947A0183E291E00E944C01EACFCF9313
:1000F000DF93CDB7DEB78AE790E020E8FC012083EC
:100100008AE790E02AE730E0F90120812660FC01CF
:1001100020838CE790E02CE730E0F9012081206C0F
:10012000FC0120838CE790E02CE730E0F90120818E
:100130002F7DFC0120838CE790E02CE730E0F90173
:1001400020812860FC0120838CE790E02CE730E0E0
:10015000F9012081286FFC0120838CE790E02CE7D7
:1001600030E0F90120812F7DFC0120830000DF9128
:10017000CF910895CF93DF9300D0CDB7DEB78AE754
:1001800090E0FC018081882F90E0807499279A8309
:1001900089830AC08AE790E0FC018081882F90E083
:1001A000807499279A83898389819A81892B91F711
:1001B00089819A810F900F90DF91CF910895CF930D
:1001C000DF93CDB7DEB78AE790E02AE730E0F901A8
:1001D00020812064FC0120830000DF91CF910895ED
:1001E000CF93DF93CDB7DEB72C970FB6F894DEBF71
:1001F0000FBECDBF88E790E0FC018081882F90E0A2
:10020000A0E0B0E089839A83AB83BC8389E790E068
:10021000FC018081882F90E0A0E0B0E08D839E8378
:10022000AF83B8878D819E81AF81B8852227382F13
:10023000492F5A2F89819A81AB81BC81822B932BC4
:10024000A42BB52B89879A87AB87BC8729853A85EC
:100250004B855C8585E690E0DC010E940105DC01B0
:10026000CB0124E630E040E050E0BC01CD010E942B
:10027000E204DA01C901815191402C960FB6F8943D
:10028000DEBF0FBECDBFDF91CF9108950E94C402A3
:10029000789408950C948804CF93DF93EC018991AE
:1002A000882319F00E948804FACFDF91CF91089536
:1002B000CF93C82F90E024E0959587952A95E1F794
:1002C0008A3010F4805D01C0895C0E9488048C2F04
:1002D0008F708A3010F0895C01C0805DCF910C94E2
:1002E0008804CF93C82F892F0E9458018C2FCF915B
:1002F0000C9458012F923F924F925F926F927F928F
:100300008F929F92AF92BF92CF92DF92EF92FF9225
:100310000F931F93CF93DF93CDB7DEB763970FB6DD
:10032000F894DEBF0FBECDBF6B017C0197FF0DC0FF
:10033000F094E094D094C094C11CD11CE11CF11C39
:1003400081E090E09B8B8A8B02C01B8A1A8AFE0197
:1003500031965F018E01055F1F4FF98BE88B662494
:100360006394712C812C912CAAE0B0E09301A4013C
:100370000E9401051B012C01C701B6019101A201D8
:100380000E94E2049301A4010E94E204E889F98931
:100390002193F98BE88B822F220F990BAA0BBB0BB1
:1003A000C81AD90AEA0AFB0A310142010E171F07CF
:1003B000D9F68A899B89892B19F08DE20E948804DD
:1003C00020E030E0F80182918F01811106C02115F3
:1003D000310519F4EA15FB0529F4805D0E948804B3
:1003E00021E030E00A151B0569F763960FB6F89413
:1003F000DEBF0FBECDBFDF91CF911F910F91FF9058
:10040000EF90DF90CF90BF90AF909F908F907F90B4
:100410006F905F904F903F902F9008950C945E04E2
:100420000C948504FF920F931F93CF93DF93EC01FD
:10043000062FF72E18820E945E0410E08823D9F060
:100440000E9432048823B9F00E943904803210F0EF
:1004500089931F5FE02FFF2D482F50E02191222329
:1004600039F0022E000C330B42175307B9F702C0C4
:100470008D3051F71882812FDF91CF911F910F910D
:10048000FF9008950F931F93CF93DF938C01EC019E
:10049000699170E080E090E00E947A010C5F1F4F4C
:1004A0008EE20E948804699170E080E090E00E94F2
:1004B0007A01C017D107A1F786E291E0DF91CF91D1
:1004C0001F910F910C944C01CF93DF9300D000D07B
:1004D000CDB7DEB71C821B822B813C8128173907E0
:1004E000A8F41A82198229813A81283E334038F4CF
:1004F00029813A812F5F3F4F3A832983F4CF2B81A3
:100500003C812F5F3F4F3C832B83E6CF0F900F90B2
:100510000F900F90DF91CF910895219A2998089517
:10052000299A08952998089585B18695817090E05B
:1005300008950F931F93CF93DF938C010E94920233
:10054000E80189918823D9F08E3229F40E94900223
:100550008AEF90E006C08D3259F40E9490028EEE30
:1005600092E00E9464020E94920284E690E004C03D
:10057000803239F788EE93E00E946402E2CFDF9187
:10058000CF911F910F9108951092C00087E690E0DF
:100590009093C5008093C400E1ECF0E088E1808393
:1005A00086E08093C2008081806A808308951F92D4
:1005B0000F920FB60F9211242F933F938F939F9317
:1005C000EF93FF9380913001882309F4F0C080916C
:1005D000C60090912F01992309F4E3C090EE980F83
:1005E0009F3518F08D3009F059C020912C01909161
:1005F0002D0130E0291B3109215031092F73332798
:10060000232B61F0E0912D01F0E0EF5CFE4F808341
:1006100090912D019F5F9F7390932D0120912A014E
:1006200090912B0130E0291B3109215031092F73A2
:100630003327232B89F0E0912B01F0E0EF58FE4F98
:10064000808390912B019F5F9F7390932B019091DA
:10065000C10090629093C1008D3009F0C5C08091B7
:100660002A0120912B0190E0821B910901978F7341
:100670009927892B69F0E0912B01F0E0EF58FE4FAC
:100680008AE0808380912B018F5F8F7380932B0191
:1006900080912E018F5F80932E01A6C0883011F0CB
:1006A0008F37C1F580912D0120912C0190E0821BA4
:1006B00091098F739927892B09F496C0E0912D0138
:1006C000F0E0EF5CFE4F808180912D0181508F73AF
:1006D00080932D0180912A0120912B0190E0821BB3
:1006E000910901978F739927892B09F47DC0E091B7
:1006F0002B01F0E0EF58FE4F8FE7808380912B01B4
:100700008F5F8F7380932B018091C10080628093F3
:10071000C1006AC0843009F067C080912D0120912A
:100720002C0190E0821B91098F739927892B31F15D
:10073000E0912D01F0E0EF5CFE4F80818D30F1F013
:1007400080912C0120912D0190E0821B910901974D
:100750008F739927892B91F0E0912D01F0E0EF5CE8
:10076000FE4F8DE0808380912D018F5F8F7380938A
:100770002D0180912E018F5F80932E0180912C019D
:1007800020912D0190E0821B910901978F73992789
:10079000892B51F1E0912D01F0E0EF5CFE4F84E0F8
:1007A00019C0833009F581E080932F011DC080912D
:1007B0002C0120912D0190E0821B910901978F73EC
:1007C0009927892B79F0E0912D01F0E08091C60006
:1007D000EF5CFE4F808380912D018F5F8F7380933C
:1007E0002D0102C08091C600FF91EF919F918F91E2
:1007F0003F912F910F900FBE0F901F9018951F9251
:100800000F920FB60F9211242F938F939F93EF9314
:10081000FF9380912B0120912A0190E0821B910986
:100820008F739927892B79F0E0912A01F0E0EF5836
:10083000FE4F80818093C60080912A018F5F8F7365
:1008400080932A0105C08091C1008F7D8093C100F3
:10085000FF91EF919F918F912F910F900FBE0F906D
:100860001F90189580912D0190912C01891B8F73F9
:10087000089580912D0120912C0190E0821B910917
:100880008F739927892BC1F0E0912C01F0E0EF5C88
:10089000FE4F808190912C019F5F9F7390932C015C
:1008A00090913001992349F08D3039F490912E01C7
:1008B000915090932E01089580E0089581E08093F7
:1008C000300180912D0120912C0190E0821B910933
:1008D0008F739927892BB1F0E0912C01F0E0EF5C48
:1008E000FE4F8081843071F410922F01E0912C0131
:1008F000F0E0EF5CFE4F808180912C018F5F8F7361
:1009000080932C0180912F01089580912E010895EC
:100910000FB607FE0EC020912A0190912B0130E006
:10092000291B3109215031092F733327232B99F3C8
:100930000DC020912A0190912B0130E0291B310933
:10094000215031092F733327232B61F0E0912B01C4
:10095000F0E0EF58FE4F808380912B018F5F8F7303
:1009600080932B018091C10080628093C100089523
:100970001F93CF93DF93EC0180E011E0180FFE018D
:10098000E80FF11D8081882321F00E948804812FC7
:10099000F4CFDF91CF911F9108951F93CF93DF93F1
:1009A000EC0180E011E0180FFE01E80FF11D8491C9
:1009B000882321F00E948804812FF4CFDF91CF910A
:1009C0001F910895052E97FB1EF400940E94F904D0
:1009D00057FD07D00E940C0507FC03D04EF40C9481
:1009E000F90450954095309521953F4F4F4F5F4FFB
:1009F000089590958095709561957F4F8F4F9F4F8B
:100A000008950E942E05A59F900DB49F900DA49F60
:100A1000800D911D11240895A1E21A2EAA1BBB1B63
:100A2000FD010DC0AA1FBB1FEE1FFF1FA217B307BA
:100A3000E407F50720F0A21BB30BE40BF50B661FD0
:100A4000771F881F991F1A9469F760957095809594
:100A500090959B01AC01BD01CF010895A29FB0010B
:100A6000B39FC001A39F700D811D1124911DB29FE2
:0E0A7000700D811D1124911D0895F894FFCF83
:100A7E00030B443100802500002D00040B44300090
:100A8E00802500002D0002060024F400010C617484
:080A9E006D6567613332380019
:100AA6002400534552203438362048573420E280FB
:100AB6009320416E6472657720476F6F646D616E37
:0A0AC6000A0D000A0D000D0A0000E1
:00000001FF
