:100000000C9434000C943E000C943E000C943E0082
:100010000C943E000C943E000C943E000C943E0068
:100020000C943E000C943E000C943E000C943E0058
:100030000C943E000C943E000C943E000C943E0048
:100040000C943E000C943E000C943E000C943E0038
:100050000C943E000C943E000C943E000C943E0028
:100060000C943E000C943E0011241FBECFEFD8E04C
:10007000DEBFCDBF0E944E010C9458010C940000CD
:10008000CF93DF9300D0CDB7DEB71A821982898172
:100090009A8181159A4F30F489819A8101969A83C9
:1000A0008983F5CF1A82198289819A8181159A4FA5
:1000B00030F489819A8101969A838983F5CF1A82D7
:1000C000198289819A8181159A4F30F489819A81A8
:1000D00001969A838983F5CF1A82198289819A8140
:1000E00081159A4F30F489819A8101969A83898388
:1000F000F5CF1A82198289819A8181159A4F30F43D
:1001000089819A8101969A838983F5CF1A8219820F
:1001100089819A8181159A4F30F489819A8101965B
:100120009A838983F5CF1A82198289819A818115F0
:100130009A4F30F489819A8101969A838983F5CF09
:100140001A82198289819A8181159A4F30F48981A6
:100150009A8101969A838983F5CF1A8219828981BF
:100160009A8181159A4F30F489819A8101969A83F8
:100170008983F5CF1A82198289819A8181159A4FD4
:1001800030F489819A8101969A838983F5CF1A8206
:10019000198289819A8181159A4F30F489819A81D7
:1001A00001969A838983F5CF1A82198289819A816F
:1001B00081159A4F30F489819A8101969A838983B7
:1001C000F5CF1A82198289819A8181159A4F30F46C
:1001D00089819A8101969A838983F5CF1A8219823F
:1001E00089819A8181159A4F30F489819A8101968B
:1001F0009A838983F5CF1A82198289819A81811520
:100200009A4F30F489819A8101969A838983F5CF38
:100210001A82198289819A8181159A4F30F48981D5
:100220009A8101969A838983F5CF1A8219828981EE
:100230009A8181159A4F30F489819A8101969A8327
:100240008983F5CF1A82198289819A8181159A4F03
:1002500030F489819A8101969A838983F5CF1A8235
:10026000198289819A8181159A4F30F489819A8106
:1002700001969A838983F5CF1A82198289819A819E
:1002800081159A4F30F489819A8101969A838983E6
:10029000F5CF0F900F90DF91CF91089514B8219A68
:1002A000C2E084B18C2784B9C3B90E944000F9CF61
:0402B000F894FFCFF0
:00000001FF
