:100000000C943D000C945A000C945A000C945A0025
:100010000C945A000C945A000C9422030C945A002D
:100020000C945A000C945A000C945A000C94B60B81
:100030000C945A000C945A000C94F0030C945A003F
:100040000C945A000C945A000C9438120C946013BF
:100050000C945A000C945A000C94C2040C945A004C
:100060000C945A000C945A0037015E0181019101F1
:10007000B001D301F6010602240211241FBECFEF06
:10008000D8E0DEBFCDBF13E0A0E0B1E0E4EEF9E2DE
:1000900002C005900D92AA3BB107D9F725E0AAEB63
:1000A000B3E001C01D92A93BB207E1F70E945C00DA
:1000B0000C94DC140C9400000F931F93CF93DF93E8
:1000C0001F92CDB7DEB70E94A9030E940C120E94B6
:1000D000F1070E94F9050E9465030E94030C0E942B
:1000E00055050E947F0B0E94FB020E94710219823B
:1000F00080E391E00E94090C81E591E00E94090CE7
:1001000081E691E00E94090C80E00E9426070E948F
:10011000910B68E873E181E090E00E947C040E940A
:1001200017030E94740581E090E00E946304892B0C
:1001300031F10E94970B9093010180930001E091AF
:10014000B104F091B2042091AF043091B004409119
:10015000AD045091AE046091AB047091AC048091F9
:100160000001909101018F010E94EC000E94910B0F
:1001700068EE73E081E090E00E947C04D0CF89813A
:10018000882359F40E947C0D882349F284E691E08B
:100190000E94090C81E08983C2CF0E947E0D8823D2
:1001A00069F00E94C20D0E947C0D882309F0B7CF30
:1001B0008DE791E00E94740D1982B1CF0E94510524
:1001C000892B11F40E94BE060E945105892B09F06B
:1001D000A6CF0E94C403A3CF0F931F93CF93DF93A7
:1001E000CDB7DEB72A970FB6F894DEBF0FBECDBFEE
:1001F0009A8389837C836B835E834D8338872F83C7
:100200001A87098789819A819093BC038093BB03E5
:100210008B819C819093C2038093C1038D819E81C9
:100220009093BE038093BD038F8198859093C40300
:100230008093C30389859A859093C0038093BF03FD
:100240008091BA03882F90E0092E000CAA0BBB0BFB
:1002500041E050E028E030E0841B950B2817390777
:1002600008F414C18C5C9F4FFC010C94BC142091C9
:10027000BB033091BC038091BD039091BE0328174E
:10028000390744F086E090E00E94660382E08093A4
:10029000BA0310C12091BB033091BC038091BF030E
:1002A0009091C003821793070CF4F3C088E090E0AC
:1002B0000E94660386E08093BA03FCC02091BB03D2
:1002C0003091BC038091C1039091C2032817390774
:1002D00044F085E090E00E94660383E08093BA03D7
:1002E000E9C02091BB033091BC038091BD03909184
:1002F000BE03281739070CF0CEC085E08093BA03FF
:10030000D9C02091BB033091BC038091C10390916F
:10031000C203281739070CF0C0C082E08093BA03EB
:10032000C9C02091BB033091BC038091C10390915F
:10033000C2032817390724F083E08093BA03BAC0B8
:100340002091BB033091BC038091BD039091BE030B
:10035000281739070CF0A3C085E08093BA03AAC020
:100360002091BB033091BC038091BD039091BE03EB
:100370002817390724F082E08093BA039BC02091AC
:10038000BB033091BC038091BF039091C0038217DF
:1003900093070CF486C088E090E00E94660386E034
:1003A0008093BA0387C02091BB033091BC03809136
:1003B000C3039091C4038217930744F087E090E051
:1003C0000E94660387E08093BA0374C02091BB0348
:1003D0003091BC038091BF039091C00382179307B3
:1003E0000CF061C089E08093BA0364C02091BB0324
:1003F0003091BC038091C3039091C403821793078B
:100400000CF053C088E08093BA0354C02091BB0322
:100410003091BC038091C3039091C403821793076A
:1004200024F087E08093BA0345C02091BB0330914C
:10043000BC038091BD039091BE0382179307BCF566
:1004400089E08093BA0336C02091BB033091BC038E
:100450008091BD039091BE032817390744F082E0D4
:100460008093BA0386E090E00E94660323C0209147
:10047000BB033091BC038091BF039091C0038217EE
:100480009307BCF086E08093BA0314C00E94660212
:1004900011C000000FC000000DC000000BC0000024
:1004A00009C0000007C0000005C0000003C0000034
:1004B00001C0000000002A960FB6F894DEBF0FBE00
:1004C000CDBFDF91CF911F910F910895CF93DF930F
:1004D000CDB7DEB781E08093BA030000DF91CF9102
:1004E0000895CF93DF93CDB7DEB781E08093BA0351
:1004F0000000DF91CF910895CF93DF9300D0CDB767
:10050000DEB79A8389832091AD043091AE0489814E
:100510009A812817390744F489819A81811594407A
:100520001CF480E090E002C081E090E00F900F901A
:10053000DF91CF910895CF93DF9300D0CDB7DEB791
:100540009A8389832091B1043091B20489819A8180
:100550002817390764F42091AB043091AC048981E9
:100560009A81821793071CF480E090E002C081E03A
:1005700090E00F900F90DF91CF910895CF93DF938C
:1005800000D0CDB7DEB79A8389832091B104309132
:10059000B20489819A81821793071CF480E090E06D
:1005A00002C081E090E00F900F90DF91CF9108950D
:1005B000CF93DF9300D0CDB7DEB79A8389832091A4
:1005C000AF043091B00489819A812817390764F407
:1005D0002091AD043091AE0489819A8182179307EE
:1005E0001CF480E090E002C081E090E00F900F905A
:1005F000DF91CF910895CF93DF93CDB7DEB780E63B
:1006000090E0FC0110820E94170380E690E020E653
:1006100030E0F90120812861FC01208380E690E030
:100620002FE4FC0120830000DF91CF910895A8956D
:100630000895CF93DF93CDB7DEB780E690E0FC015D
:100640001082FFCF1F920F9200905F000F92112433
:100650002F933F934F935F936F937F938F939F93CA
:10066000AF93BF93EF93FF93CF93DF9300D0CDB7BA
:10067000DEB70E945E0582E00E9426071A82198278
:1006800007C00E94F40689819A8101969A83898322
:1006900089819A814097ACF30E94DC0300000F909F
:1006A0000F90DF91CF91FF91EF91BF91AF919F910B
:1006B0008F917F916F915F914F913F912F910F900B
:1006C00000925F000F901F9018950895CF93DF93CD
:1006D000EC0182ED91E00E94090CBE0180E090E007
:1006E0000E94370C87EF91E0DF91CF910C94090CB9
:1006F00081E08093C50308958091A704813461F45B
:100700008091A804833541F481E090E02091A90410
:10071000253521F080E002C080E090E0E7EAF4E0D7
:1007200020E03191230F34E0EA3BF307D1F7222395
:1007300011F080E090E0089562E170E082E091E0E5
:100740000E94D31042E162E071E080E490E00C94FA
:1007500008050E945105892BE1F742E167EA74E040
:1007600080E490E00E943C050E947C03892B49F4C0
:100770000E949C0342E167EA74E080E490E00E94FA
:100780003C051092C50308950E945105892B99F4E8
:100790008091C503882379F062E170E087EA94E0F4
:1007A0000E94D31042E167EA74E080E490E00E9486
:1007B00008051092C50308958091C503882379F038
:1007C00062E170E087EA94E00E94D31042E167EAB8
:1007D00074E080E490E00E9425051092C50308951E
:1007E0001F920F920FB60F9211242F933F938F9366
:1007F0009F93AF93BF932091D0033091D103809109
:10080000C8039091C9032817390749F08091D00394
:100810009091D10301969093D1038093D0032091BE
:10082000D2033091D3038091CA039091CB03281750
:10083000390749F08091D2039091D30301969093A8
:10084000D3038093D2038091CC039091CD03A091E8
:10085000CE03B091CF030196A11DB11D8093CC03AF
:100860009093CD03A093CE03B093CF03BF91AF91EC
:100870009F918F913F912F910F900FBE0F901F90DE
:10088000189589EF87BD82E084BD93E095BD78948B
:1008900080936E001092CC031092CD031092CE0381
:1008A0001092CF0308958230910550F4F894880F88
:1008B000991FFC01E053FC4F808191817894089549
:1008C00080E090E008958230910598F4880F991F98
:1008D000FC01E053FC4F20813181FC01E853FC4FC7
:1008E00081E090E0408151814217530721F080E080
:1008F000089580E090E008950F931F93CF93DF93C6
:10090000EC018B018091C6039091C703892B41F4C0
:100910000E94410481E090E09093C7038093C60356
:10092000C230D10570F48FB7F894CC0FDD1FFE01F3
:10093000E853FC4F11830083C053DC4F19821882A7
:100940008FBFDF91CF911F910F9108958091C603C2
:100950009091C703892B41F40E94410481E090E00B
:100960009093C7038093C603F8946091CC03709171
:10097000CD038091CE039091CF0378940895FA9A95
:10098000F99A08951F920F920FB60F9211242F9388
:100990003F934F935F936F937F938F939F93AF9307
:1009A000BF93EF93FF93E091FD048091BC04E8179F
:1009B00020F0FB981092B9041AC08091BA0490916B
:1009C000BB0492BD81BD81E08E0F8093FD04F0E0F9
:1009D000E354FB4F808180BD8091BA049091BB04A9
:1009E00001969093BB048093BA040E94BF04FF91C8
:1009F000EF91BF91AF919F918F917F916F915F9197
:100A00004F913F912F910F900FBE0F901F9018950F
:100A10002091B9042111FCCF9093BB048093BA04B8
:100A200081E08093B9041092FD044093BC04962F9A
:100A3000ADEBB4E0FB018E2F891B841718F4819174
:100A40008D93F9CF7894FB9A0895FB01861B970B41
:100A500050E0DC01AE0FBF1F9F01261B370B241790
:100A6000350748F4F999FECFB2BDA1BD219120BD53
:100A7000FA9AF99AEECF08952091B9042111FCCF8A
:100A8000FB01861B970B2E2F261B241748F49C0175
:100A90002E0F3F1F32BD21BDF89A20B52193F3CF11
:100AA00008958091B90490E0089560E070E080E0DE
:100AB00090E00E947C04219A29980895299A08952B
:100AC000299808959093D5038093D4031092D80366
:100AD0001092D7031092D60360E070E080E090E0BF
:100AE0000E947C040C9460058091D4039091D503FE
:100AF000892B09F452C080E090E00E946304892BA6
:100B000009F44BC08091D603811134C02091D703E2
:100B10003091D803E091D403F091D503E20FF31F95
:100B200080818032E9F03CF481111DC01092D8031D
:100B30001092D70308958D3239F08E32A1F40E94BD
:100B40005E056AEF70E004C00E945E056EEE72E022
:100B500080E090E00E947C0481E08093D6030895B9
:100B600068EE73E00BC02F5F3F4F3093D8032093A4
:100B7000D70308950E94600564E670E080E090E08D
:100B80000E947C041092D6038091D7039091D803E1
:100B900001969093D8038093D703089585B18695E5
:100BA000817090E008958031910504F527E0289F39
:100BB000A001299F500D1124FA01E452FC4F8081BD
:100BC0008132A0F480E090E020E0FA01E80FF91F04
:100BD000E452FC4F3081230F019687309105A9F72D
:100BE00081E090E0222321F080E0089580E090E011
:100BF00008956F927F928F929F92AF92BF92CF9201
:100C0000DF92EF92FF920F931F93CF93DF930E9497
:100C10005105892BE1F70CE414E0C0E8D0E0BE01F7
:100C2000645A7C4F47E0CE010E943C05F8011192C6
:100C30008F012796C03FD10591F74CEDE42E43E09C
:100C4000F42E8701C0E0D0E0D12CB12C77247A9427
:100C5000CE010E94D305892B41F0F80180818715D0
:100C600020F4BC2E782EDD24D3942196095F1F4FEB
:100C7000C031D10569F7DD2009F46AC0B092DB0309
:100C80007092DA03CB2DD0E08E010F5F1F4F872CBF
:100C90002FE0A22E37E0932E6801FFE0CF22DD2463
:100CA000C6010E94D305892B61F4B092D9038E014D
:100CB00001501109609780E1A82EB12C97E0692EB0
:100CC0003AC09C9CF0019D9CF00D1124E452FC4F15
:100CD0004081242F30E0882D90E001968F71992774
:100CE0002817390711F7C092DB034093DA03AA945F
:100CF0000F5F1F4FAA20C9F2842ECECFF7012081AB
:100D000030E0872D90E04F968F719927281739078B
:100D100031F5C092D903689CF001699CF00D112453
:100D2000E452FC4F708001501109F7E0EF0EF11C06
:100D30000C171D07A1F0C801B5010E9467146C01D2
:100D40004C019924C4010E94D305892BB9F607C030
:100D50008FE08093DB031092DA031092D903DF91C6
:100D6000CF911F910F91FF90EF90DF90CF90BF90A8
:100D7000AF909F908F907F906F900895EF92FF9229
:100D80001F93CF93DF930E945105892B39F5ECE433
:100D9000F4E0C0E0D0E081918823E1F017E01C9FEF
:100DA000C0011D9F900D11249C0124523C4F7901DC
:100DB00067E070E0C9010E94D310C19FC0011124F7
:100DC00047E0B70180589F4F0E940805C45BDB4F86
:100DD000188204C02196C031D105E9F6DF91CF9188
:100DE0001F91FF90EF900895EF92FF921F93CF9382
:100DF000DF93ECE4F4E0C0E0D0E081918823E1F0FF
:100E000017E01C9FC0011D9F900D11249C012452CE
:100E10003C4F790167E070E0C9010E94D310C19F87
:100E2000C001112447E0B70180589F4F0E9425055B
:100E3000C45BDB4F188204C02196C031D105E9F6AE
:100E4000DF91CF911F91FF90EF900895EF92FF9265
:100E50000F931F93CF93DF93E82EC091DB03D0E075
:100E60002196CF70DD278091D90390E00E94D305B1
:100E7000F82E8091DA038F5F813218F48093DA03C1
:100E800002C01092DA0387E08C9F80018D9F100DC5
:100E9000112404521C4F8091DA03F80180830E94D0
:100EA000F307F8016183728383839483E582C0939F
:100EB000DB0367E070E0C8010E94D310C45BDB4F26
:100EC00081E088838091DB039091D903891308C066
:100ED000FF2031F090E001968F7099278093D9031D
:100EE000DF91CF911F910F91FF90EF900895ECED5E
:100EF000F3E0ACE4B4E08FEF4FEF5FEFBA0191E0C5
:100F00008083858341835283638374839D93379663
:100F100024E0EC34F207A1F78FE08093DB0310921A
:100F2000D9031092DA0308950F931F93CF93DF93A1
:100F30000091D903C02F10E0D0E0CE010E94D3056C
:100F4000892B29F02196CF701F5F0C13F5CF812FCD
:100F5000DF91CF911F910F910895AF92BF92CF92E1
:100F6000DF92EF92FF920F931F93CF93DF936B016A
:100F70007C018A0159010E94940790E0A0E0B0E052
:100F8000C816D906EA06FB06F8F48091D90390E06A
:100F9000C80ED91E8FE0C822DD2487E08C9DF001A9
:100FA0008D9DF00D1124E452FC4F81819281A3812B
:100FB000B481E80188839983AA83BB838581F50185
:100FC000808381E090E002C080E090E0DF91CF91EB
:100FD0001F910F91FF90EF90DF90CF90BF90AF9057
:100FE00008950C94DB0B0C94EB0B6093FE04709350
:100FF000FF0480930005909301050C94F70B9C016E
:1010000060E971E00E945314892B79F0C901837063
:101010009927892B61F4C90164E670E00E9453149A
:101020009C0181E0232B21F402C081E0089580E03F
:1010300008952F923F924F925F926F927F928F927C
:101040009F92AF92BF92CF92DF92EF92FF920F9357
:101050001F93CF93DF93CDB7DEB767970FB6F894A2
:10106000DEBF0FBECDBF2CE0EFE8F1E0AE014F5F79
:101070005F4F1A01DA0101900D922A95E1F7DC0128
:101080002C91220F2056322F330F330F230F11963E
:101090003C9111973153230F2D8713962C91139761
:1010A000022E000C330B205331096AE0629FA0012D
:1010B000639F500D11241496CC900C2C000CDD086D
:1010C000B0E3CB1AD108C40ED51E86010150110918
:1010D000FC012681022E000C330B20533109E8EE6F
:1010E000F3E02E9FA0012F9F500D3E9F500D112425
:1010F000DC0117962C911797022E000C330B20530E
:10110000310974E6729F7001739FF00C1124E40E94
:10111000F51E18964C911897042E000C550B405351
:101120005109649F9001659F300D1124E20EF31E5A
:1011300019962C911997F701E20FF11D27FDFA95E9
:10114000AF0158507A011B962C911B97220F205605
:10115000322F330F330F230F1C963C911C973053C3
:10116000230F298B1E962C911E97220F2056322F6B
:10117000330F330F230F1F963C911F973053230FCC
:101180002A8B51962C915197220F2056322F330FD4
:10119000330F230F52968C918053280F2B8BCA014B
:1011A0000E94FF07882321F05D85523008F08601F8
:1011B000C70160E971E00E945314FC01DB0120E8E3
:1011C00039E540E650EF0E94D1142B013C01CF01DC
:1011D00064E670E00E945314FC01DB0120E032EC75
:1011E00047E15CEB0E94D1144B015C01DF01B69535
:1011F000A795B695A79520E83FE146E857E00E94FD
:10120000D1146B017C01DF01A370BB2720E833E31D
:1012100041EE51E00E94D1146C8B7D8B8E8B9F8BA5
:10122000F1018E2F82199D85891720F48191080F75
:10123000111DF7CFA9892A2F30E0A0E1BEE00E945E
:10124000C2146D877E878F87988BBA892B2F30E0E9
:10125000ACE3B0E00E94C2142D853E854F855889CD
:10126000260F371F481F591FDA01C9013B89830F19
:10127000911DA11DB11D480E591E6A1E7B1E840CB6
:10128000951CA61CB71CC80CD91CEA1CFB1C8C891D
:101290009D89AE89BF89C80ED91EEA1EFB1ED801E2
:1012A00020E831E541E050E00E94D114DC01CB019F
:1012B0008C0D9D1DAE1DBF1D8093FE049093FF04F9
:1012C000A0930005B093010567960FB6F894DEBFB2
:1012D0000FBECDBFDF91CF911F910F91FF90EF9087
:1012E000DF90CF90BF90AF909F908F907F906F9046
:1012F0005F904F903F902F900C94F70BEF92FF92DE
:101300000F931F93CF93DF93CDB7DEB768970FB6D8
:10131000F894DEBF0FBECDBF7B012CE0EFE8F1E01B
:10132000DE011D9601900D922A95E1F78E010F5F67
:101330001F4F2CE0F80111922A95E9F70E94FF0750
:101340008A83DE011D9680E0F701408151819D91E5
:10135000F80121918F0130E0290F311D4217530709
:1013600040F0421B530BF701518340838F5F8C3059
:1013700059F768960FB6F894DEBF0FBECDBFDF9168
:10138000CF911F910F91FF90EF9008954F925F9230
:101390006F927F928F929F92AF92BF92CF92DF9285
:1013A000EF92FF92CF93DF9300D0CDB7DEB72B0142
:1013B0003C0181E090E0A0E0B0E020E8421629E5A1
:1013C000520620E6620620EF720618F480E090E0F4
:1013D000DC0120E931E0829F5001839FB00C929F95
:1013E000B00C112480E3A81A88EFB80AC12CD12CC4
:1013F0007601C39420E8421629E5520620E66206EB
:1014000020EF720618F4C12CD12C7601A7019601A9
:1014100060E879E580E690EF0E9443147301620171
:10142000C61AD70AE80AF90A81E090E0A0E0B0E025
:10143000C11422ECD20627E1E2062CEBF20618F4E6
:1014400080E090E0DC0144E6489F9001499F300D28
:101450001124A20EB31E21E030E040E050E0C114A0
:1014600082ECD80687E1E8068CEBF80618F420E059
:1014700030E0A90160E072EC87E19CEB0E9443142C
:10148000A7019601261B370B480B590BCA01B9015E
:1014900020E83FE146E857E00E947B14220F331F0B
:1014A000220F331FA20EB31E20E833E341EE51E0BA
:1014B0000E947B147501E20EF31E20E831E541E045
:1014C00050E00E947B144B015C013A832983BE01EA
:1014D0006F5F7F4FC7010E947E09D82EC501B401FE
:1014E00020E13EE040E050E00E947B1429013A01F7
:1014F0004B015C016CED71E084E191E00E940A0B0C
:101500006D2D70E06F5F7F4F42E084E191E00E94BB
:101510001D0B69817A816F5F7F4F42E087E191E027
:101520000E941D0B44E0B7018AE191E00E941D0B6F
:1015300042E0B2018FE191E00E941D0BC501B401B0
:101540002CE330E040E050E00E947B1449015A0156
:101550006B017C0142E0B40182E291E00E941D0B2C
:1015600042E0B60185E291E00E941D0B84E191E02A
:101570000F900F90DF91CF91FF90EF90DF90CF9081
:10158000BF90AF909F908F907F906F905F904F90A3
:1015900008950F931F930E94EB0B0091FE0410918E
:1015A000FF042091000530910105600F711F821F1B
:1015B000931F1F910F910C94C609FB01480F591FEF
:1015C0008417950729F02191DC012D93CD01F8CFE7
:1015D0000895480F591F8417950721F0FC01619366
:1015E000CF01F9CF0895FB01480F591F84179507C4
:1015F00059F0DC013D91CD012191321740F02317C4
:10160000A8F781E090E0089580E090E008958FEFE2
:101610009FEF0895FC01DB018D91BD01882311F03E
:101620008193F9CF10820895FC019F01281B390B8B
:1016300041914111FACFC90108959F92AF92BF9293
:10164000CF92DF92EF92FF920F931F93CF93DF938E
:1016500000D000D01F92CDB7DEB7FC016B019E0118
:101660002F5F3F4F8E010A5F1F4FEE24E394F12C52
:101670009AE0992E9E9C50019F9CB00C1124C601AB
:10168000B5010E945314B7010E945314D9016D9300
:101690009D01C61AD10867FDD3947501A017B10743
:1016A00049F760E070E084E090E050E0D8012E91CE
:1016B0008D01211105C06115710511F4009741F4E8
:1016C000841795072CF4205D219361E070E004C03D
:1016D000841795070CF43196019740F70F900F90FF
:1016E0000F900F900F90DF91CF911F910F91FF906E
:1016F000EF90DF90CF90BF90AF909F90089588ECCF
:1017000080937C0086E880937A00089580917A0027
:10171000829586958695837091E08927817090E007
:101720000895EAE7F0E080818064808308958091E5
:1017300078002091790030E0322F2227A901330F61
:10174000660B770B9A01AB01282BA5E6B0E00E944F
:10175000D11424E630E040E050E00E949D14DA010C
:10176000C90181519140A109B10908951F920F92B9
:101770000FB60F9211248F939F93AF93BF938091D5
:101780005C0490915D04A0915E04B0915F040196A9
:10179000A11DB11D80935C0490935D04A0935E0431
:1017A000B0935F04BF91AF919F918F910F900FBE47
:1017B0000F901F90189583E294EF90938900809387
:1017C0008800109280008CE080938100789482E001
:1017D00080936F0008952FB7F89460915C04709126
:1017E0005D0480915E0490915F042FBF08958FB7D0
:1017F000F89410925C0410925D0410925E041092B2
:101800005F048FBF08950E942512789408950C9468
:10181000E913CF93DF93EC018991882319F00E949B
:10182000E913FACFDF91CF910895CF93C82F90E0BD
:1018300024E0959587952A95E1F78A3010F4805D2C
:1018400001C0895C0E94E9138C2F8F708A3010F0E0
:10185000895C01C0805DCF910C94E913CF93C82FB0
:10186000892F0E94150C8C2FCF910C94150C2F9260
:101870003F924F925F926F927F928F929F92AF9220
:10188000BF92CF92DF92EF92FF920F931F93CF936D
:10189000DF93CDB7DEB763970FB6F894DEBF0FBE08
:1018A000CDBF6B017C0197FF0DC0F094E094D09404
:1018B000C094C11CD11CE11CF11C81E090E09B8B09
:1018C0008A8B02C01B8A1A8AFE0131965F018E0143
:1018D000055F1F4FF98BE88B66246394712C812C74
:1018E000912CAAE0B0E09301A4010E94D1141B0145
:1018F0002C01C701B6019101A2010E949D14930120
:10190000A4010E949D14E889F9892193F98BE88B41
:10191000822F220F990BAA0BBB0BC81AD90AEA0A0D
:10192000FB0A310142010E171F07D9F68A899B89EC
:10193000892B19F08DE20E94E91320E030E0F801D4
:1019400082918F01811106C02115310519F4EA1524
:10195000FB0529F4805D0E94E91321E030E00A15BF
:101960001B0569F763960FB6F894DEBF0FBECDBFB7
:10197000DF91CF911F910F91FF90EF90DF90CF906B
:10198000BF90AF909F908F907F906F905F904F909F
:101990003F902F9008950C94BF130C94E613FF9280
:1019A0000F931F93CF93DF93EC01062FF72E18822E
:1019B0000E94BF1310E08823D9F00E94931388235C
:1019C000B9F00E949A13803210F089931F5FE02FC4
:1019D000FF2D482F50E02191222339F0022E000CD8
:1019E000330B42175307B9F702C08D3051F71882F5
:1019F000812FDF91CF911F910F91FF9008950F9349
:101A00001F93CF93DF938C01EC01699170E080E02C
:101A100090E00E94370C0C5F1F4F8EE20E94E9138A
:101A2000699170E080E090E00E94370CC017D10708
:101A3000A1F787EF91E0DF91CF911F910F910C9467
:101A4000090CCF93DF93EC0182E20E94070CCE01D8
:101A50000E94090C82E2DF91CF910C94070C80EF79
:101A600091E00C94090CDC01809160048D3229F422
:101A70008FEF9FEFE1E6F4E004C081E090E0E0E664
:101A8000F4E011961C921E926AE040812D913C91E7
:101A900011974423C1F0629FA001639F500D112450
:101AA00011965C934E93219130ED320F3A30B8F499
:101AB000022E000C330B20533109240F351F1196D1
:101AC0003C932E93E2CF289FA001299F500D389F71
:101AD000500D11244D935C9381E090E0089580E0D7
:101AE00090E008950C94070C0C94090C0C94150CC0
:101AF0000C942E0C0C94370C0C94BF130C94E6131E
:101B0000FF920F931F93CF93DF93EC01062FF72ED5
:101B100018820E94BF1310E08823D9F00E9493130B
:101B20008823B9F00E949A13803210F089931F5FC6
:101B3000E02FFF2D482F50E02191222339F0022E73
:101B4000000C330B42175307B9F702C08D3051F721
:101B50001882812FDF91CF911F910F91FF900895EF
:101B60006AEF71E080E694E00E94800D882349F0DE
:101B7000E82FF0E0E15AFB4F80818F3289F3803209
:101B800079F308950F931F93CF93DF9300D000D084
:101B90001F92CDB7DEB76AEF71E080E694E00E9455
:101BA000800D6DEF71E080E694E00E94B810892B03
:101BB00009F0BBC16AEF71E080E694E00E94800DFD
:101BC00068E773E080E694E00E94B810892B09F082
:101BD00081C26AEF71E080E694E00E94800D62E0CD
:101BE00072E080E694E00E94B810892B09F072C27E
:101BF00085E193E00E94090C87EF91E00E94090CB7
:101C000089E092E00E94090C87EF91E00E94090CA4
:101C100083E192E00E94090C86E095E00E94210D8C
:101C20008CE20E94070C87EF91E00E94090C80E291
:101C300092E00E94090C82E195E00E94210D8CE265
:101C40000E94070C87EF91E00E94090C84E392E068
:101C50000E94090C8EE195E00E94210D8CE20E9409
:101C6000070C87EF91E00E94090C89E492E00E9442
:101C7000090C60912A0570912B0580912C0590919B
:101C80002D050E94C6098C01FC01128682E20E9489
:101C9000070CC8010E94090C82E20E94070C8CE22A
:101CA0000E94070C87EF91E00E94090C81E692E008
:101CB0000E94090C80912E050E94150C0FE215E080
:101CC0008AE30E94070CF80181918F010E94150C94
:101CD000F5E004331F07A1F785E792E00E94090CA5
:101CE00087EF91E00E94090C88E792E00E94090CBE
:101CF00084E395E00E94210D87EF91E00E94090C9A
:101D000088E393E00E94090C87EF91E00E94090CA0
:101D10008CE892E00E94090C6091AB047091AC04D5
:101D2000072E000C880B990B0E94370C8CE20E9446
:101D3000070C87EF91E00E94090C8AE992E00E946B
:101D4000090C6091AD047091AE04072E000C880B55
:101D5000990B0E94370C8CE20E94070C87EF91E0F0
:101D60000E94090C88EA92E00E94090C6091AF047D
:101D70007091B004072E000C880B990B0E94370C51
:101D80008CE20E94070C87EF91E00E94090C86EB21
:101D900092E00E94090C6091B1047091B204072E88
:101DA000000C880B990B0E94370C8CE20E94070CE8
:101DB00087EF91E00E94090C84EC92E00E94090CEC
:101DC0006091000170910101072E000C880B990BA6
:101DD0000E94370C8CE20E94070C87EF91E00E9472
:101DE000090C85ED92E00E94090C80910001909110
:101DF00001012091AB043091AC04821793071CF0D1
:101E000080EE92E020C02091AD043091AE048217A4
:101E100093071CF088EE92E016C02091B104309137
:101E2000B204281739071CF480EF92E00CC020910F
:101E3000AF043091B004281739071CF487EF92E003
:101E400002C08FEF92E00E94090C8CE20E94070C06
:101E500087EF91E00E94090C87E093E00E94090C53
:101E600087EF91E00E94090C10E00E949407181778
:101E700008F048C0812F90E0A0E0B0E09E012B5F09
:101E80003F4FAE014F5F5F4FBC01CD010E94AD07D8
:101E9000112339F08CE20E94070C87EF91E00E9439
:101EA000090C81E193E00E94090C87EF91E00E9408
:101EB000090C87E193E00E94090C82E20E94070C62
:101EC00069817A818B819C810E94C6090E94090CDC
:101ED00082E20E94070C8CE20E94070C8AE293E0E7
:101EE0000E94090C6D8170E080E090E00E94370C48
:101EF00087EF91E00E94090C86E393E00E94090CB1
:101F00001F5FB3CF87EF91E00E94090C8CE393E051
:101F10000E94090C87EF91E00E94090C8AE393E08C
:101F20000E94090C87EF91E017C160E473E080E63E
:101F300094E00E94B810892B09F0D8C06AEF71E0D4
:101F400080E694E00E94800D68E773E080E694E00C
:101F50000E94B810892B09F0BDC065E473E080E6EB
:101F600094E00E94800D69E473E080E694E00E94B2
:101F7000B810892B89F561E573E080E694E00E9452
:101F8000800D65E573E080E694E00E94B810892B2F
:101F900009F0A0C06AEF71E080E694E00E94800D35
:101FA0006CE573E080E694E00E94B810892B29F478
:101FB00084E693E00E94090C8FC06BE673E080E634
:101FC00094E00E94B810892B09F084C084E693E065
:101FD0000E94090C0E94190362E773E080E694E016
:101FE0000E94B810892B09F075C065E473E080E6A3
:101FF00094E00E94800D6AE773E080E694E00E941E
:10200000B810892B09F066C062E873E080E694E0BE
:102010000E94800D65E873E080E694E00E94B810AD
:10202000892B91F46AEF71E080E694E00E94800DC4
:10203000CE0101960E94330D892B09F44BC0898192
:102040009A810E947C024FC06FE873E080E694E0C2
:102050000E94B810892B89F46AEF71E080E694E061
:102060000E94800DCE0101960E94330D892B91F1C3
:1020700089819A810E949B0236C069E973E080E6FB
:1020800094E00E94B810892B89F46AEF71E080E631
:1020900094E00E94800DCE0101960E94330D892BA1
:1020A000C9F089819A810E94BE021DC063EA73E073
:1020B00080E694E00E94B810892B61F46AEF71E029
:1020C00080E694E00E94800DCE0101960E94330DBF
:1020D000892B29F40E942F0D0E94B00D3FC08981E9
:1020E0009A810E94D802892BA9F1F4CF6DEA73E09E
:1020F00080E694E00E94B810892B61F76AEF71E0E6
:1021000080E694E00E94800D68E773E080E694E04A
:102110000E94B810892BF1F66AEF71E080E694E036
:102120000E94800D62E773E080E694E00E94B810A0
:10213000892B81F66AEF71E080E694E00E94800DC1
:1021400065EB73E080E694E00E94B810892B11F6ED
:102150000E94770784E693E00E94090C0F900F908D
:102160000F900F900F90DF91CF911F910F910895D5
:10217000DC01FB019D91992341F08191891784F045
:102180009817C4F78FEF9FEF089581E090E02081CA
:10219000211102C080E090E0919581959109089508
:1021A00081E090E00895DC0190E020E06150710949
:1021B000422F50E0FD01E40FF51F4617570720F4AA
:1021C0008081980F2F5FF4CF9195908308956115CA
:1021D00071058105910541F060932C0170932D01EB
:1021E00080932E0190932F01211531054105510552
:1021F00041F0209328013093290140932A01509304
:102200002B0108954F925F926F927F928F929F92CF
:10221000AF92BF92CF92DF92EF92FF92CF93DF9374
:1022200000D000D0CDB7DEB72B013C0129833A8323
:102230004B835C83C0902801D0902901E0902A0153
:10224000F0902B01A701960144275527A9E6B0E994
:102250000E94D1146701EE24FF244B015C018C0C19
:102260009D1CAE1CBF1C8092280190922901A09257
:102270002A01B0922B01C0902C01D0902D01E0904A
:102280002E01F0902F01A701960144275527A0E5C4
:10229000B6E40E94D1146701EE24FF24C60ED71EB7
:1022A000E81EF91EC0922C01D0922D01E0922E0161
:1022B000F0922F01D40199278827BC01CD016C0D24
:1022C0007D1D8E1D9F1D29813A814B815C812419C2
:1022D0003509460957090E947B14CB01840D951DD1
:1022E0000F900F900F900F90DF91CF91FF90EF9094
:1022F000DF90CF90BF90AF909F908F907F906F9026
:102300005F904F900895CF93DB01FC0120812D3227
:1023100021F401966FEF7FEF02C061E070E011964B
:102320001C921E92FC01CAE020818D919C91119714
:102330002223C1F0C89FA001C99F500D11241196FE
:102340005C934E93219180ED820F8A30B8F4022E77
:10235000000C330B20533109240F351F11963C9389
:102360002E93E2CF869F9001879F300D969F300D70
:1023700011242D933C9381E090E002C080E090E036
:10238000CF91089580910205833561F48091030512
:10239000853441F481E090E020910405223521F05C
:1023A00080E002C080E090E0E2E0F5E020E03191E2
:1023B000230F35E0EA33F307D1F7222311F080E051
:1023C00090E00895CF93DF93CDB7DEB7E7970FB6D0
:1023D000F894DEBF0FBECDBF87E3EBE9F1E0DE018D
:1023E000119601900D928A95E1F767E370E0CE01B6
:1023F00001960E94D31047E3BE016F5F7F4F80E0DC
:1024000090E00E940805E7960FB6F894DEBF0FBE75
:10241000CDBFDF91CF9108950E945105892BE1F73F
:1024200047E362E075E080E090E00E943C050E9496
:10243000C211892B49F40E94E21147E362E075E082
:1024400080E090E00C943C0508951092C00087E66F
:1024500090E09093C5008093C400E1ECF0E088E147
:10246000808386E08093C2008081806A80830895A3
:102470001F920F920FB60F9211242F933F938F93B9
:102480009F93EF93FF938091A604882309F4F0C0F3
:102490008091C6009091A504992309F4E3C090EEC1
:1024A000980F9F3518F08D3009F059C02091A20483
:1024B0009091A30430E0291B3109215031092F7379
:1024C0003327232B61F0E091A304F0E0E75CFA4F9F
:1024D00080839091A3049F5F9F739093A3042091A6
:1024E000A0049091A10430E0291B31092150310949
:1024F0002F733327232B89F0E091A104F0E0E758F4
:10250000FA4F80839091A1049F5F9F739093A104E1
:102510009091C10090629093C1008D3009F0C5C0C8
:102520008091A0042091A10490E0821B9109019761
:102530008F739927892B69F0E091A104F0E0E758A7
:10254000FA4F8AE080838091A1048F5F8F7380931C
:10255000A1048091A4048F5F8093A404A6C0883056
:1025600011F08F37C1F58091A3042091A20490E06F
:10257000821B91098F739927892B09F496C0E091EA
:10258000A304F0E0E75CFA4F80818091A3048150BE
:102590008F738093A3048091A0042091A10490E004
:1025A000821B910901978F739927892B09F47DC0AC
:1025B000E091A104F0E0E758FA4F8FE78083809123
:1025C000A1048F5F8F738093A1048091C10080620A
:1025D0008093C1006AC0843009F067C08091A30471
:1025E0002091A20490E0821B91098F739927892B77
:1025F00031F1E091A304F0E0E75CFA4F80818D3087
:10260000F1F08091A2042091A30490E0821B910933
:1026100001978F739927892B91F0E091A304F0E043
:10262000E75CFA4F8DE080838091A3048F5F8F7306
:102630008093A3048091A4048F5F8093A40480916D
:10264000A2042091A30490E0821B910901978F734B
:102650009927892B51F1E091A304F0E0E75CFA4F50
:1026600084E019C0833009F581E08093A5041DC082
:102670008091A2042091A30490E0821B910901970C
:102680008F739927892B79F0E091A304F0E0809172
:10269000C600E75CFA4F80838091A3048F5F8F733D
:1026A0008093A30402C08091C600FF91EF919F9197
:1026B0008F913F912F910F900FBE0F901F90189503
:1026C0001F920F920FB60F9211242F938F939F9307
:1026D000EF93FF938091A1042091A00490E0821BCE
:1026E00091098F739927892B79F0E091A004F0E08C
:1026F000E758FA4F80818093C6008091A0048F5FD5
:102700008F738093A00405C08091C1008F7D80935A
:10271000C100FF91EF919F918F912F910F900FBE6C
:102720000F901F9018958091A3049091A204891B8B
:102730008F7308958091A3042091A20490E0821BDE
:1027400091098F739927892BC1F0E091A204F0E0E1
:10275000E75CFA4F80819091A2049F5F9F739093F2
:10276000A2049091A604992349F08D3039F49091F8
:10277000A40491509093A404089580E0089581E00A
:102780008093A6048091A3042091A20490E0821B70
:1027900091098F739927892BB1F0E091A204F0E0A1
:1027A000E75CFA4F8081843071F41092A504E091C7
:1027B000A204F0E0E75CFA4F80818091A2048F5F71
:1027C0008F738093A2048091A50408958091A4043E
:1027D00008950FB607FE0EC02091A0049091A104A9
:1027E00030E0291B3109215031092F733327232B66
:1027F00099F30DC02091A0049091A10430E0291B11
:102800003109215031092F733327232B61F0E091D7
:10281000A104F0E0E758FA4F80838091A1048F5F14
:102820008F738093A1048091C10080628093C10066
:1028300008951F93CF93DF93EC0180E011E0180F10
:10284000FE01E80FF11D8081882321F00E94E91329
:10285000812FF4CFDF91CF911F9108951F93CF93D4
:10286000DF93EC0180E011E0180FFE01E80FF11D8D
:102870008491882321F00E94E913812FF4CFDF9106
:10288000CF911F910895DB018F939F930E94D114E4
:10289000BF91AF91A29F800D911DA39F900DB29FFC
:1028A000900D11240895AA1BBB1B51E107C0AA1F5C
:1028B000BB1FA617B70710F0A61BB70B881F991FE1
:1028C0005A95A9F780959095BC01CD01089597FB85
:1028D000072E16F4009407D077FD09D00E945314F8
:1028E00007FC05D03EF4909581959F4F0895709513
:1028F00061957F4F0895A1E21A2EAA1BBB1BFD0113
:102900000DC0AA1FBB1FEE1FFF1FA217B307E407CE
:10291000F50720F0A21BB30BE40BF50B661F771F26
:10292000881F991F1A9469F7609570958095909506
:102930009B01AC01BD01CF010895052E97FB1EF44C
:1029400000940E94B41457FD07D00E947B1407FC2A
:1029500003D04EF40C94B4145095409530952195C5
:102960003F4F4F4F5F4F08959095809570956195BB
:102970007F4F8F4F9F4F0895EE0FFF1F0590F491EB
:10298000E02D0994A29FB001B39FC001A39F700DD9
:10299000811D1124911DB29F700D811D1124911D67
:1029A00008950E94C214A59F900DB49F900DA49FFE
:0C29B000800D911D11240895F894FFCFB4
:1029BC00030B443100802500002D00040B44300033
:1029CC00802500002D0002060024F400010C617427
:0829DC006D65676133323800BC
:1029E400580041535500FF03FE030000010000C0DE
:1029F400A801640030302F30302F30303030203098
:102A0400303A30303A303000E5559A15B53B121F54
:102A14005345523438362050726F6A6563742033DC
:102A2400202D20496E746567726174696F6E0D0A9A
:102A340000416E647265775F476F6F6F646D616E9E
:102A4400000D0A00436F6E6E656374696F6E2045F6
:102A5400737461626C69736865640D0A00436F6E18
:102A64006E656374696F6E204C6F73740D0A001F7A
:102A74001C1F1E1F1E1F1F1E1F1E1F5345520053C7
:102A8400616E647900000000000000446F75676C9B
:102A9400617300000000005F554E41535349474E97
:102AA40045440000000000444F5553414E555341E6
:102AB40000000D0A414C41524D3A200030302F3075
:102AC400302F303030302030303A30303A3030002F
:102AD400494E56414C49440D0A002F2000474554A5
:102AE4002000646576696365002020227670642284
:102AF4003A7B0020202020226D6F64656C223A000E
:102B040020202020226D616E756661637475726584
:102B140072223A00202020202273657269616C5F62
:102B24006E756D626572223A0020202020226D614C
:102B34006E75666163747572655F64617465223A6B
:102B44000020202020226D61635F616464726573DC
:102B540073223A2200222C002020202022636F7549
:102B64006E7472795F636F6465223A002020227468
:102B7400637269745F6869223A0020202274776165
:102B8400726E5F6869223A0020202274637269744D
:102B94005F6C6F223A00202022747761726E5F6C42
:102BA4006F223A0020202274656D7065726174751D
:102BB4007265223A002020227374617465223A00FF
:102BC400435249545F4849005741524E5F484900B7
:102BD4004E4F524D414C005741524E5F4C4F0043B3
:102BE4005249545F4C4F002020226C6F67223A5B9D
:102BF40000202020207B0020202020202022746917
:102C04006D657374616D70223A00226576656E7429
:102C14006E756D223A00202020207D0020205D006A
:102C240050555420002F203F006465766963653F4A
:102C3400002F203D0072657365743D002266616C4F
:102C4400736522004F4B41590D0A00227472756559
:102C540022006465766963652F00636F6E66696739
:102C64003F003D200074637269745F68693D0074BD
:102C74007761726E5F68693D0074637269745F6C3A
:102C84006F3D00747761726E5F6C6F3D0044454C1C
:0A2C940045544520006C6F670000F6
:00000001FF
