:100000000C9434000C9451000C9451000C94510049
:100010000C9451000C9451000C9451000C9451001C
:100020000C9451000C9451000C9451000C9451000C
:100030000C9451000C9451000C9451000C945100FC
:100040000C9451000C9451000C94C1010C94F201D9
:100050000C9451000C9451000C9451000C945100DC
:100060000C9451000C94510011241FBECFEFD8E026
:10007000DEBFCDBF11E0A0E0B1E0E2E7F5E002C0F5
:1000800005900D92AA33B107D9F721E0AAE3B1E0B8
:1000900001C01D92AE3BB207E1F70E9453000C94E1
:1000A000A3020C940000CF93DF93CDB7DEB70E947C
:1000B000AA0180E091E00E94A0008AE00E94CC00AA
:1000C0008EE191E00E94A0008EED90EC0E94220152
:1000D0008EE191E00E94A00081E291E00E9438014F
:1000E000FFCFCF93DF9300D000D000D0CDB7DEB7E5
:1000F0009E838D831A82198212C01C821B8205C0C6
:100100008B819C8101969C838B838B819C81883E13
:100110009340B0F389819A8101969A8389832981DA
:100120003A818D819E812817390738F30000269681
:100130000FB6F894DEBF0FBECDBFDF91CF9108950B
:10014000CF93DF9300D000D0CDB7DEB79C838B83F5
:100150001A8219820FC02B813C8189819A81820F7A
:10016000931FFC0180810E94AD0189819A810196D3
:100170009A8389832B813C8189819A81820F931F85
:10018000FC018081882339F700000F900F900F90B9
:100190000F90DF91CF910895CF93DF93CDB7DEB766
:1001A00067970FB6F894DEBF0FBECDBF8F8B8F89D8
:1001B000898381E1E9E2F1E0DE01169601900D927A
:1001C0008A95E1F71B821A8208C089818051898350
:1001D0008A819B8101969B838A8389818031A8F7DC
:1001E0009E012A5F3F4F8A819B81820F931FFC01F2
:1001F00080810E94AD018F898295807F89831D82D5
:100200001C8208C08981805189838C819D810196DF
:100210009D838C8389818031A8F79E012A5F3F4F9F
:100220008C819D81820F931FFC0180810E94AD0112
:10023000000067960FB6F894DEBF0FBECDBFDF910A
:10024000CF910895CF93DF9300D0CDB7DEB79A83D7
:10025000898389819A81892F99270E94CC0089817D
:100260000E94CC0000000F900F90DF91CF91089575
:10027000CF93DF9300D000D0CDB7DEB79C838B83C4
:1002800084E290E024E230E0F90120812260FC0168
:1002900020831A8219824BC089819A812B813C81EB
:1002A000820F931FFC0180818D3291F483E290E0F4
:1002B00022E0FC01208388E290E00E94710083E24A
:1002C00090E022E0FC01208385E090E00E94710034
:1002D00089819A812B813C81820F931FFC0180814F
:1002E0008E3291F483E290E022E0FC0120838FE0E3
:1002F00090E00E94710083E290E022E0FC01208304
:1003000085E090E00E94710089819A812B813C8177
:10031000820F931FFC018081803221F482E390E000
:100320000E94710089819A8101969A8389838981CB
:100330009A812B813C81820F931FFC01808188234D
:1003400009F0AACF00000F900F900F900F90DF914F
:10035000CF91089503D07894089598C01092C0006A
:1003600083E390E09093C5008093C400E1ECF0E05B
:1003700088E1808386E08093C2008081806A8083E8
:1003800008951F920F920FB60F9211242F938F93FF
:100390009F93EF93FF9380913C0120913D0190E06A
:1003A000821B910901978F739927892B79F0E0912E
:1003B0003D01F0E08091C600E25CFE4F80838091B9
:1003C0003D018F5F8F7380933D0102C08091C60015
:1003D000FF91EF919F918F912F910F900FBE0F90F2
:1003E0001F9018951F920F920FB60F9211242F9302
:1003F0008F939F93EF93FF9380913B0120913A015C
:1004000090E0821B91098F739927892B79F0E091F5
:100410003A01F0E0E258FE4F80818093C60080915F
:100420003A018F5F8F7380933A0105C08091C100BC
:100430008F7D8093C100FF91EF919F918F912F91BC
:100440000F900FBE0F901F90189580913D019091D5
:100450003C01891B8F73089580913D0120913C01DF
:1004600090E0821B91098F739927892B69F0E091A5
:100470003C01F0E0E25CFE4F808190913C019F5F87
:100480009F7390933C01089580E008950FB607FE96
:100490000EC020913A0190913B0130E0291B3109B7
:1004A000215031092F733327232B99F30DC020914D
:1004B0003A0190913B0130E0291B3109215031096B
:1004C0002F733327232B61F0E0913B01F0E0E258DA
:1004D000FE4F808380913B018F5F8F7380933B0140
:1004E0008091C10080628093C10008951F93CF93D3
:1004F000DF93C82FD92F90E011E0190FEC2FFD2FBB
:10050000E90FF11D8081882319F0C0DF912FF4CF0E
:10051000DF91CF911F9108951F93CF93DF93C82F41
:10052000D92F90E011E0190FEC2FFD2FE90FF11DED
:10053000C895802D882319F0A9DF912FF3CFDF9183
:0A054000CF911F910895F894FFCFAA
:10054A00030B443100004B00002D00040B44300023
:10055A00004B00002D0002060024F400010C617417
:08056A006D6567613332380052
:1005720053455234383620485733202D20416E647B
:1005820072657720476F6F646D616E0A0D000A0D08
:10059200002D2D2D202D2E2D0030313233343536C5
:0A05A2003738394142434445460012
:00000001FF
