:100000000C9444000C9461000C9461000C94610009
:100010000C9461000C9461000C942C250C946100EC
:100020000C9461000C9461000C9461000C94551CBC
:100030000C9461000C9461000C949B060C9461007C
:100040000C9461000C9461000C9462250C948A2637
:100050000C9461000C9461000C946B0D0C94610085
:100060000C9461000C9461003C01800157039B03D8
:1000700013052D053705AC1BCB1BD91BE31BFD1B43
:10008000071C121C2B1C351C11241FBECFEFD8E0FF
:10009000DEBFCDBF14E0A0E0B1E0E6E4F0E502C0D1
:1000A00005900D92AE30B107D9F726E0AEE0B4E08E
:1000B00001C01D92A431B207E1F70E9463000C94C5
:1000C0000D280C940000EF92FF920F931F93CF9393
:1000D000DF93CDB7DEB72D970FB6F894DEBF0FBE16
:1000E000CDBF0E94A21C0E94FE0D0E94141F0E9400
:1000F00054060E94A20E0E9479110E94961A0E9434
:10010000661B0E9410220E949D1B4CE252E065E398
:1001100072E08CE392E00E94651480EC8D8388EAA3
:100120008E8381E08F8381E088879E012B5F3F4F24
:10013000AE014B5F5F4FCE010596BC0189E895E0AB
:100140000E94C11F000000EA1FE020E030E040E60E
:100150005AEE60E070E089E895E00E94B50C892BCA
:1001600091F384E492E00E94A81C0E946A070E9416
:100170009E1D0E946D077C010E9470078C010E94E9
:100180006A079701A801BC0189E895E00E94C11F98
:1001900083E00E94CF0F85E00E949A1084E00E94C5
:1001A000CF0F0E943B2580E00E94CF0F80E090E0BF
:1001B0000E945E050E94C9140E94781B68E873E1E2
:1001C00080E090E00E9427070E9447250E941D0EB4
:1001D0000E946D1B892B19F10E947E1B90930101D7
:1001E00080930001E0910C05F0910D0520910A0526
:1001F00030910B0540910805509109056091060565
:100200007091070580910001909101018F010E947A
:100210009E1B68EE73E080E090E00E94270780E07C
:100220000E944315882361F060E97FE180E00E942D
:10023000831580E00E9489151092FC041092FB0443
:1002400080E00E943B15882309F430C48091FB04B0
:100250009091FC04CC01A0E0B0E040E050E026E04A
:1002600030E0841B950B2817390708F418C48C5C00
:100270009F4FFC010C94E6278091020190910301AD
:10028000BC0180E00E948419882331F081E090E075
:100290009093FC048093FB048091040190910501EC
:1002A000BC0180E00E948419882339F082E090E04C
:1002B0009093FC048093FB04FEC38091060190910F
:1002C0000701BC0180E00E948419882339F083E093
:1002D00090E09093FC048093FB04EDC380910801AF
:1002E00090910901BC0180E00E948419882309F4DF
:1002F000E2C384E090E09093FC048093FB04DBC3B2
:100300000E943D10882F90E0909300058093FF0499
:1003100019861A861B861C861D8680910A0190917B
:100320000B01BC0180E00E94C917809110019091DF
:100330001101BC0180E00E94C9176BE780E00E94B8
:10034000D9176FE472E080E00E94EA1763E572E07B
:1003500080E00E94C91766E572E080E00E94EA171B
:100360006AE380E00E94D91761E675E080E00E94B0
:10037000EA176CE280E00E94D9176CE572E080E039
:100380000E94EA176AE380E00E94D9176DE675E0E3
:1003900080E00E94EA176CE280E00E94D91769E6CB
:1003A00072E080E00E94EA176AE380E00E94D917B9
:1003B00069E775E080E00E94EA176CE280E00E9445
:1003C000D91767E772E080E00E94EA176AE380E0ED
:1003D0000E94D9178091850590918605A091870587
:1003E000B0918805AC01BD0180E00E94FD176CE270
:1003F00080E00E94D91768E872E080E00E94EA1766
:100400006AE380E00E94D91769E875E080E00E9405
:1004100028186CE280E00E94D91764E972E080E05D
:100420000E94EA176AE380E00E94D9176FE875E03E
:1004300080E00E94EA1761EA72E080E00E94C9173A
:1004400064EA72E080E00E94EA176AE380E00E94BA
:10045000D9178091060590910705BC0180E00E94A4
:100460005E186CE280E00E94D9176DEA72E080E0CD
:100470000E94EA176AE380E00E94D917809108057C
:1004800090910905BC0180E00E945E186CE280E05A
:100490000E94D91766EB72E080E00E94EA176AE3D7
:1004A00080E00E94D91780910A0590910B05BC014C
:1004B00080E00E945E186CE280E00E94D9176FEB2A
:1004C00072E080E00E94EA176AE380E00E94D91798
:1004D00080910C0590910D05BC0180E00E945E1892
:1004E0006CE280E00E94D91768EC72E080E00E9424
:1004F000EA176AE380E00E94D91780910001909189
:100500000101BC0180E00E945E186CE280E00E9464
:10051000D91764ED72E080E00E94EA176AE380E098
:100520000E94D9176AED72E080E00E94EA1761EA42
:1005300072E080E00E94C91761EE72E080E00E94E4
:10054000EA1765EE72E080E00E94C91719821A82EC
:100550001B821C8247C09E01235F3F4FAE01475F55
:100560005F4F89819A81AB81BC81BC01CD010E9422
:1005700056106BE780E00E94D91768EE72E080E0C9
:100580000E94EA176AE380E00E94D91789859A855C
:10059000AB85BC85AC01BD0180E00E94FD176CE21B
:1005A00080E00E94D91762EF72E080E00E94EA17B3
:1005B0006AE380E00E94D9178D85882F90E0BC0106
:1005C00080E00E945E186CE280E00E94D917898169
:1005D0009A81AB81BC810196A11DB11D89839A834B
:1005E000AB83BC838091FF049091000501979C012F
:1005F000990F440B550B89819A81AB81BC8182177D
:100600009307A407B50708F4A6CF8091FF04909143
:1006100000050197092E000CAA0BBB0B9E01235F5E
:100620003F4FAE01475F5F4FBC01CD010E945610A6
:100630006BE780E00E94D91768EE72E080E00E94CC
:10064000EA176AE380E00E94D91789859A85AB850D
:10065000BC85AC01BD0180E00E94FD176CE280E02A
:100660000E94D91762EF72E080E00E94EA176AE305
:1006700080E00E94D9178D85882F90E0BC0180E032
:100680000E945E1868EF72E080E00E94C9178091B6
:10069000100190911101BC0180E00E94C9171092D5
:1006A000FC041092FB0480E00E94CC1505C26CEFA4
:1006B00072E080E00E9484198823C1F080910C01CF
:1006C00090910D01BC0180E00E94C917809110013A
:1006D00090911101BC0180E00E94C9171092FC04A6
:1006E0001092FB0480E00E94CC15FFCF63E073E022
:1006F00080E00E9484198823C1F080910C019091C0
:100700000D01BC0180E00E94C917809110019091F9
:100710001101BC0180E00E94C9171092FC041092E4
:10072000FB0480E00E94CC1506C085E090E0909329
:10073000FC048093FB046BE073E080E00E9484196A
:10074000882309F44EC06DEF74E080E00E94231A04
:1007500020910805309109058091FD049091FE04D7
:1007600028173907BCF58091FD049091FE04909301
:10077000070580930605E0910C05F0910D05209189
:100780000A0530910B0540910805509109056091CB
:1007900006057091070580910001909101018F017C
:1007A0000E949E1B80910C0190910D01BC0180E084
:1007B0000E94C9178091100190911101BC0180E045
:1007C0000E94C9171092FC041092FB0480E00E9462
:1007D000CC1572C185E090E09093FC048093FB04FB
:1007E0006BC165E173E080E00E948419882309F4FD
:1007F0005AC06DEF74E080E00E94231A20910C052E
:1008000030910D058091FD049091FE042817390761
:100810000CF042C020910605309107058091FD043F
:100820009091FE0482179307BCF58091FD0490918E
:10083000FE049093090580930805E0910C05F09162
:100840000D0520910A0530910B0540910805509146
:10085000090560910605709107058091000190914E
:1008600001018F010E949E1B80910C0190910D014E
:10087000BC0180E00E94C917809110019091110184
:10088000BC0180E00E94C9171092FC041092FB0486
:1008900080E00E94CC15C6C085E090E09093FC04F7
:1008A0008093FB0409C16FE173E080E00E9484192A
:1008B000882309F44EC06DEF74E080E00E94231A93
:1008C00020910C0530910D058091FD049091FE045E
:1008D00082179307BCF58091FD049091FE049093DC
:1008E0000B0580930A05E0910C05F0910D05209110
:1008F0000A0530910B05409108055091090560915A
:1009000006057091070580910001909101018F010A
:100910000E949E1B80910C0190910D01BC0180E012
:100920000E94C9178091100190911101BC0180E0D3
:100930000E94C9171092FC041092FB0480E00E94F0
:10094000CC15BAC085E090E09093FC048093FB0442
:10095000B3C069E273E080E00E948419882309F43F
:100960005AC06DEF74E080E00E94231A20910A05BE
:1009700030910B058091FD049091FE0428173907F2
:100980000CF042C020910805309109058091FD04CA
:100990009091FE0482179307BCF58091FD0490911D
:1009A000FE0490930D0580930C05E0910C05F091E9
:1009B0000D0520910A0530910B05409108055091D5
:1009C00009056091060570910705809100019091DD
:1009D00001018F010E949E1B80910C0190910D01DD
:1009E000BC0180E00E94C917809110019091110113
:1009F000BC0180E00E94C9171092FC041092FB0415
:100A000080E00E94CC150EC085E090E09093FC043D
:100A10008093FB0451C085E090E09093FC048093A8
:100A2000FB044AC049C00E94201080910C019091A3
:100A30000D01BC0180E00E94C917809110019091C6
:100A40001101BC0180E00E94C91780E00E94CC1512
:100A50001092FC041092FB042FC080E00E94DA196F
:100A600086E090E09093FC048093FB0425C0809185
:100A70000E0190910F01BC0180E00E94C917809186
:100A8000100190911101BC0180E00E94C91780E023
:100A90000E94CC151092FC041092FB040DC085E05E
:100AA00090E09093FC048093FB048ECB0E94670F30
:100AB0000E946F0689CB000087CB08958F929F928A
:100AC000AF92BF92EF92FF920F931F93CF93DF935A
:100AD00000D000D01F92CDB7DEB77C0180913303E8
:100AE00090913403A0913503B091360389839A83A2
:100AF000AB83BC8348EB52E2BE016F5F7F4F83E064
:100B00000E94DA1448EB52E2BE016F5F7F4F83E030
:100B10000E94F1180E9451140E94FB1A8C010E943D
:100B200051149801AC0160E070E083E00E94A617C8
:100B30000E9451140E94FB1A8C0121E030E040EA2F
:100B400053E0BC0183E00E94A6170F5F1F4F89E7A7
:100B500095E00E94FB1A9C0149E755E0B80183E04B
:100B60000E94A61789E795E00E94FB1A080F191F3B
:100B700021E030E040EA53E0B80183E00E94A6178C
:100B8000B8016F5F7F4FC70124E0969587952A953E
:100B9000E1F78A30910510F0895C01C0805D8D839A
:100BA00021E030E0AE014B5F5F4F83E00E94A6176B
:100BB000B8016E5F7F4F8E2D8F7097012F70332796
:100BC0002A30310510F0895C01C0805D8D8321E001
:100BD00030E0AE014B5F5F4F83E00E94A61783E0D9
:100BE0000E9416190E9451074B015C0125EF820EED
:100BF00021E0921EA11CB11C0E94510768157905C5
:100C00008A059B05C9F783E00E94871588E993E070
:100C10000E94A81CB70180E090E00E94D61C89EBDE
:100C200093E00E94A81C0F900F900F900F900F90D0
:100C3000DF91CF911F910F91FF90EF90BF90AF90F8
:100C40009F908F90089581E0809310040895809183
:100C50000205813461F480910305833541F481E01C
:100C600090E020910405253521F080E002C080E06D
:100C700090E0E2E0F5E020E03191230F35E0E5314E
:100C8000F307D1F7222311F080E090E0089562E1AC
:100C900070E082E191E00E94DB1D42E162E171E0DF
:100CA00080E490E00C94B10D0E94FA0D892BE1F7DD
:100CB00042E162E075E080E490E00E94E50D0E9470
:100CC0002706892B49F40E94470642E162E075E05D
:100CD00080E490E00E94E50D1092100408950E94B7
:100CE000FA0D892B99F480911004882379F062E140
:100CF00070E082E095E00E94DB1D42E162E075E079
:100D000080E490E00E94B10D10921004089580914B
:100D10001004882379F062E170E082E095E00E949F
:100D2000DB1D42E162E075E080E490E00E94CE0DC0
:100D30001092100408951F920F920FB60F92112473
:100D40002F933F938F939F93AF93BF9320911B0457
:100D500030911C04809113049091140428173907D2
:100D600049F080911B0490911C04019690931C04FF
:100D700080931B0420911D0430911E048091150462
:100D8000909116042817390749F080911D0490911D
:100D90001E04019690931E0480931D0480911704F5
:100DA00090911804A0911904B0911A040196A11D04
:100DB000B11D8093170490931804A0931904B09365
:100DC0001A04BF91AF919F918F913F912F910F90F6
:100DD0000FBE0F901F90189589EF87BD82E084BDEC
:100DE00093E095BD789480936E0010921704109252
:100DF00018041092190410921A0408958230910573
:100E000050F4F894880F991FFC01E55EFB4F808138
:100E100091817894089580E090E008958230910562
:100E200098F4880F991FFC01E55EFB4F208131810A
:100E3000FC01ED5EFB4F81E090E040815181421763
:100E4000530721F080E0089580E090E008950F932B
:100E50001F93CF93DF93EC018B018091110490914C
:100E60001204892B41F40E94EC0681E090E09093FB
:100E7000120480931104C230D10570F48FB7F89436
:100E8000CC0FDD1FFE01ED5EFB4F11830083C55EBD
:100E9000DB4F198218828FBFDF91CF911F910F9185
:100EA00008958091110490911204892B41F40E94BD
:100EB000EC0681E090E09093120480931104F89482
:100EC00060911704709118048091190490911A048C
:100ED000789408958DE294E0089581E394E0089574
:100EE00085E394E0089589E394E008958DE394E028
:100EF000089544E150E060E00E960C94D01A0895F5
:100F00002F923F924F925F926F927F928F929F9219
:100F1000AF92BF92CF92DF92EF92FF920F931F9307
:100F2000CF93DF93CDB7DEB7E6970FB6F894DEBF69
:100F30000FBECDBF8C012A013B0119011AAA19AAC3
:100F40000E9451074B015C0182E00E945116892BDF
:100F5000F9F40E945107DC01CB0188199909AA090B
:100F6000BB09481659066A067B0608F4A7C00E940A
:100F700051076B017C0123E3C20ED11CE11CF11C63
:100F80000E9451076C157D058E059F05C9F7DCCFC2
:100F900048E050E0BE016D5D7F4F82E00E94AD16DB
:100FA000FFA08BA18BA78CA18CA78DA18DA78EA153
:100FB0008EA7E8A442E250E0BE016F5F7F4F82E05F
:100FC0000E94AD168981823009F076C08F2D90E0A5
:100FD000982F88278E0D911D8334910509F06CC0E0
:100FE0006D817E818F8198850E94EC27F10160835D
:100FF00071838283938346E050E0B801685F7F4F3E
:10100000CE014D960E94DA1A892B09F059C0F101E0
:1010100080819181A281B381F801408151816281F7
:10102000738184179507A607B70708F449C0448160
:10103000558166817781481759076A077B0708F44D
:101040003FC044E050E0BE016F5E7F4FC8010E9686
:101050000E94C41A8EECE82EF12C41E050E0BE0153
:10106000615D7F4F82E00E94AD16F1E0EF1AF1085A
:10107000A1F7C80182969CAB8BABF801B696FEAB8C
:10108000EDAB1801FAE22F0E311C08976C012E010E
:101090009BE2490E511C3801E2E16E0E711C5801B1
:1010A000F6E1AF0EB11C48012EE1820E911C82E0E8
:1010B0000E945116892B31F48AA924C18FEF22C1D5
:1010C00080E020C141E050E0BE01605D7F4F82E0E2
:1010D0000E94AD1688A9833309F4E0C0D0F48130B2
:1010E000B9F128F3833009F442C0863009F0F5C025
:1010F00041E050E0BE016F5C7F4F82E00E94AD1680
:1011000044E050E0B40182E00E94AD16E12CF12CE5
:1011100051C08A3309F48DC030F4853359F08633D9
:1011200009F45BC0DAC08B3309F49EC08F3F09F429
:10113000BECFD3C041E050E0BE016F5C7F4F82E084
:101140000E94AD1641E050E0BE016E5C7F4F0BC0C7
:1011500041E050E0BE016F5C7F4F82E00E94AD161F
:1011600044E050E0B30182E00E94AD16A0CF41E020
:1011700050E0BE016F5C7F4F82E00E94AD1644E0FC
:1011800050E0B50182E00E94AD16E12CF12C89A956
:1011900090E00497E816F9060CF089CF41E050E0A2
:1011A000BE01615D7F4F82E00E94AD168FEFE81AAD
:1011B000F80AEDCF89A990E00497E816F9060CF03B
:1011C00076CF41E050E0BE01615D7F4F82E00E943A
:1011D000AD169FEFE91AF90AEDCF41E050E0BE01EC
:1011E0006F5C7F4F82E00E94AD16F801828D811105
:1011F00009C0838D811106C0848D811103C0858D46
:10120000882319F04C145D0421F444E050E0B60149
:10121000AACF89A99FEF980F99AB882309F447CFEC
:1012200041E050E0BE01615D7F4F82E00E94AD165B
:10123000F0CF41E050E0BE016F5C7F4F82E00E9442
:10124000AD1644E050E06DA97EA982E00E94AD1683
:10125000F80166A177A180A591A50E94EC2766A35D
:1012600077A380A791A723CF41E050E0BE016F5C38
:101270007F4F82E00E94AD1644E050E0B10182E071
:101280000E94AD16F80162A573A584A595A50E94DC
:10129000EC2762A773A784A795A709CF41E050E088
:1012A000BE016F5C7F4F82E00E94AD1644E050E0CB
:1012B0006BA97CA982E00E94AD16F80162A173A11E
:1012C00084A195A10E94EC2762A373A384A395A394
:1012D00066A777A780AB91ABEACE41E050E0BE01B4
:1012E0006F5C7F4F82E00E94AD1689A99FEF980F37
:1012F00099AB882309F4DBCE41E050E0BE01615D8B
:101300007F4FF0CFE6960FB6F894DEBF0FBECDBF8D
:10131000DF91CF911F910F91FF90EF90DF90CF90D1
:10132000BF90AF909F908F907F906F905F904F9005
:101330003F902F9008950E960895429608954696F0
:1013400008954A9608954E96089580E3FB018083A0
:101350003296842F82958F7090E1899F40191124D5
:101360004A3014F4405D01C0495C4293482F81111A
:10137000F0CF0895AF92BF92DF92EF92FF920F935A
:101380001F93CF93DF93CDB7DEB7AA970FB6F8942C
:10139000DEBF0FBECDBF8C01D62EF42EE52E40E26F
:1013A00050E060E0CE0101960E94D01A8091370390
:1013B00090913803A0913903B0913A038DA39EA375
:1013C000AFA3B8A743E450E0BE016B5D7F4F82E05E
:1013D0000E94F118892B09F4FBC081E089838A837C
:1013E00086E08B831C82F8016481758186819781F8
:1013F0000E94EC2769A37AA38BA39CA344E050E04E
:10140000BE016F5D7F4FCE0105960E94C41AE9862A
:10141000FA8680E890E09AA789A742E050E0BE01F2
:10142000675D7F4FCE010B960E94C41A2CE130E01D
:10143000AE014F5F5F4F60E070E082E00E94A61750
:1014400040E250E060E0CE0101960E94D01A5801BF
:10145000F8E0AF0EB11C46E050E0B501CE010196B8
:101460000E94C41A20E130E0AE014F5F5F4F6CE193
:1014700070E082E00E94A61740E250E060E0CE01FA
:1014800001960E94D01A8CE2E82EF12C20E230E086
:10149000AE014F5F5F4FB70182E00E94A61780E266
:1014A000E80EF11CECEEEE16F10481F783E6898379
:1014B00092E89A8393E59B838C8385E38D8381E017
:1014C0008E83DF829DE3988797E099878A8746E03D
:1014D00050E0B501CE010B960E94C41A8CE0898BB6
:1014E00082EA93E00E94FB1A8A5F8A8B62EA73E0C9
:1014F000CE0143960E94F11AF8014385BE01675E52
:101500007F4FC8010E94A509F8014485BE01655EB0
:101510007F4FC8010E94A509F8014585BE01635EA1
:101520007F4FC8010E94A5092EE130E0AE014F5F58
:101530005F4F6CEE70E082E00E94A617F3E0DF12CE
:1015400027C082E3898384E08A83F80196859B83A0
:1015500097859C8390899D8391899E8396E39F8341
:101560008887828D8987838D8A87848D8B87858DF7
:101570008C872CE030E0AE014F5F5F4F6AE071E096
:1015800082E00E94A61766E171E080E090E004C06E
:101590006AE071E080E090E027E3298326E02A8377
:1015A00031E03B8333E03C832D832FE02E832AE31D
:1015B0002F832BE328872FEF298729E030E0AE0126
:1015C0004F5F5F4F82E00E94A61782E00E941619CB
:1015D000AA960FB6F894DEBF0FBECDBFDF91CF91B4
:1015E0001F910F91FF90EF90DF90BF90AF90089503
:1015F0002F923F924F925F926F927F928F929F9223
:10160000AF92BF92CF92DF92EF92FF920F931F9310
:10161000CF93DF9300D000D0CDB7DEB78C0120EDA3
:1016200037E040E050E061E070E080E090E00E9450
:101630000A1EA0E0B0E0F80184839583A683B783F7
:1016400080839183A283B38382E00E94871564E440
:1016500070E082E00E947F15882309F42EC10E9469
:1016600051074B015C01212C312C7801F2E4EF0E83
:10167000F11C48EE442E43E0542E612C712C52E0B4
:10168000C52ED7018C91833009F4FEC081111FC093
:10169000F80184819581A681B7810196A11DB11DB4
:1016A00084839583A683B7830E94510768197909BB
:1016B0008A099B09A30192010E94A527A90161E063
:1016C000C8010E94BA0981E0D7018C93C5C084305B
:1016D000F1F4F80184819581A681B7810196A11D5D
:1016E000B11D84839583A683B7830E94510768192F
:1016F00079098A099B09A30192010E94A527A901E2
:1017000063E0C8010E94BA09D701CC92A5C081301C
:1017100051F5F80142AD53AD64AD75AD9E012F5F3B
:101720003F4FC8010E948007D82EF2E08F138FC070
:1017300089819A81AB81BC81F80184839583A683DA
:10174000B7830E945107681979098A099B09A30187
:1017500092010E94A527A90163E0C8010E94BA096D
:10176000D701DC9279C0823009F076C0F80142AD31
:1017700053AD64AD75AD9E012F5F3F4FC8010E9410
:101780008007D82EF5E08F135CC0E3E0D701EC931F
:10179000F80182A193A1A4A1B5A1892B8A2B8B2B3F
:1017A00041F484E893E0A0E0B0E082A393A3A4A373
:1017B000B5A3F80186A197A1A0A5B1A5892B8A2B75
:1017C0008B2B61F482A193A1A4A1B5A1B695A79595
:1017D0009795879586A397A3A0A7B1A7F80182A59F
:1017E00093A5A4A5B5A5892B8A2B8B2BA9F482A13F
:1017F00093A1A4A1B5A1AC01BD0123E076956795A5
:10180000579547952A95D1F7841B950BA60BB70BD7
:1018100082A793A7A4A7B5A7F80186A197A1A0A521
:10182000B1A586A797A7A0ABB1AB82A593A5A4A5A8
:10183000B5A582AB93ABA4ABB5AB22242394312CDA
:101840000BC0F6E08F1303C0D7011C9205C0BFEF99
:10185000DB1202C0F7011082F1E02F16310409F407
:1018600010CF0E945107DC01CB0188199909AA0900
:10187000BB09F80126A937A940AD51AD2817390792
:101880004A075B0708F0FDCE82E00E948715F80149
:1018900084819581A681B7810196A11DB11D8483A4
:1018A0009583A683B7830E945107F801FE96608353
:1018B000718382839383C10102C080E090E00F9026
:1018C0000F900F900F90DF91CF911F910F91FF908C
:1018D000EF90DF90CF90BF90AF909F908F907F90D0
:1018E0006F905F904F903F902F900895CF92DF922E
:1018F000EF92FF920F931F93CF93DF93EC016B0155
:101900001AA21BA21CA21DA21EA21FA218A619A6E3
:101910001AA61BA61CA61DA62EAB3FAB48AF59AFFF
:10192000EAAEFBAE0CAF1DAF8C01085F1F4F46E067
:1019300050E060E0C8010E94D01ACE010E947907F1
:1019400046E050E0B601C8010E94C41AFE01EE5BF9
:10195000FF4F1082CE01DF91CF911F910F91FF9029
:10196000EF90DF90CF900C94F80AEF92FF920F93D4
:101970001F93780189019A01AB01BC018FE194E0CA
:101980000E94760C1F910F91FF90EF900895CF92D7
:10199000DF92EF92FF920F931F93CF93DF93EC01AF
:1019A0000E9451076B017C018E01025C1F4FF80100
:1019B00080819181A281B381A7019601281B390BF7
:1019C0004A0B5B0BCA01B901683E33E0730781051E
:1019D000910508F441C028EE33E040E050E00E9459
:1019E000A527C61AD70AE80AF90AF801C082D182E7
:1019F000E282F3828EA59FA5A8A9B9A969017A01FF
:101A0000CC0CDD1CEE1CFF1C8C159D05AE05BF0526
:101A100028F41EA61FA618AA19AA08C0821B930B99
:101A2000A40BB50B8EA79FA7A8ABB9AB8AA99BA99E
:101A3000ACA9BDA98C159D05AE05BF0528F41AAA51
:101A40001BAA1CAA1DAA08C0821B930BA40BB50BD2
:101A50008AAB9BABACABBDAB8EA59FA5A8A9B9A922
:101A6000892B8A2B8B2B69F4FE01EE5BFF4F808163
:101A7000833039F484E08083CE010E94F80A019615
:101A800002C080E090E04AA95BA96CA97DA9452B22
:101A9000462B472B81F4FE01EE5BFF4F2081233064
:101AA00011F0211108C01082CE010E947907CE01E9
:101AB0000E94F80A0396DF91CF911F910F91FF903A
:101AC000EF90DF90CF9008958FE194E00C94C70CD5
:101AD000FA9AF99A08951F920F920FB60F92112455
:101AE0002F933F934F935F936F937F938F939F9326
:101AF000AF93BF93EF93FF93E09158058091170543
:101B0000E81720F0FB98109214051AC08091150573
:101B10009091160592BD81BD81E08E0F809358058E
:101B2000F0E0E85EFA4F808180BD809115059091CC
:101B30001605019690931605809315050E94680D71
:101B4000FF91EF91BF91AF919F918F917F916F9195
:101B50005F914F913F912F910F900FBE0F901F906B
:101B60001895209114052111FCCF909316058093B0
:101B7000150581E0809314051092580540931705D0
:101B8000962FA8E1B5E0FB018E2F891B841718F46E
:101B900081918D93F9CF7894FB9A0895FB01861B70
:101BA000970B50E0DC01AE0FBF1F9F01261B370BC8
:101BB0002417350748F4F999FECFB2BDA1BD219194
:101BC00020BDFA9AF99AEECF0895209114052111BB
:101BD000FCCFFB01861B970B2E2F261B241748F4E6
:101BE0009C012E0F3F1F32BD21BDF89A20B52193D5
:101BF000F3CF08958091140590E0089560E070E0BF
:101C000080E090E00E942707219A29980895299A58
:101C10000895299808959093630480936204109224
:101C20006604109265041092640460E070E080E045
:101C300090E00E9427070C94090E80916204909115
:101C40006304892B09F452C080E090E00E940E07E3
:101C5000892B09F44BC080916404811134C0209118
:101C6000650430916604E0916204F0916304E20F30
:101C7000F31F80818032E9F03CF481111DC0109285
:101C800066041092650408958D3239F08E32A1F405
:101C90000E94070E6AEF70E004C00E94070E6EEE0D
:101CA00072E080E090E00E94270781E08093640466
:101CB000089568EE73E00BC02F5F3F4F30936604CA
:101CC0002093650408950E94090E64E670E080E0A8
:101CD00090E00E942707109264048091650490911F
:101CE000660401969093660480936504089585B117
:101CF0008695817090E008958031910504F527E084
:101D0000289FA001299F500D1124FA01E659FB4F8D
:101D100080818132A0F480E090E020E0FA01E80FB9
:101D2000F91FE659FB4F3081230F0196873091054B
:101D3000A9F781E090E0222321F080E0089580E07F
:101D400090E008956F927F928F929F92AF92BF9290
:101D5000CF92DF92EF92FF920F931F93CF93DF9377
:101D60000E94FA0D892BE1F70AED14E0C0E8D0E0FB
:101D7000BE0166517C4F47E0CE010E94E50DF8019F
:101D800011928F012796C03FD10591F74AE6E42EC4
:101D900044E0F42E8701C0E0D0E0D12CB12C7724B0
:101DA0007A94CE010E947C0E892B41F0F80180814B
:101DB000871520F4BC2E782EDD24D3942196095F5C
:101DC0001F4FC031D10569F7DD2009F46AC0B09218
:101DD000690470926804CB2DD0E08E010F5F1F4F15
:101DE000872C2FE0A22E37E0932E6801FFE0CF2250
:101DF000DD24C6010E947C0E892B61F4B092670439
:101E00008E0101501109609780E1A82EB12C97E056
:101E1000692E3AC09C9CF0019D9CF00D1124E6595E
:101E2000FB4F4081242F30E0882D90E001968F7188
:101E300099272817390711F7C0926904409368045D
:101E4000AA940F5F1F4FAA20C9F2842ECECFF701AC
:101E5000208130E0872D90E04F968F7199272817C9
:101E6000390731F5C0926704689CF001699CF00D58
:101E70001124E659FB4F708001501109F7E0EF0E75
:101E8000F11C0C171D07A1F0C801B5010E94912794
:101E90006C014C019924C4010E947C0E892BB9F677
:101EA00007C08FE080936904109268041092670461
:101EB000DF91CF911F910F91FF90EF90DF90CF9026
:101EC000BF90AF909F908F907F906F900895EF920A
:101ED000FF921F93CF93DF930E94FA0D892B39F560
:101EE000EAEDF4E0C0E0D0E081918823E1F017E072
:101EF0001C9FC0011D9F900D11249C0126593B4F32
:101F0000790167E070E0C9010E94DB1DC19FC0013B
:101F1000112447E0B70180589F4F0E94B10DC6526F
:101F2000DB4F188204C02196C031D105E9F6DF915C
:101F3000CF911F91FF90EF900895EF92FF921F9322
:101F4000CF93DF93EAEDF4E0C0E0D0E08191882305
:101F5000E1F017E01C9FC0011D9F900D11249C0112
:101F600026593B4F790167E070E0C9010E94DB1DF3
:101F7000C19FC001112447E0B70180589F4F0E94C4
:101F8000CE0DC652DB4F188204C02196C031D10558
:101F9000E9F6DF91CF911F91FF90EF900895EF92B6
:101FA000FF920F931F93CF93DF93E82EC0916904A4
:101FB000D0E02196CF70DD278091670490E00E94E9
:101FC0007C0EF82E809168048F5F813218F4809324
:101FD000680402C01092680487E08C9F80018D9F86
:101FE000100D112406591B4F80916804F80180835D
:101FF0000E947B11F8016183728383839483E5825D
:10200000C093690467E070E0C8010E94DB1DC652FE
:10201000DB4F81E088838091690490916704891384
:1020200008C0FF2031F090E001968F7099278093CF
:102030006704DF91CF911F910F91FF90EF9008956A
:10204000EAE6F4E0AAEDB4E08FEF4FEF5FEFBA01FC
:1020500091E08083858341835283638374839D935E
:10206000379624E0EA3DF207A1F78FE080936904F8
:10207000109267041092680408950F931F93CF93F2
:10208000DF9300916704C02F10E0D0E0CE010E94E2
:102090007C0E892B29F02196CF701F5F0C13F5CF92
:1020A000812FDF91CF911F910F910895AF92BF9231
:1020B000CF92DF92EF92FF920F931F93CF93DF9314
:1020C0006B017C018A0159010E943D1090E0A0E063
:1020D000B0E0C816D906EA06FB06F8F4809167045A
:1020E00090E0C80ED91E8FE0C822DD2487E08C9DC9
:1020F000F0018D9DF00D1124E659FB4F81819281F5
:10210000A381B481E80188839983AA83BB838581F5
:10211000F501808381E090E002C080E090E0DF91F3
:10212000CF911F910F91FF90EF90DF90CF90BF90D4
:10213000AF9008954F925F926F927F928F929F928D
:10214000AF92BF92CF92DF92EF92FF920F931F93C5
:10215000CF93DF93CDB7DEB7CA57D1090FB6F89446
:10216000DEBF0FBECDBFF82E80913B0390913C03A4
:10217000A0913D03B0913E03E9968CAF9DAFAEAF09
:10218000BFAFE99783E00E944A15882329F06BE7E7
:1021900070E083E00E947F1550E3E52E6E0101E4BC
:1021A000C00ED11C63E2462E512C612C712CFF20F5
:1021B00009F482C0F6010E2D11920A95E9F7F60195
:1021C00040825182628273820BE710E09E012B589D
:1021D0003F4F40E350E0B60183E00E945B16C0979A
:1021E00009F06AC00E9451074B015C01F9EE8F0EA5
:1021F000F3E09F1EA11CB11C0E94510768157905D0
:102200008A059B05C9F783E00E945116009709F4DF
:1022100051C08E0107581F4F9E012F583F4FAC01F0
:10222000BE016F5F7F4F83E00E94CE16C09709F01A
:1022300041C069A5862F90E0A0E0B0E0BA2FA92F99
:10224000982F88272AA5820F911DA11DB11DBA2F95
:10225000A92F982F88272BA5820F911DA11DB11D95
:10226000BA2FA92F982F88274CA550E060E070E086
:102270004058534169417C4B8A019B01080F191F4B
:102280002A1F3B1FC901B8010E944E130E94A111D1
:1022900089EA93E00E94A81C0E9451140E94A81C85
:1022A00086EB93E00E94A81C83E00E94871581E0E2
:1022B00090E007C0FA947BCF83E00E94871580E00E
:1022C00090E0C658DF4F0FB6F894DEBF0FBECDBF0B
:1022D000DF91CF911F910F91FF90EF90DF90CF9002
:1022E000BF90AF909F908F907F906F905F904F9036
:1022F00008950C947A1C0C948A1C60935905709371
:102300005A0580935B0590935C050C94961C9C0188
:1023100060E971E00E947D27892B79F0C901837003
:102320009927892B61F4C90164E670E00E947D273A
:102330009C0181E0232B21F402C081E0089580E01C
:1023400008952F923F924F925F926F927F928F9259
:102350009F92AF92BF92CF92DF92EF92FF920F9334
:102360001F93CF93DF93CDB7DEB767970FB6F8947F
:10237000DEBF0FBECDBF2CE0EFE3F3E0AE014F5F59
:102380005F4F1A01DA0101900D922A95E1F7DC0105
:102390002C91220F2056322F330F330F230F11961B
:1023A0003C9111973153230F2D8713962C9113973E
:1023B000022E000C330B205331096AE0629FA0010A
:1023C000639F500D11241496CC900C2C000CDD084A
:1023D000B0E3CB1AD108C40ED51E860101501109F5
:1023E000FC012681022E000C330B20533109E8EE4C
:1023F000F3E02E9FA0012F9F500D3E9F500D112402
:10240000DC0117962C911797022E000C330B2053EA
:10241000310974E6729F7001739FF00C1124E40E71
:10242000F51E18964C911897042E000C550B40532E
:102430005109649F9001659F300D1124E20EF31E37
:1024400019962C911997F701E20FF11D27FDFA95C6
:10245000AF0158507A011B962C911B97220F2056E2
:10246000322F330F330F230F1C963C911C973053A0
:10247000230F298B1E962C911E97220F2056322F48
:10248000330F330F230F1F963C911F973053230FA9
:102490002A8B51962C915197220F2056322F330FB1
:1024A000330F230F52968C918053280F2B8BCA0128
:1024B0000E948711882321F05D85523008F0860143
:1024C000C70160E971E00E947D27FC01DB0120E883
:1024D00039E540E650EF0E9402282B013C01CF0174
:1024E00064E670E00E947D27FC01DB0120E032EC15
:1024F00047E15CEB0E9402284B015C01DF01B695CD
:10250000A795B695A79520E83FE146E857E00E94D9
:1025100002286B017C01DF01A370BB2720E833E3B5
:1025200041EE51E00E9402286C8B7D8B8E8B9F8B3D
:10253000F1018E2F82199D85891720F48191080F52
:10254000111DF7CFA9892A2F30E0A0E1BEE00E943B
:10255000F3276D877E878F87988BBA892B2F30E082
:10256000ACE3B0E00E94F3272D853E854F85588966
:10257000260F371F481F591FDA01C9013B89830FF6
:10258000911DA11DB11D480E591E6A1E7B1E840C93
:10259000951CA61CB71CC80CD91CEA1CFB1C8C89FA
:1025A0009D89AE89BF89C80ED91EEA1EFB1ED801BF
:1025B00020E831E541E050E00E940228DC01CB0137
:1025C0008C0D9D1DAE1DBF1D8093590590935A051E
:1025D000A0935B05B0935C0567960FB6F894DEBFD9
:1025E0000FBECDBFDF91CF911F910F91FF90EF9064
:1025F000DF90CF90BF90AF909F908F907F906F9023
:102600005F904F903F902F900C94961CEF92FF920A
:102610000F931F93CF93DF93CDB7DEB768970FB6B5
:10262000F894DEBF0FBECDBF7B012CE0EFE3F3E0FB
:10263000DE011D9601900D922A95E1F78E010F5F44
:102640001F4F2CE0F80111922A95E9F70E9487119B
:102650008A83DE011D9680E0F701408151819D91C2
:10266000F80121918F0130E0290F311D42175307E6
:1026700040F0421B530BF701518340838F5F8C3036
:1026800059F768960FB6F894DEBF0FBECDBFDF9145
:10269000CF911F910F91FF90EF9008954F925F920D
:1026A0006F927F928F929F92AF92BF92CF92DF9262
:1026B000EF92FF92CF93DF9300D0CDB7DEB72B011F
:1026C0003C0181E090E0A0E0B0E020E8421629E57E
:1026D000520620E6620620EF720618F480E090E0D1
:1026E000DC0120E931E0829F5001839FB00C929F72
:1026F000B00C112480E3A81A88EFB80AC12CD12CA1
:102700007601C39420E8421629E5520620E66206C7
:1027100020EF720618F4C12CD12C7601A701960186
:1027200060E879E580E690EF0E946D277301620111
:10273000C61AD70AE80AF90A81E090E0A0E0B0E002
:10274000C11422ECD20627E1E2062CEBF20618F4C3
:1027500080E090E0DC0144E6489F9001499F300D05
:102760001124A20EB31E21E030E040E050E0C1147D
:1027700082ECD80687E1E8068CEBF80618F420E036
:1027800030E0A90160E072EC87E19CEB0E946D27CC
:10279000A7019601261B370B480B590BCA01B9013B
:1027A00020E83FE146E857E00E94A527220F331FAB
:1027B000220F331FA20EB31E20E833E341EE51E097
:1027C0000E94A5277501E20EF31E20E831E541E0E5
:1027D00050E00E94A5274B015C013A832983BE018A
:1027E0006F5F7F4FC7010E940613D82EC501B40149
:1027F00020E13EE040E050E00E94A52729013A0197
:102800004B015C016CEB73E084E291E00E94F11AF1
:102810006D2D70E06F5F7F4F42E084E291E00E9497
:10282000041B69817A816F5F7F4F42E087E291E00C
:102830000E94041B44E0B7018AE291E00E94041B5D
:1028400042E0B2018FE291E00E94041BC501B40195
:102850002CE330E040E050E00E94A52749015A01F6
:102860006B017C0142E0B40182E391E00E94041B11
:1028700042E0B60185E391E00E94041B84E291E00E
:102880000F900F90DF91CF91FF90EF90DF90CF905E
:10289000BF90AF909F908F907F906F905F904F9080
:1028A00008950F931F930E948A1C0091590510915F
:1028B0005A0520915B0530915C05600F711F821FE6
:1028C000931F1F910F910C944E13EF92FF920F9351
:1028D0001F93CF93DF938C01EB017A01009721F0D6
:1028E000209711F0452B29F480ED93E00E94A81C5D
:1028F000FFCF65EE73E00E94C01D892B29F480EDA7
:1029000093E00E94A81C44C06FEE73E0CE010E94C9
:10291000C01D892BA1F368EF73E0C7010E94C01DA1
:10292000892B69F34CE050E0B80181E695E00E9404
:10293000C41A10926C054CE050E0BE018DE695E0A3
:102940000E94C41A109278054CE050E0B70189E764
:1029500095E00E94C41A10928405F80180818E7F50
:1029600080938905818180938A05828180938B057C
:10297000888180938C05898180938D058A818093DD
:102980008E05DF91CF911F910F91FF90EF900895E9
:10299000FFCF0E94BD26882361F00E94C4268435A3
:1029A000C1F780E094E00E94A81C8FEF90E00C94A7
:1029B0005E050895EF92FF921F93CF93DF9300D0AF
:1029C00000D000D0CDB7DEB7182F7A0186E0EBE457
:1029D000F3E0DE01119601900D928A95E1F7FB017B
:1029E00081818F778C8382818D8383818E83812FF8
:1029F0000E941023BE016F5F7F4F812F0E94022330
:102A0000B701812F0E941E23B701812F0E94D92276
:102A100062E8812F0E94AA2261E0812F0E94BC22DD
:102A200081E026960FB6F894DEBF0FBECDBFDF91D2
:102A3000CF911F91FF90EF9008950E94D52291E0D1
:102A4000823209F090E0892F08950E94D5228823D0
:102A500041F08C3131F091E08A3109F490E0892F16
:102A6000089580E008950E94D52291E0843109F014
:102A700090E0892F08950E94D52291E0873109F0D6
:102A800090E0892F08950E94D52291E0811190E075
:102A9000892F08950C944315CF93C82F60E10E94AD
:102AA000BC226FEF8C2FCF910C94C7220F931F93F2
:102AB000CF93DF93C82FD62F8A010E944C156D2F1C
:102AC0008C2F0E94AA220115110511F0B8010AC02D
:102AD0006091EA047091EB046F5F7F4F7093EB0499
:102AE0006093EA048C2F0E94D92261E08C2F0E940F
:102AF000BC2281E0DF91CF911F910F910895AB012E
:102B000062E00C945615AB0161E00C9456150C94E0
:102B10004C15CF93C82F0E94D522833131F462E047
:102B20008C2F0E94BC2281E001C080E0CF910895EB
:102B30000F931F93CF93FB0190819F3F51F491819D
:102B40009F3F91F492819F3F79F493819F3F61F47D
:102B50001DC0911109C09181911106C092819111FE
:102B600003C09381992399F04115510579F08A01A9
:102B7000BF01C82F0E941023B8018C2F0E941E2372
:102B800064E08C2F0E94BC2291E001C090E0892F6C
:102B9000CF911F910F91089568E00C94BC22CF92C1
:102BA000DF92EF92FF920F931F93CF93C82F7B0179
:102BB0008A014130584010F000E018E08C2F0E944C
:102BC00099236C018C2F0E94D522873111F08C3112
:102BD00021F4C016D10690F302C000E010E0A80175
:102BE000B7018C2F0E943A2460E28C2F0E94BC22F5
:102BF0008C2F0E94CC2284FD0BC08C2F0E94D522EA
:102C00008111F6CF8C2F0E944C1580E090E005C01A
:102C100060E18C2F0E94C722C801CF911F910F91B4
:102C2000FF90EF90DF90CF900895CF92DF92EF92D8
:102C3000FF921F93CF93DF93182F6B017A010E94AD
:102C40008124EC01009789F4812F0E94D5228431E0
:102C5000E9F08823D9F0C1E0D0E08C3111F4C0E074
:102C6000D0E0D195C195D10911C0E816F9060CF450
:102C7000E7011C161D0654F420E0AE01B601812FB9
:102C80000E94FB2460E4812F0E94BC22CE01DF91D0
:102C9000CF911F91FF90EF90DF90CF9008950C940B
:102CA00081240C94812421E041E050E00E94FB2427
:102CB00081E090E00895CF92DF92EF92FF920F9320
:102CC0001F93CF93F9019081911109C091819111C6
:102CD00006C09281911103C093819923A1F101153E
:102CE000110589F17A014130584018F0E12C98E043
:102CF000F92EE114F10439F16B01C82FBF010E94D4
:102D00001023B8018C2F0E941E23A701B6018C2F1F
:102D10000E943A2460E28C2F0E94BC228C2F0E94D9
:102D2000CC2284FD0AC08C2F0E94CC2283FFF6CFD8
:102D300068E18C2F0E94C72206C060E18C2F0E94A0
:102D4000C722C70102C080E090E0CF911F910F9190
:102D5000FF90EF90DF90CF900895EF92FF921F9336
:102D6000CF93DF934115510589F0EA017B01182FBC
:102D70000E9481248C179D0708F4EC0120E0AE012D
:102D8000B701812F0E94FB24CE0102C080E090E0B9
:102D9000DF91CF911F91FF90EF9008958F929F92B6
:102DA000BF92CF92DF92EF92FF920F931F93CF9338
:102DB000DF93CDB7DEB728970FB6F894DEBF0FBE0E
:102DC000CDBF452B09F47EC049016B01B82E0E948E
:102DD000AE247C018B2D0E94AF228770833059F185
:102DE000843009F445C0823009F065C028E030E045
:102DF000AE014F5F5F4FB7018B2D0E944E2188E0DF
:102E0000E80EF11C8981F40180838A8181838B81A2
:102E100082838C8183838D8190E0982F88272E81F7
:102E2000820F911DF801918380830F8110E0102F94
:102E3000002788851AC026E030E0AE014F5F5F4F63
:102E4000B7018B2D0E944E21F6E0EF0EF11C898117
:102E5000F40180838A8181838B8182838C81838347
:102E60000D8110E0102F00278E81080F111D16C054
:102E700022E030E0AE014F5F5F4FB7018B2D0E9423
:102E80004E21F2E0EF0EF11C098110E0902F88270F
:102E90000A8110E002501109080F191F9801A601BC
:102EA000B7018B2D0E944E21B701600F711F8B2D32
:102EB0000E949D2402C000E010E060E48B2D0E947F
:102EC000BC2202C000E010E0C80128960FB6F894BA
:102ED000DEBF0FBECDBFDF91CF911F910F91FF904D
:102EE000EF90DF90CF90BF909F908F9008951F93A9
:102EF000CF93DF93182FEA014130584018F4209700
:102F0000F9F002C0C0E0D8E0AE01812F0E943A245F
:102F100060E2812F0E94BC22812F0E94CC2284FD7E
:102F200009C0812F0E94CC2283FFF6CF812F0E94FF
:102F30004C1506C060E1812F0E94C722CE0102C05D
:102F400080E090E0DF91CF911F910895CF92DF92C2
:102F5000EF92FF921F93CF93DF93182F7B016A01AB
:102F6000E9010E9499238C179D0720F4812F0E946C
:102F70009923EC019E01A601B701812F0E94EF2346
:102F8000CE01DF91CF911F91FF90EF90DF90CF9016
:102F900008951F93CF93DF93182FEB01CB010E946D
:102FA000FB1AAC01BE01812FDF91CF911F910C94D0
:102FB000CF15CF93DF931F92CDB7DEB7698341E082
:102FC00050E0BE016F5F7F4F0E94CF150F90DF91E1
:102FD000CF9108950F931F93CF93C82F8B0162E277
:102FE0000E94D917B8018C2F0E94C91762E28C2F5A
:102FF000CF911F910F910C94D917CF93C82FCB016C
:10300000BA010E944E13FC011286BC018C2FCF9195
:103010000C94EA17CF93DF93D82FC62F70E084E08B
:10302000759567958A95E1F76A3010F4605D01C087
:10303000695C8D2F0E94D9176C2F6F706A3010F069
:10304000695C01C0605D8D2FDF91CF910C94D91721
:10305000EF92FF920F931F93CF93C82F7B0162E2F1
:103060000E94D917F70161918F018C2F0E940A18D5
:10307000F6E0EF0EF11C6AE38C2F0E94D917F801DD
:1030800061918F018C2F0E940A180E151F0599F768
:1030900062E28C2FCF911F910F91FF90EF900C94D3
:1030A000D917CF93DF93C82FD62F672F0E940A1806
:1030B0006D2F8C2FDF91CF910C940A182F923F9295
:1030C0004F925F926F927F928F929F92AF92BF9238
:1030D000CF92DF92EF92FF920F931F93CF93DF93E4
:1030E000CDB7DEB762970FB6F894DEBF0FBECDBF87
:1030F000782E7B0177FF08C0F194E194F10881E01C
:1031000090E0998B888B02C0198A188AFE0131964B
:103110001F018E01055F1F4F6F0188248394912C3E
:10312000A12CB12CAAE0B0E09401A5010E940228D4
:103130006A8B472E582E692EB7010F2C000C880B76
:10314000990B2A89342D452D562D0E94C7279401AD
:10315000A5010E94C727F60121936F01E21AF10829
:1031600027FDF3948A88942CA52CB62C0E171F07E4
:10317000C9F688899989892B21F06DE2872D0E94F3
:10318000D91780E090E0F80162918F01611105C0CC
:10319000009719F42E163F0641F4605DF801608334
:1031A000872D0E94D91781E090E02016310659F74B
:1031B00062960FB6F894DEBF0FBECDBFDF91CF9100
:1031C0001F910F91FF90EF90DF90CF90BF90AF9045
:1031D0009F908F907F906F905F904F903F902F9037
:1031E00008950F931F93CF93FB019081911109C014
:1031F0009181911106C09281911103C0938199230D
:1032000079F04115510561F08A01BF01C82F0E9474
:103210001023B8018C2F0E941E2381E090E002C091
:1032200080E090E0CF911F910F910895CF93C82F28
:1032300060E20E94BC228C2F0E94CC2284FD0CC034
:103240008C2F0E94CC2283FFF6CF68E18C2F0E9446
:10325000C72280E090E006C060E18C2F0E94C72268
:1032600081E090E0CF910895EF92FF920F931F932A
:10327000CF93DF931F92CDB7DEB7182FE12CF12C3F
:10328000812F0E948124E816F90688F401E0970155
:1032900041E050E0BE016F5F7F4F812F0E94C62446
:1032A00089818A3031F08FEFE81AF80AE9CF80E09F
:1032B00001C081E00F90DF91CF911F910F91FF909E
:1032C000EF9008951F93CF93DF931F92CDB7DEB792
:1032D000182F0E948124892B89F021E041E050E0E1
:1032E000BE016F5F7F4F812F0E94FB24998181E097
:1032F0009D3029F09A3019F080E001C081E00F90F4
:10330000DF91CF911F9108958F929F92AF92BF92BC
:10331000CF92DF92EF92FF920F931F93CF93DF93A1
:103320001F92CDB7DEB7182F5B010E9481247C016C
:10333000C5010E94FB1AE816F90668F175016701DC
:10334000CA18DB084701F7018081882399F001E062
:10335000960141E050E0BE016F5F7F4F812F0E94D8
:10336000C6248FEFE81AF80AF40190818981981732
:1033700031F311C0C114D10461F041E050E0BE014D
:103380006F5F7F4F812F0E941516F1E0CF1AD10891
:10339000F1CF81E001C080E00F90DF91CF911F91CC
:1033A0000F91FF90EF90DF90CF90BF90AF909F90E4
:1033B0008F9008951F93CF93DF931F92CDB7DEB701
:1033C000182F812F0E948124892BC1F141E050E008
:1033D000BE016F5F7F4F812F0E94151689818D304E
:1033E000D1F4812F0E948124892B59F321E041E0FF
:1033F00050E0BE016F5F7F4F812F0E94FB248981C7
:103400008A30E1F441E050E0BE016F5F7F4F812FD1
:103410000E94151613C08A30A1F6812F0E948124C4
:10342000892B79F221E041E050E0BE016F5F7F4FD0
:10343000812F0E94FB2489818D3021F30F90DF9131
:10344000CF911F910895BF92CF92DF92EF92FF929A
:103450000F931F93CF93DF931F92CDB7DEB7C82E84
:103460008B01FB01118210820E948124892B09F4B7
:1034700051C0D12CEE24E394F12C2AE0B22E8C2DF5
:103480000E948124892BB9F121E041E050E0BE0186
:103490006F5F7F4F8C2D0E94FB2489818D3231F428
:1034A000D11038C0EE24EA94FE2C1CC090ED980F89
:1034B0009A3090F4F80140815181B49E9001B59EFC
:1034C000300D1124082E000C990BC097820F931F0A
:1034D00091838083D39406C08A3069F08D3059F08F
:1034E000803249F041E050E0BE016F5F7F4F8C2D8C
:1034F0000E941516C4CFF801208131812E9DC00194
:103500002F9D900D3E9D900D11249183808381E02D
:10351000D11001C080E00F90DF91CF911F910F91EA
:10352000FF90EF90DF90CF90BF9008959FB7F894F1
:10353000229B2A9A229A259A239A2D988CB58061EB
:103540008CBD8CB580648CBD1092EC049FBF089537
:103550008091EC0408959091EC04911109C09FB7FB
:10356000F8948CBD6DBD81E08093EC049FBF2A98D8
:1035700008958EBD00000DB407FEFDCF8EB50895F1
:103580002A9A1092EC040895FB01480F591F8417E2
:10359000950729F02191DC012D93CD01F8CF0895F5
:1035A000480F591F8417950721F0FC016193CF0143
:1035B000F9CF0895FB01480F591F8417950759F05B
:1035C000DC013D91CD012191321740F02317A8F77E
:1035D00081E090E0089580E090E008958FEF9FEF04
:1035E0000895FC01DB018D91BD01882311F08193C9
:1035F000F9CF10820895FC019F01281B390B4191DE
:103600004111FACFC90108959F92AF92BF92CF9214
:10361000DF92EF92FF920F931F93CF93DF9300D02F
:1036200000D01F92CDB7DEB7FC016B019E012F5F6A
:103630003F4F8E010A5F1F4FEE24E394F12C9AE076
:10364000992E9E9C50019F9CB00C1124C601B5017F
:103650000E947D27B7010E947D27D9016D939D01AE
:10366000C61AD10867FDD3947501A017B10749F7B1
:1036700060E070E084E090E050E0D8012E918D0190
:10368000211105C06115710511F4009741F48417EB
:1036900095072CF4205D219361E070E004C084174D
:1036A00095070CF43196019740F70F900F900F900B
:1036B0000F900F90DF91CF911F910F91FF90EF909E
:1036C000DF90CF90BF90AF909F90089588EC80934B
:1036D0007C0086E880937A00089580917A00829534
:1036E00086958695837091E08927817090E0089592
:1036F000EAE7F0E08081806480830895809178001B
:103700002091790030E0322F2227A901330F660B78
:10371000770B9A01AB01282BA5E6B0E00E940228A6
:1037200024E630E040E050E00E94C727DA01C901FA
:1037300081519140A109B109089508950F931F93F4
:10374000E091ED04F091EE04E930F10508F09BC042
:10375000E55CFF4F0C94E6278417950764F08AE038
:1037600094E00E940B0E86E00E94CF0F86E090E06E
:103770000E945E0525C0081719070CF48EC08AE068
:1037800094E00E940B0E88E00E94CF0F88E090E04A
:103790000E945E050BC0841795070CF708171907E0
:1037A0000CF47BC08AE094E00E940B0E86E090E06F
:1037B00065C084179507FCF28AE094E00E940B0E26
:1037C00083E090E05BC08617970764F08CE094E09C
:1037D0000E940B0E85E00E94CF0F85E090E00E94D2
:1037E0005E0512C0841795070CF057C080EA93E07D
:1037F0000E940B0E82E090E041C08617970794F379
:103800008CE094E00E940B0E85E090E037C08617B4
:1038100097070CF042C08AE094E00E940B0E84E00F
:1038200090E02CC02817390764F08CE094E00E94E7
:103830000B0E87E00E94CF0F87E090E00E945E05AC
:1038400011C0081719074CF580EA93E00E940B0E8F
:1038500081E090E013C0281739079CF38CE094E0D6
:103860000E940B0E88E090E009C028173907ACF4DD
:103870008AE094E00E940B0E87E090E09093EE04C3
:103880008093ED040AC01092EE041092ED0480EAD9
:1038900093E01F910F910C940B0E1F910F910895BF
:1038A0001092EE041092ED0408951F920F920FB63D
:1038B0000F9211248F939F93AF93BF938091EF0446
:1038C0009091F004A091F104B091F2040196A11D31
:1038D000B11D8093EF049093F004A093F104B09392
:1038E000F204BF91AF919F918F910F900FBE0F90F7
:1038F0001F90189583E294EF90938900809388003D
:10390000109280008CE080938100789482E0809314
:103910006F0008952FB7F8946091EF047091F00450
:103920008091F1049091F2042FBF08958FB7F8941D
:103930001092EF041092F0041092F1041092F2042D
:103940008FBF08950E944F25789408950C941327F3
:10395000CF93DF93EC018991882319F00E941327FC
:10396000FACFDF91CF910895CF93C82F90E024E054
:10397000959587952A95E1F78A3010F4805D01C00E
:10398000895C0E9413278C2F8F708A3010F0895C1D
:1039900001C0805DCF910C941327CF93C82F892F3E
:1039A0000E94B41C8C2FCF910C94B41C2F923F9288
:1039B0004F925F926F927F928F929F92AF92BF923F
:1039C000CF92DF92EF92FF920F931F93CF93DF93EB
:1039D000CDB7DEB763970FB6F894DEBF0FBECDBF8D
:1039E0006B017C0197FF0DC0F094E094D094C094DB
:1039F000C11CD11CE11CF11C81E090E09B8B8A8BE7
:103A000002C01B8A1A8AFE0131965F018E01055F92
:103A10001F4FF98BE88B66246394712C812C912CB9
:103A2000AAE0B0E09301A4010E9402281B012C012E
:103A3000C701B6019101A2010E94C7279301A40109
:103A40000E94C727E889F9892193F98BE88B822F97
:103A5000220F990BAA0BBB0BC81AD90AEA0AFB0A58
:103A6000310142010E171F07D9F68A899B89892BDC
:103A700019F08DE20E94132720E030E0F8018291D6
:103A80008F01811106C02115310519F4EA15FB05D6
:103A900029F4805D0E94132721E030E00A151B0500
:103AA00069F763960FB6F894DEBF0FBECDBFDF9106
:103AB000CF911F910F91FF90EF90DF90CF90BF902B
:103AC000AF909F908F907F906F905F904F903F90BE
:103AD0002F9008950C94E9260C941027FF920F93D1
:103AE0001F93CF93DF93EC01062FF72E18820E94CD
:103AF000E92610E08823D9F00E94BD268823B9F07A
:103B00000E94C426803210F089931F5FE02FFF2DA2
:103B1000482F50E02191222339F0022E000C330B64
:103B200042175307B9F702C08D3051F71882812F21
:103B3000DF91CF911F910F91FF9008950F931F93E5
:103B4000CF93DF938C01EC01699170E080E090E00D
:103B50000E94D61C0C5F1F4F8EE20E9413276991B2
:103B600070E080E090E00E94D61CC017D107A1F75A
:103B700089EB93E0DF91CF911F910F910C94A81CDA
:103B8000DC01FB019D91992341F08191891784F01B
:103B90009817C4F78FEF9FEF089581E090E02081A0
:103BA000211102C080E090E09195819591090895DE
:103BB00081E090E00895DC0190E020E0615071091F
:103BC000422F50E0FD01E40FF51F4617570720F480
:103BD0008081980F2F5FF4CF9195908308956115A0
:103BE00071058105910541F060933C0170933D01A1
:103BF00080933E0190933F01211531054105510508
:103C000041F0209338013093390140933A015093A9
:103C10003B0108954F925F926F927F928F929F9295
:103C2000AF92BF92CF92DF92EF92FF92CF93DF934A
:103C300000D000D0CDB7DEB72B013C0129833A83F9
:103C40004B835C83C0903801D0903901E0903A01F9
:103C5000F0903B01A701960144275527A9E6B0E95A
:103C60000E9402286701EE24FF244B015C018C0CAA
:103C70009D1CAE1CBF1C8092380190923901A0920D
:103C80003A01B0923B01C0903C01D0903D01E090E0
:103C90003E01F0903F01A701960144275527A0E57A
:103CA000B6E40E9402286701EE24FF24C60ED71E48
:103CB000E81EF91EC0923C01D0923D01E0923E0107
:103CC000F0923F01D40199278827BC01CD016C0DEA
:103CD0007D1D8E1D9F1D29813A814B815C81241998
:103CE0003509460957090E94A527CB01840D951D6A
:103CF0000F900F900F900F90DF91CF91FF90EF906A
:103D0000DF90CF90BF90AF909F908F907F906F90FB
:103D10005F904F900895CF93DB01FC0120812D32FD
:103D200021F401966FEF7FEF02C061E070E0119621
:103D30001C921E92FC01CAE020818D919C911197EA
:103D40002223C1F0C89FA001C99F500D11241196D4
:103D50005C934E93219180ED820F8A30B8F4022E4D
:103D6000000C330B20533109240F351F11963C935F
:103D70002E93E2CF869F9001879F300D969F300D46
:103D800011242D933C9381E090E002C080E090E00C
:103D9000CF91089580915D05833561F480915E0532
:103DA000853441F481E090E020915F05223521F0D7
:103DB00080E002C080E090E0EDE5F5E020E03191A8
:103DC000230F35E0E539F307D1F7222311F080E026
:103DD00090E00895CF93DF93CDB7DEB7E7970FB6A6
:103DE000F894DEBF0FBECDBF87E3E1E5F3E0DE016F
:103DF000119601900D928A95E1F767E370E0CE018C
:103E000001960E94DB1D47E3BE016F5F7F4F80E09C
:103E100090E00E94B10DE7960FB6F894DEBF0FBE9A
:103E2000CDBFDF91CF9108950E94FA0D892BE1F764
:103E300047E36DE575E080E090E00E94E50D0E94AB
:103E4000CA1E892B49F40E94EA1E47E36DE575E01E
:103E500080E090E00C94E50D0895AF92BF92DF9260
:103E6000EF92FF920F931F93CF93DF93EC01D62E27
:103E7000E72E8A018091F3048333F9F4A62EB72E3E
:103E80007E01E40EF51ECE15DF0509F45EC062E08A
:103E900080E50E94AB1A80EF0E94B91A8D2F0E9414
:103EA000B91A8C2F0E94B91A2196F50181915F01F0
:103EB0000E94B91A0E94C01AE6CF62E080E50E9413
:103EC000AB1AC115F4E0DF0718F4FC2EC4E00DC0F6
:103ED000C11528E0D20758F4FC2ED45033E0D69513
:103EE000C7953A95E1F7C07ECC6080E018C0CE015E
:103EF0009770892FFC2EC115E0E6DE0740F426E01E
:103F0000D695C7952A95E1F7C07EC46108C0D05602
:103F100096E0D695C7959A95E1F7C07ECC610E9450
:103F2000B91A8F2D0E94B91A8C2F0E94B91ACD2D63
:103F3000DE2D7E01E00EF11ECE15DF0521F0899108
:103F40000E94B91AF9CF0E94C01AC801DF91CF911F
:103F50001F910F91FF90EF90DF90BF90AF90089569
:103F6000CF93DF931F92CDB7DEB7698341E050E076
:103F7000BE016F5F7F4F0E942D1F0F90DF91CF9189
:103F800008958F929F92AF92BF92CF92DF92EF925D
:103F9000FF920F931F93CF93DF93EC018B016A0184
:103FA0007901FA01608181E090E00E94B01FF60182
:103FB000618182E090E00E94B01FF601628183E09F
:103FC00090E00E94B01FF601638184E090E00E94BF
:103FD000B01F0E9451074B015C01F2E08F0E911C53
:103FE000A11CB11C0E945107681579058A059B0523
:103FF000C9F7688189E090E00E94B01F69818AE07A
:1040000090E00E94B01F6A818BE090E00E94B01F98
:104010006B818CE090E00E94B01F6C818DE090E09D
:104020000E94B01F6D818EE090E00E94B01F0E9440
:1040300051074B015C0122E0820E911CA11CB11CB6
:104040000E945107681579058A059B05C9F7F70194
:10405000608185E090E00E94B01FF701618186E0F9
:1040600090E00E94B01FF701628187E090E00E941B
:10407000B01FF701638188E090E00E94B01F0E94AA
:1040800051076B017C01F2E0CF0ED11CE11CF11C49
:104090000E9451076C157D058E059F05C9F7F80133
:1040A00060818FE090E00E94B01FF801618180E1A3
:1040B00090E00E94B01FF801628181E190E00E94CF
:1040C000B01FF801638182E190E00E94B01F0E945E
:1040D00051076B017C01F2E0CF0ED11CE11CF11CF9
:1040E0000E9451076C157D058E059F05C9F765E592
:1040F0008AE190E00E94B01F65E58BE190E00E94AC
:10410000B01F80E0DF91CF911F910F91FF90EF9052
:10411000DF90CF90BF90AF909F908F900895AF9217
:10412000BF92DF92EF92FF920F931F93CF93DF9393
:10413000EC01D62EE72E8A018091F304833301F53A
:10414000A62EB72E7E01E40EF51ECE15DF0509F46E
:1041500060C062E080E50E94AB1A8FE00E94B91A4D
:104160008D2F0E94B91A8C2F0E94B91A219680E0D7
:104170000E94B91AF50181935F010E94C01AE5CF30
:1041800062E080E50E94AB1AC115F4E0DF0718F485
:10419000FC2EC0E00DC0C11528E0D20758F4FC2E5B
:1041A000D45033E0D695C7953A95E1F7C07EC86004
:1041B00080E018C0CE019770892FFC2EC115E0E673
:1041C000DE0740F426E0D695C7952A95E1F7C07E34
:1041D000C06108C0D05696E0D695C7959A95E1F78C
:1041E000C07EC8610E94B91A8F2D0E94B91A8C2F07
:1041F0000E94B91ACD2DDE2D7E01E00EF11ECE15E6
:10420000DF0529F080E00E94B91A8993F8CF0E9457
:10421000C01AC801DF91CF911F910F91FF90EF90CD
:10422000DF90BF90AF900895CF93DF931F92CDB7EB
:10423000DEB741E050E0BE016F5F7F4F0E948F20EC
:1042400089810F90DF91CF91089590E00496982F87
:104250008827860F971F0C9414219B0190E00496E9
:10426000982F8827642F820F931F0E94B01F0895F4
:10427000FB01BA0190E00496982F8827A9018E0FC0
:104280009F1F0C948F20FB01BA0190E00496982F99
:104290008827A9018E0F9F1F0C942D1FAF92BF92EC
:1042A000CF92DF92EF92FF920F931F93CF93DF9302
:1042B00000D0CDB7DEB77A836983BA01A901A9819D
:1042C000BA81B770E82FF0E0EE0FFF1FE857FC4F00
:1042D000E080F180CD018E0D9F1D9D01240F351FC3
:1042E0002130384080F06A015B0100E018E00A1BD1
:1042F0001B0BA8010E948F20A601401B510BB5018A
:10430000600F711FC7010F900F90DF91CF911F9128
:104310000F91FF90EF90DF90CF90BF90AF900C94F3
:104320008F20682F80E090E00C94B01F80E090E038
:104330000C941421CF92DF92EF92FF9283E380934B
:10434000F30460E880E090E00E94B01F0E945107F3
:104350006B017C0122E0C20ED11CE11CF11C0E9409
:1043600051076C157D058E059F05C9F780E10E94F8
:1043700091210E949621803121F01092F30480E077
:104380000FC082E10E9491210E9496218231A9F7FB
:1043900080E00E9491210E9496218111EECF81E060
:1043A000FF90EF90DF90CF900895CF92DF92EF9241
:1043B000FF9287E38093F30460E880E090E00E943E
:1043C000B01F0E9451076B017C0122E0C20ED11C7C
:1043D000E11CF11C0E9451076C157D058E059F059F
:1043E000C9F788E00E9491210E949621883021F02F
:1043F0001092F30480E00FC080E10E9491210E949E
:1044000096218031A9F780E00E9491210E94962197
:104410008111EECF81E0FF90EF90DF90CF90089573
:104420000E949A21811102C00C94D521089544E084
:1044300050E0BC0181E090E00C942D1F44E050E07E
:10444000BC0181E090E00C948F2044E050E0BC017E
:1044500085E090E00C942D1F44E050E0BC0185E025
:1044600090E00C948F2046E050E0BC0189E090E0A1
:104470000C942D1F46E050E0BC0189E090E00C94C4
:104480008F2044E050E0BC018FE090E00C942D1FA1
:1044900044E050E0BC018FE090E00C948F20682F46
:1044A00085E190E00C94B01F85E190E00C9414211C
:1044B000CF93C82F692F87E190E00E94B01F6C2F27
:1044C00088E190E0CF910C94B01FCF93DF9387E108
:1044D00090E00E941421C82FD0E0DC2FCC2788E187
:1044E00090E00E9414219E01280F311DC901DF9127
:1044F000CF91089544E050E0BC018AE290E00C9432
:104500002D1F44E050E0BC018AE290E00C948F2023
:10451000CF93C82F692F8EE290E00E94B01F6C2FBE
:104520008FE290E0CF910C94B01FCF93DF938EE297
:1045300090E00E941421C82FD0E0DC2FCC278FE21E
:1045400090E00E9414219E01280F311DC901DF91C6
:10455000CF910895462F60E070E00C942D2160E02B
:1045600070E00C942521462F61E070E00C942D2121
:1045700061E070E00C942521CF93C82F0E94B322F4
:104580008C2F0E94B8228111FBCFCF910895462F26
:1045900062E070E00C942D2162E070E00C94252123
:1045A000462F63E070E00C942D2163E070E00C94E2
:1045B0002521CF93DF93C82FD62F472F64E070E0DB
:1045C0000E942D214D2F65E070E08C2FDF91CF915F
:1045D0000C942D211F93CF93DF93182F64E070E08C
:1045E0000E942521C82FD0E065E070E0812F0E9455
:1045F0002521DC2FCC279E01282BC901DF91CF91EB
:104600001F910895AB0126E030E066E070E00C9465
:104610004321AB0126E030E066E070E00C943821E5
:10462000AB0124E030E06CE070E00C944321AB017E
:1046300024E030E06CE070E00C943821CF93DF93FD
:10464000C82FD62F472F60E170E00E942D214D2FFB
:1046500061E170E08C2FDF91CF910C942D211F939D
:10466000CF93DF93182F60E170E00E942521C82FBF
:10467000D0E061E170E0812F0E942521DC2FCC2762
:104680009E01282BC901DF91CF911F910895CF93EF
:10469000DF93C82FD62F472F62E170E00E942D21B3
:1046A0004D2F63E170E08C2FDF91CF910C942D2181
:1046B0001F93CF93DF93182F62E170E00E942521B2
:1046C000C82FD0E063E170E0812F0E942521DC2F0C
:1046D000CC279E01282BC901DF91CF911F9108950E
:1046E000CF93DF93C82FD62F472F60E270E00E9450
:1046F0002D214D2F61E270E08C2FDF91CF910C9432
:104700002D211F93CF93DF93182F60E270E00E945A
:104710002521C82FD0E061E270E0812F0E94252181
:10472000DC2FCC279E01282BC901DF91CF911F914F
:104730000895FF920F931F93CF93DF93F82EC0E05D
:10474000D0E08F2D0E9481238C01892B21F08F2DA9
:104750000E948123EC01C017D10799F7CE01DF91A8
:10476000CF911F910F91FF900895CF93DF93C82FA2
:10477000D62F472F62E270E00E942D214D2F63E279
:1047800070E08C2FDF91CF910C942D211F93CF934C
:10479000DF93182F62E270E00E942521C82FD0E03D
:1047A00063E270E0812F0E942521DC2FCC279E013F
:1047B000282BC901DF91CF911F910895CF93DF93EB
:1047C000C82FD62F472F64E270E00E942D214D2F75
:1047D00065E270E08C2FDF91CF910C942D219F9298
:1047E000AF92BF92CF92DF92EF92FF920F931F93FF
:1047F000CF93DF93982E7B016A0189010E94C62323
:10480000E80EF91E97013770E92DF0E0EE0FFF1F5B
:10481000E057FC4FA080B180C9018A0D9B1DA90102
:10482000400F511F4130584080F0C0E0D8E0C21B1B
:10483000D30BAE01B6010E942D1FA8014C1B5D0BCE
:10484000B6016C0F7D1FC50102C0A801B6010E9410
:104850002D1FB701600F711F892DDF91CF911F911F
:104860000F91FF90EF90DF90CF90BF90AF909F900F
:104870000C94DE239A01AB0160E070E00C94EF230E
:104880001F93CF93DF93182F64E270E00E942521DD
:10489000C82FD0E065E270E0812F0E942521DC2F37
:1048A000CC279E01282BC901DF91CF911F9108953C
:1048B000CF93DF93C82FD62F472F66E270E00E9478
:1048C0002D214D2F67E270E08C2FDF91CF910C945A
:1048D0002D211F93CF93DF93182F66E270E00E9483
:1048E0002521C82FD0E067E270E0812F0E942521AA
:1048F000DC2FCC279E01282BC901DF91CF911F917E
:104900000895FF920F931F93CF93DF93F82EC0E08B
:10491000D0E08F2D0E9469248C01892B21F08F2DEE
:104920000E946924EC01C017D10799F7CE01DF91ED
:10493000CF911F910F91FF900895CF93DF93C82FD0
:10494000D62F472F68E270E00E942D214D2F69E29B
:1049500070E08C2FDF91CF910C942D211F93CF937A
:10496000DF93182F68E270E00E942521C82FD0E065
:1049700069E270E0812F0E942521DC2FCC279E0167
:10498000282BC901DF91CF911F910895CF92DF921B
:10499000EF92FF920F931F93CF93DF93182F6B012A
:1049A0007A01E9010E94AE248C0F9D1FEC01D770A3
:1049B0009701A601BE01812F0E944E21011112C054
:1049C000BE016E0D7F1D812F0E949D2460E4812F0A
:1049D000DF91CF911F910F91FF90EF90DF90CF90DB
:1049E0000C94BC22DF91CF911F910F91FF90EF901B
:1049F000DF90CF9008950F93022F20E030E00E94C7
:104A0000C6240F910895CF93DF93C82FD62F472F39
:104A10006AE270E00E942D214D2F6BE270E08C2F36
:104A2000DF91CF910C942D211F93CF93DF93182FFB
:104A30006AE270E00E942521C82FD0E06BE270E0AE
:104A4000812F0E942521DC2FCC279E01282BC90114
:104A5000DF91CF911F9108951F920F920FB60F9281
:104A600011240E94070E82E00E94CF0F0E949D0F2A
:104A70000E948706FBCF9FB7F894A895E0E6F0E088
:104A80008081886180838FE480839FBF0895A8958B
:104A90000895809160008B7080936000FFCF10922A
:104AA000C00087E690E09093C5008093C400E1ECDD
:104AB000F0E088E1808386E08093C2008081806A94
:104AC000808308951F920F920FB60F9211242F9397
:104AD0003F938F939F93EF93FF938091FA048823E2
:104AE00009F4F0C08091C6009091F904992309F46B
:104AF000E3C090EE980F9F3518F08D3009F059C043
:104B00002091F6049091F70430E0291B31092150DF
:104B100031092F733327232B61F0E091F704F0E084
:104B2000EC56FA4F80839091F7049F5F9F739093A8
:104B3000F7042091F4049091F50430E0291B310929
:104B4000215031092F733327232B89F0E091F5048D
:104B5000F0E0EC52FA4F80839091F5049F5F9F73D1
:104B60009093F5049091C10090629093C1008D30B4
:104B700009F0C5C08091F4042091F50490E0821BF7
:104B8000910901978F739927892B69F0E091F504BA
:104B9000F0E0EC52FA4F8AE080838091F5048F5F59
:104BA0008F738093F5048091F8048F5F8093F804ED
:104BB000A6C0883011F08F37C1F58091F70420919D
:104BC000F60490E0821B91098F739927892B09F4D1
:104BD00096C0E091F704F0E0EC56FA4F80818091A6
:104BE000F70481508F738093F7048091F40420912F
:104BF000F50490E0821B910901978F739927892B07
:104C000009F47DC0E091F504F0E0EC52FA4F8FE733
:104C100080838091F5048F5F8F738093F50480917A
:104C2000C10080628093C1006AC0843009F067C00F
:104C30008091F7042091F60490E0821B91098F7314
:104C40009927892B31F1E091F704F0E0EC56FA4F07
:104C500080818D30F1F08091F6042091F70490E08E
:104C6000821B910901978F739927892B91F0E0910D
:104C7000F704F0E0EC56FA4F8DE080838091F70462
:104C80008F5F8F738093F7048091F8048F5F809318
:104C9000F8048091F6042091F70490E0821B9109BA
:104CA00001978F739927892B51F1E091F704F0E078
:104CB000EC56FA4F84E019C0833009F581E0809307
:104CC000F9041DC08091F6042091F70490E0821B46
:104CD000910901978F739927892B79F0E091F70457
:104CE000F0E08091C600EC56FA4F80838091F70483
:104CF0008F5F8F738093F70402C08091C600FF918D
:104D0000EF919F918F913F912F910F900FBE0F9038
:104D10001F9018951F920F920FB60F9211242F9388
:104D20008F939F93EF93FF938091F5042091F40468
:104D300090E0821B91098F739927892B79F0E0917C
:104D4000F404F0E0EC52FA4F80818093C600809129
:104D5000F4048F5F8F738093F40405C08091C100C9
:104D60008F7D8093C100FF91EF919F918F912F9143
:104D70000F900FBE0F901F9018958091F70490919F
:104D8000F604891B8F7308958091F7042091F6042F
:104D900090E0821B91098F739927892BC1F0E091D4
:104DA000F604F0E0EC56FA4F80819091F6049F5F94
:104DB0009F739093F6049091FA04992349F08D30F3
:104DC00039F49091F80491509093F804089580E09C
:104DD000089581E08093FA048091F7042091F6040D
:104DE00090E0821B91098F739927892BB1F0E09194
:104DF000F604F0E0EC56FA4F8081843071F41092A2
:104E0000F904E091F604F0E0EC56FA4F80818091CD
:104E1000F6048F5F8F738093F6048091F9040895F0
:104E20008091F80408950FB607FE0EC02091F40497
:104E30009091F50430E0291B3109215031092F737D
:104E40003327232B99F30DC02091F4049091F5049E
:104E500030E0291B3109215031092F733327232BCF
:104E600061F0E091F504F0E0EC52FA4F808380911C
:104E7000F5048F5F8F738093F5048091C100806289
:104E80008093C10008951F93CF93DF93EC0180E0DE
:104E900011E0180FFE01E80FF11D8081882321F039
:104EA0000E941327812FF4CFDF91CF911F91089596
:104EB0001F93CF93DF93EC0180E011E0180FFE0108
:104EC000E80FF11D8491882321F00E941327812F80
:104ED000F4CFDF91CF911F910895DB018F939F93C2
:104EE0000E940228BF91AF91A29F800D911DA39FA8
:104EF000900DB29F900D11240895AA1BBB1B51E188
:104F000007C0AA1FBB1FA617B70710F0A61BB70B39
:104F1000881F991F5A95A9F780959095BC01CD01DE
:104F2000089597FB072E16F4009407D077FD09D05B
:104F30000E947D2707FC05D03EF4909581959F4FF8
:104F40000895709561957F4F0895A1E21A2EAA1BCE
:104F5000BB1BFD010DC0AA1FBB1FEE1FFF1FA21729
:104F6000B307E407F50720F0A21BB30BE40BF50B26
:104F7000661F771F881F991F1A9469F760957095AF
:104F8000809590959B01AC01BD01CF010895052E40
:104F900097FB1EF400940E94DE2757FD07D00E9465
:104FA000A52707FC03D04EF40C94DE2750954095BE
:104FB000309521953F4F4F4F5F4F089590958095C5
:104FC000709561957F4F8F4F9F4F0895EE0FFF1F94
:104FD0000590F491E02D0994692796276927782791
:104FE000872778270895A29FB001B39FC001A39F90
:104FF000700D811D1124911DB29F700D811D112412
:10500000911D08950E94F327A59F900DB49F900DC8
:0E501000A49F800D911D11240895F894FFCFE8
:10501E00030B443100802500002D00040B443000AA
:10502E00802500002D0002060024F400010C61749E
:08503E006D6567613332380033
:105046004B0040014C015F0173018601D101F5015E
:10505600290241535500FF03FE030000010000C072
:10506600A801640030302F30302F303030302030FF
:10507600303A30303A303000E5559A15B53B121FBC
:10508600474554202F646576696365005055542062
:105096002F6465766963653F72657365743D00507C
:1050A6005554202F6465766963652F636F6E666954
:1050B600673F0044454C455445202F646576696337
:1050C600652F6C6F6700485454502F312E312032B3
:1050D6003030204F4B0A436F6E74656E742D5479D1
:1050E60070653A206170706C69636174696F6E2FC8
:1050F600766E642E6170692B6A736F6E0A436F6EEB
:105106006E656374696F6E3A20636C6F73650D0A22
:1051160000485454502F312E3120323030204F4B1E
:105126000A436F6E6E656374696F6E3A20636C6FC7
:1051360073650D0A00485454502F312E31203430F7
:1051460030205265736F75726365206E6F742066CA
:105156006F756E640A436F6E6E656374696F6E3A3F
:1051660020636C6F73650D0A000D0A006175676F29
:105176006F646D6100616E6472657700676F6F645E
:105186006D616E006C6F63616C2069703A20007609
:105196007064003A7B006D6F64656C006D616E75BE
:1051A60066616374757265720073657269616C5FBE
:1051B6006E756D626572006D616E7566616374759C
:1051C60072655F64617465006D61635F61646472DA
:1051D60065737300636F756E7472795F636F646570
:1051E600007D2C0074637269745F6869007477616E
:1051F600726E5F68690074637269745F6C6F0074C5
:105206007761726E5F6C6F0074656D706572617444
:10521600757265007374617465004E4F524D414C52
:10522600006C6F67003A5B0074696D657374616D3D
:1052360070006576656E74007D5D7D002274727502
:105246006522002266616C7365220074637269745C
:105256005F68693D00747761726E5F68693D0074CE
:10526600637269745F6C6F3D00747761726E5F6C18
:105276006F3D00EF010101FFFFFFFFC0A801011F05
:105286001C1F1E1F1E1F1F1E1F1E1F01005E00006B
:10529600005345520053616E64790000000000001F
:1052A60000446F75676C617300000000005F554E27
:1052B60041535349474E45440000000000444F55B2
:1052C60053414E555341000000600048007000787D
:1052D60000400048005000580D0A414C41524D3ADA
:1052E600200057495A6E65740074696D652073799C
:1052F6006E63656420005554430D0A0030302F302C
:10530600302F303030302030303A30303A303000C4
:1053160050726F6A656374206E6F74207369676E6E
:1053260065640D0A0066697273746E616D65006C62
:105336006173746E616D6500617375726974650081
:0E53460054657374696E670D0A002D002E0009
:00000001FF
