:100000000C9434000C9451000C9451000C94510049
:100010000C9451000C9451000C9451000C9451001C
:100020000C9451000C9451000C9451000C9451000C
:100030000C9451000C9451000C9451000C945100FC
:100040000C9451000C9451000C9476000C94A70071
:100050000C9451000C9451000C9451000C945100DC
:100060000C9451000C94510011241FBECFEFD8E026
:10007000DEBFCDBF11E0A0E0B1E0EAEFF2E002C0E8
:1000800005900D92AA34B107D9F721E0AAE4B1E0B6
:1000900001C01D92AE3CB207E1F70E9458010C94DA
:1000A00067010C940000CF93DF93EC0189918823C2
:1000B00019F00E946200FACFDF91CF91089503D02A
:1000C0007894089598C01092C00083E390E09093D4
:1000D000C5008093C400E1ECF0E088E1808386E015
:1000E0008093C2008081806A808308951F920F925E
:1000F0000FB60F9211242F938F939F93EF93FF933B
:1001000080914C0120914D0190E0821B9109019753
:100110008F739927892B79F0E0914D01F0E0809160
:10012000C600E25BFE4F808380914D018F5F8F732D
:1001300080934D0102C08091C600FF91EF919F9185
:100140008F912F910F900FBE0F901F9018951F92B7
:100150000F920FB60F9211242F938F939F93EF93CB
:10016000FF9380914B0120914A0190E0821B9109FD
:100170008F739927892B79F0E0914A01F0E0E257DB
:10018000FE4F80818093C60080914A018F5F8F73FC
:1001900080934A0105C08091C1008F7D8093C1008A
:1001A000FF91EF919F918F912F910F900FBE0F9024
:1001B0001F90189580914D0190914C01891B8F7370
:1001C000089580914D0120914C0190E0821B91098E
:1001D0008F739927892B69F0E0914C01F0E0E25B85
:1001E000FE4F808190914C019F5F9F7390934C01D3
:1001F000089580E008950FB607FE0EC020914A01D1
:1002000090914B0130E0291B3109215031092F73A6
:100210003327232B99F30DC020914A0190914B0174
:1002200030E0291B3109215031092F733327232B4B
:1002300061F0E0914B01F0E0E257FE4F8083809146
:100240004B018F5F8F7380934B018091C10080625F
:100250008093C10008951F93CF93DF93C82FD92FA8
:1002600090E011E0190FEC2FFD2FE90FF11D8081B7
:10027000882319F0C0DF912FF4CFDF91CF911F9128
:1002800008951F93CF93DF93C82FD92F90E011E0EB
:10029000190FEC2FFD2FE90FF11DC895802D882334
:1002A00019F0A9DF912FF3CFDF91CF911F9108951E
:1002B0000E945F0080E091E00E9453008BE191E09A
:1002C0000E9453008BE391E00E945300FFCFF8940B
:0202D000FFCF5E
:1002D200030B443100004B00002D00040B4430009E
:1002E200004B00002D0002060024F400010C617492
:0802F2006D65676133323800CD
:1002FA0048656C6C6F20576F726C642066726F6D04
:10030A002041746D65676133323800534552343881
:10031A0036202D2D20486F6D65776F726B204173E3
:10032A007369676E6D656E74203100416E64726523
:0A033A007720476F6F646D616E005D
:00000001FF
