:100000000C9434000C9451000C9451000C94510049
:100010000C9451000C9451000C9451000C9451001C
:100020000C9451000C9451000C9451000C94330327
:100030000C9451000C9451000C9410010C9451003C
:100040000C9451000C9451000C94A9070C94DA07FD
:100050000C9451000C9451000C9451000C945100DC
:100060000C9451000C94510011241FBECFEFD8E026
:10007000DEBFCDBF11E0A0E0B1E0EAE3F2E102C0F3
:1000800005900D92AA37B107D9F722E0AAE7B1E0AF
:1000900001C01D92A431B207E1F70E9438020C940E
:1000A00007090C940000CF93DF93CDB7DEB787E448
:1000B00090E029EFFC01208384E490E022E0FC0141
:1000C000208385E490E023E0FC0120838EE690E02D
:1000D00022E0FC01208381E0809382010000DF9117
:1000E000CF910895CF93DF9300D000D0CDB7DEB786
:1000F0009C838B838FE590E0FC01808188234CF406
:100100008FE590E02FE530E0F90120812F77FC01A9
:1001100020838B819C81880F991F86589E4FFC01FC
:10012000808191819A8389838FE590E02FE530E08B
:10013000F90120812068FC01208389819A810F9038
:100140000F900F900F90DF91CF910895CF93DF9391
:1001500000D000D0CDB7DEB79A8389837C836B83D0
:1001600080918201882311F40E9453008FE590E072
:10017000FC01808188234CF48FE590E02FE530E08E
:10018000F90120812F77FC01208389819A81880FD2
:10019000991F82589E4F2B813C81FC013183208323
:1001A00089819A81880F991F86589E4FFC01118280
:1001B00010828FE590E02FE530E0F9012081206882
:1001C000FC01208300000F900F900F900F90DF91A3
:1001D000CF910895CF93DF9300D0CDB7DEB79A8348
:1001E000898389819A81880F991F86589E4FFC01C7
:1001F0002081318189819A81880F991F82589E4F71
:10020000FC01808191812817390719F481E090E081
:1002100002C080E090E00F900F90DF91CF910895A1
:100220001F920F9200905F000F9211242F933F9323
:100230008F939F93CF93DF93CDB7DEB720917A0151
:1002400030917B0180917E0190917F0128173907C1
:1002500048F480917A0190917B01019690937B0103
:1002600080937A0120917C0130917D018091800101
:10027000909181012817390748F480917C01909171
:100280007D01019690937D0180937C010000DF91B8
:10029000CF919F918F913F912F910F9000925F008E
:1002A0000F901F901895CF93DF9300D0CDB7DEB796
:1002B0009A83898389819A819093840180938301B1
:1002C000109286011092850181E08093870160E0A1
:1002D00070E080E090E00E94A6000E9466030000AB
:1002E0000F900F90DF91CF910895CF93DF93CDB70B
:1002F000DEB78091830190918401892B09F4B4C009
:1003000080E090E00E94EA00019709F0ADC0809182
:100310008701882F90E08130910521F0029709F440
:100320007BC0A2C02091830130918401809185011E
:1003300090918601820F931FFC018081803209F425
:1003400047C0209183013091840180918501909173
:100350008601820F931FFC0180818D32A9F46DE22A
:1003600070E080E090E00E94A60002C00E9464035A
:1003700080E090E00E94EA00892BC1F30E946603AE
:1003800082E0809387016FC02091830130918401C6
:100390008091850190918601820F931FFC018081DD
:1003A0008E3209F060C06FE070E080E090E00E9463
:1003B000A60002C00E94640380E090E00E94EA0070
:1003C000892BC1F30E94660382E0809387014BC0B2
:1003D0002091830130918401809185019091860163
:1003E0000196820F931FFC018081882351F0809138
:1003F00085019091860101969093860180938501F5
:1004000004C010928601109285016CE370E080E0D8
:1004100090E00E94A60027C02091830130918401C2
:1004200080918501909186010196820F931FFC01B6
:100430008081882351F080918501909186010196F9
:10044000909386018093850104C0109286011092DA
:10045000850165E070E080E090E00E94A60081E008
:100460008093870101C000000000DF91CF910895C3
:10047000CF93DF93CDB7DEB728970FB6F894DEBFE2
:100480000FBECDBF0E94CC060E9461030E946D0387
:1004900084E191E00E9453018CE191E00E949C0371
:1004A00080E391E00E94D20619821A821B821C828C
:1004B0006CE271E081E090E00E94A6000BC08981AF
:1004C0009A81AB81BC810196A11DB11D89839A835C
:1004D000AB83BC8381E090E00E94EA00892B79F332
:1004E0001D821E821F8218866CE271E081E090E01E
:1004F0000E94A6000DC00E9475018D819E81AF8172
:10050000B8850196A11DB11D8D839E83AF83B887E9
:1005100081E090E00E94EA00892B69F389819A8149
:10052000AB81BC81BC01CD010E94000785E591E053
:100530000E94D2068D819E81AF81B885BC01CD011C
:100540000E94000787E591E00E94D20662E370E016
:1005500081E090E00E94A60081E090E00E94EA0025
:10056000892BA1F70E944C060E94D2068DE00E94C2
:10057000D006ECCFCF93DF93CDB7DEB788E890E01D
:1005800028E03DE3FC013183208380E890E0FC011A
:10059000108281E890E02DE0FC0120838FE690E05E
:1005A00022E0FC0120830000DF91CF910895CF93DA
:1005B000DF9300D0CDB7DEB78FE590E0FC018081FE
:1005C00088234CF48FE590E02FE530E0F90120819D
:1005D0002F77FC0120838091880190918901A0915F
:1005E0008A01B0918B019A8389838FE590E02FE592
:1005F00030E0F90120812068FC01208389819A8103
:10060000092E000CAA0BBB0BBC01CD010F900F9063
:10061000DF91CF910895CF93DF93CDB7DEB78FE50C
:1006200090E0FC01808188234CF48FE590E02FE579
:1006300030E0F90120812F77FC012083109288019E
:100640001092890110928A0110928B018FE590E03F
:100650002FE530E0F90120812068FC0120830000B3
:10066000DF91CF9108951F920F9200905F000F923B
:1006700011248F939F93AF93BF93CF93DF93CDB705
:10068000DEB78091880190918901A0918A01B09193
:100690008B010196A11DB11D809388019093890162
:1006A000A0938A01B0938B010000DF91CF91BF919D
:1006B000AF919F918F910F9000925F000F901F90CC
:1006C0001895219A29980895299A089529980895A6
:1006D00085B18695817090E008950C94BA020F93CD
:1006E0001F930E94D70200919001109191012091D7
:1006F000920130919301600F711F821F931F1F9110
:100700000F9108959C0160E971E00E949808892B7F
:1007100079F0C90183709927892B61F4C90164E6D6
:1007200070E00E9498089C0181E0232B21F402C014
:1007300081E0089580E008952F923F924F925F925A
:100740006F927F928F929F92AF92BF92CF92DF92E1
:10075000EF92FF920F931F93CF93DF93CDB7DEB746
:1007600067970FB6F894DEBF0FBECDBF2CE0EAE569
:10077000F1E0AE014F5F5F4F1A01DA0101900D9277
:100780002A95E1F7DC012C91220F2056322F330FEE
:10079000330F230F11963C9111973153230F2D875F
:1007A00013962C911397022E000C330B2053310912
:1007B0006AE0629FA001639F500D11241496CC90B3
:1007C0000C2C000CDD08B0E3CB1AD108C40ED51EEA
:1007D000860101501109FC012681022E000C330B09
:1007E00020533109E8EEF3E02E9FA0012F9F500D1A
:1007F0003E9F500D1124DC0117962C911797022E65
:10080000000C330B2053310974E6729F7001739F03
:10081000F00C1124E40EF51E18964C911897042E36
:10082000000C550B40535109649F9001659F300D9A
:100830001124E20EF31E19962C911997F701E20F7D
:10084000F11D27FDFA95AF0158507A011B962C91A6
:100850001B97220F2056322F330F330F230F1C9676
:100860003C911C973053230F298B1E962C911E9779
:10087000220F2056322F330F330F230F1F963C9138
:100880001F973053230F2A8B51962C915197220F8B
:100890002056322F330F330F230F52968C918053F3
:1008A000280F2B8BCA010E948203882321F05D85CB
:1008B000523008F08601C70160E971E00E94980893
:1008C000FC01DB0120E839E540E650EF0E94FC081E
:1008D0002B013C01CF0164E670E00E949808FC0106
:1008E000DB0120E032EC47E15CEB0E94FC084B01AD
:1008F0005C01DF01B695A795B695A79520E83FE185
:1009000046E857E00E94FC086B017C01DF01A37000
:10091000BB2720E833E341EE51E00E94FC086C8BDA
:100920007D8B8E8B9F8BF1018E2F82199D85891770
:1009300020F48191080F111DF7CFA9892A2F30E0EB
:10094000A0E1BEE00E94ED086D877E878F87988BBF
:10095000BA892B2F30E0ACE3B0E00E94ED082D8582
:100960003E854F855889260F371F481F591FDA01CA
:10097000C9013B89830F911DA11DB11D480E591E50
:100980006A1E7B1E840C951CA61CB71CC80CD91CA7
:10099000EA1CFB1C8C899D89AE89BF89C80ED91EB3
:1009A000EA1EFB1ED80120E831E541E050E00E943C
:1009B000FC08DC01CB018C0D9D1DAE1DBF1D80937D
:1009C000900190939101A0939201B0939301679647
:1009D0000FB6F894DEBF0FBECDBFDF91CF911F9150
:1009E0000F91FF90EF90DF90CF90BF90AF909F90CE
:1009F0008F907F906F905F904F903F902F900C94CE
:100A00000B03EF92FF920F931F93CF93DF93CDB71A
:100A1000DEB768970FB6F894DEBF0FBECDBF7B017F
:100A20002CE0EAE5F1E0DE011D9601900D922A9599
:100A3000E1F78E010F5F1F4F2CE0F80111922A950C
:100A4000E9F70E9482038A83DE011D9680E0F701A8
:100A5000408151819D91F80121918F0130E0290F52
:100A6000311D4217530740F0421B530BF7015183CE
:100A700040838F5F8C3059F768960FB6F894DEBFCD
:100A80000FBECDBFDF91CF911F910F91FF90EF90DF
:100A900008954F925F926F927F928F929F92AF9242
:100AA000BF92CF92DF92EF92FF92CF93DF9300D06D
:100AB000CDB7DEB72B013C0181E090E0A0E0B0E0D3
:100AC00020E8421629E5520620E6620620EF72066B
:100AD00018F480E090E0DC0120E931E0829F5001D1
:100AE000839FB00C929FB00C112480E3A81A88EF6A
:100AF000B80AC12CD12C7601C39420E8421629E50E
:100B0000520620E6620620EF720618F4C12CD12CA2
:100B10007601A701960160E879E580E690EF0E94F2
:100B2000880873016201C61AD70AE80AF90A81E047
:100B300090E0A0E0B0E0C11422ECD20627E1E2068A
:100B40002CEBF20618F480E090E0DC0144E6489FCC
:100B50009001499F300D1124A20EB31E21E030E018
:100B600040E050E0C11482ECD80687E1E8068CEB47
:100B7000F80618F420E030E0A90160E072EC87E1AB
:100B80009CEB0E948808A7019601261B370B480B97
:100B9000590BCA01B90120E83FE146E857E00E943D
:100BA000AC08220F331F220F331FA20EB31E20E802
:100BB00033E341EE51E00E94AC087501E20EF31EF2
:100BC00020E831E541E050E00E94AC084B015C01B7
:100BD0003A832983BE016F5F7F4FC7010E940105E1
:100BE000D82EC501B40120E13EE040E050E00E9473
:100BF000AC0829013A014B015C0166E671E080E036
:100C000091E00E9460066D2D70E06F5F7F4F42E0C3
:100C100080E091E00E946A0669817A816F5F7F4F70
:100C200042E083E091E00E946A0644E0B70186E07A
:100C300091E00E946A0642E0B2018BE091E00E94DE
:100C40006A06C501B4012CE330E040E050E00E94A8
:100C5000AC0849015A016B017C0142E0B4018EE00D
:100C600091E00E946A0642E0B60181E191E00E94B3
:100C70006A0680E091E00F900F90DF91CF91FF9096
:100C8000EF90DF90CF90BF90AF909F908F907F902C
:100C90006F905F904F9008950F931F930E94D7021B
:100CA0000091900110919101209192013091930156
:100CB000600F711F821F931F1F910F910C944905A4
:100CC000FC01DB018D91BD01882311F08193F9CFE7
:100CD000108208959F92AF92BF92CF92DF92EF92CF
:100CE000FF920F931F93CF93DF9300D000D01F92FA
:100CF000CDB7DEB7FC016B019E012F5F3F4F8E0128
:100D00000A5F1F4FEE24E394F12C9AE0992E9E9CEB
:100D100050019F9CB00C1124C601B5010E94980897
:100D2000B7010E949808D9016D939D01C61AD10898
:100D300067FDD3947501A017B10749F760E070E033
:100D400084E090E050E0D8012E918D01211105C082
:100D50006115710511F4009741F4841795072CF47F
:100D6000205D219361E070E004C0841795070CF4C6
:100D70003196019740F70F900F900F900F900F90C2
:100D8000DF91CF911F910F91FF90EF90DF90CF9067
:100D9000BF90AF909F9008950E9496077894089511
:100DA0000C942E08CF93DF93EC018991882319F0DE
:100DB0000E942E08FACFDF91CF910895CF93C82FCC
:100DC00090E024E0959587952A95E1F78A3010F414
:100DD000805D01C0895C0E942E088C2F8F708A3044
:100DE00010F0895C01C0805DCF910C942E08CF93E8
:100DF000C82F892F0E94DE068C2FCF910C94DE061F
:100E00002F923F924F925F926F927F928F929F921A
:100E1000AF92BF92CF92DF92EF92FF920F931F9308
:100E2000CF93DF93CDB7DEB763970FB6F894DEBFED
:100E30000FBECDBF6B017C0197FF0DC0F094E09415
:100E4000D094C094C11CD11CE11CF11C81E090E045
:100E50009B8B8A8B02C01B8A1A8AFE0131965F0126
:100E60008E01055F1F4FF98BE88B66246394712C0C
:100E7000812C912CAAE0B0E09301A4010E94FC080F
:100E80001B012C01C701B6019101A2010E94CE08ED
:100E90009301A4010E94CE08E889F9892193F98B76
:100EA000E88B822F220F990BAA0BBB0BC81AD90A09
:100EB000EA0AFB0A310142010E171F07D9F68A8997
:100EC0009B89892B11F08DE201C080E20E942E08DF
:100ED00020E030E0F80182918F01811106C02115D8
:100EE000310519F4EA15FB0529F4805D0E942E08EE
:100EF00021E030E00A151B0569F763960FB6F894F8
:100F0000DEBF0FBECDBFDF91CF911F910F91FF903C
:100F1000EF90DF90CF90BF90AF909F908F907F9099
:100F20006F905F904F903F902F9008951092C00067
:100F300087E690E09093C5008093C400E1ECF0E078
:100F400088E1808386E08093C2008081806A80830C
:100F500008951F920F920FB60F9211242F938F9323
:100F60009F93EF93FF9380918E0120918F0190E0EA
:100F7000821B910901978F739927892B79F0E09152
:100F80008F01F0E08091C600EC56FE4F8083809187
:100F90008F018F5F8F7380938F0102C08091C60095
:100FA000FF91EF919F918F912F910F900FBE0F9016
:100FB0001F9018951F920F920FB60F9211242F9326
:100FC0008F939F93EF93FF9380918D0120918C01DC
:100FD00090E0821B91098F739927892B79F0E0911A
:100FE0008C01F0E0EC52FE4F80818093C60080912E
:100FF0008C018F5F8F7380938C0105C08091C1003D
:101000008F7D8093C100FF91EF919F918F912F91E0
:101010000F900FBE0F901F90189580918F019091A7
:101020008E01891B8F73089580918F0120918E010D
:1010300090E0821B91098F739927892B69F0E091C9
:101040008E01F0E0EC56FE4F808190918E019F5F03
:101050009F7390938E01089580E008950FB607FE68
:101060000EC020918C0190918D0130E0291B310937
:10107000215031092F733327232B99F30DC0209171
:101080008C0190918D0130E0291B310921503109EB
:101090002F733327232B61F0E0918D01F0E0EC52A8
:1010A000FE4F808380918D018F5F8F7380938D01C0
:1010B0008091C10080628093C10008951F93CF93F7
:1010C000DF93EC0180E011E0180FFE01E80FF11D45
:1010D0008081882321F00E942E08812FF4CFDF9198
:1010E000CF911F9108951F93CF93DF93EC0180E080
:1010F00011E0180FFE01E80FF11D8491882321F003
:101100000E942E08812FF4CFDF91CF911F91089577
:10111000DB018F939F930E94FC08BF91AF91A29F28
:10112000800D911DA39F900DB29F900D11240895E5
:10113000AA1BBB1B51E107C0AA1FBB1FA617B707FD
:1011400010F0A61BB70B881F991F5A95A9F7809519
:101150009095BC01CD010895A1E21A2EAA1BBB1BDC
:10116000FD010DC0AA1FBB1FEE1FFF1FA217B30773
:10117000E407F50720F0A21BB30BE40BF50B661F89
:10118000771F881F991F1A9469F76095709580954D
:1011900090959B01AC01BD01CF010895052E97FBF1
:1011A0001EF400940E94E50857FD07D00E94AC0889
:1011B00007FC03D04EF40C94E5085095409530950B
:1011C00021953F4F4F4F5F4F0895909580957095B3
:1011D00061957F4F8F4F9F4F0895A29FB001B39F9E
:1011E000C001A39F700D811D1124911DB29F700D30
:1011F000811D1124911D08950E94ED08A59F900D59
:10120000B49F900DA49F800D911D11240895F89412
:02121000FFCF0E
:10121200030B443100802500002D00040B443000F4
:10122200802500002D0002060024F400010C6174E8
:081232006D656761333238007D
:10123A0030302F30302F303030302030303A3030AC
:10124A003A3030002D2D2D202D2E2D0030312F300B
:10125A00312F323031392030303A30303A303000A4
:10126A00534552203438362050726F6A65637420B1
:10127A0031202D20416E6472657720476F6F646D4F
:10128A00616E0A0D0020000D0A001F1C1F1E1F1E82
:10129A001F1F1E1F1E1F30302F30302F30303030AE
:0A12AA002030303A30303A30300086
:00000001FF
