:100000000C9434000C9451000C9451000C94510049
:100010000C9451000C9451000C9451000C9451001C
:100020000C9451000C9451000C9451000C94A601B6
:100030000C9451000C9451000C94AC000C945100A1
:100040000C9451000C9451000C9413060C9444062B
:100050000C9451000C9451000C9451000C945100DC
:100060000C9451000C94510011241FBECFEFD8E026
:10007000DEBFCDBF11E0A0E0B1E0E2EDFFE002C0E5
:1000800005900D92AA37B107D9F722E0AAE7B1E0AF
:1000900001C01D92A431B207E1F70E94F2060C9450
:1000A000D3070C94000089EF87BD82E084BD93E004
:1000B00095BD80936E0081E080937A0108950FB61C
:1000C00007FE03C02FB72F772FBFFC01EE0FFF1FD6
:1000D000E158FE4F208131819FB790689FBFC901D1
:1000E00008950F931F93CF93DF93EC018B018091C1
:1000F0007A01811102C00E9453000FB607FE03C0AF
:100100008FB78F778FBFCE01880F991FFC01E558FD
:10011000FE4F11830083FC01E158FE4F11821082D3
:100120008FB780688FBFDF91CF911F910F91089596
:10013000880F991FDC01A158BE4FFC01E558FE4F06
:1001400081E090E04D915C9120813181421753070D
:1001500011F080E090E008951F920F920FB60F9279
:1001600011242F933F938F939F9380917F019091C0
:10017000800120917B0130917C018217930728F444
:1001800001969093800180937F01809181019091ED
:10019000820120917D0130917E018217930728F41E
:1001A000019690938201809381019F918F913F915D
:1001B0002F910F900FBE0F901F901895909387016D
:1001C00080938601109285011092840181E08093D2
:1001D000830160E070E080E090E00E9471000C9488
:1001E000D0018091860190918701892B09F47AC012
:1001F00080E090E00E949800019709F073C0809120
:100200008301813021F0823009F44CC0089520919F
:100210008601309187018091840190918501F901D7
:10022000E80FF91F4081403239F14D3299F46EEEFA
:1002300072E080E090E00E94710080E090E00E9417
:100240009800892B19F40E94CE01F7CF0E94D001AB
:1002500082E046C04E3209F045C06AEF70E080E0AF
:1002600090E00E94710080E090E00E949800892B4D
:1002700069F70E94CE01F7CF0196F901E80FF91F47
:100280002081222329F0909385018093840104C06A
:10029000109285011092840168EE73E080E090E096
:1002A0000C94710080918401909185010196E091F8
:1002B0008601F0918701E80FF91F2081222329F0A0
:1002C000909385018093840104C01092850110925F
:1002D000840164E670E080E090E00E94710081E0BB
:1002E00080938301089588E09DE390938900809333
:1002F0008800109280008DE08093810082E08093DE
:100300006F0008950FB607FE03C08FB78F778FBFBA
:1003100060918801709189018FB780688FBF072E27
:10032000000C880B990B08950FB607FE03C08FB71A
:100330008F778FBF109288011092890110928A01E5
:1003400010928B018FB780688FBF08951F920F9214
:100350000FB60F9211248F939F93AF93BF93809109
:10036000880190918901A0918A01B0918B01019639
:10037000A11DB11D8093880190938901A0938A01EA
:10038000B0938B01BF91AF919F918F910F900FBE52
:100390000F901F901895219A29980895299A0895E9
:1003A0002998089585B18695817090E008950C9400
:1003B00073010F931F930E9482010091900110918D
:1003C00091012091920130919301600F711F821F62
:1003D000931F1F910F9108959C0160E971E00E94A5
:1003E0006407892B79F0C90183709927892B61F4FF
:1003F000C90164E670E00E9464079C0181E0232B40
:1004000021F402C081E0089580E008952F923F9288
:100410004F925F926F927F928F929F92AF92BF9214
:10042000CF92DF92EF92FF920F931F93CF93DF93C0
:10043000CDB7DEB767970FB6F894DEBF0FBECDBF5E
:100440002CE0E4E1F1E0AE014F5F5F4F1A01DA0109
:1004500001900D922A95E1F7DC012C91220F205694
:10046000322F330F330F230F11963C9111973153D5
:10047000230F2D8713962C911397022E000C330B0C
:10048000205331096AE0629FA001639F500D11243F
:100490001496CC900C2C000CDD08B0E3CB1AD108DC
:1004A000C40ED51E860101501109FC012681022EC1
:1004B000000C330B20533109E8EEF3E02E9FA0012E
:1004C0002F9F500D3E9F500D1124DC0117962C914B
:1004D0001797022E000C330B2053310974E6729FDC
:1004E0007001739FF00C1124E40EF51E18964C91C8
:1004F0001897042E000C550B40535109649F90012E
:10050000659F300D1124E20EF31E19962C91199758
:10051000F701E20FF11D27FDFA95AF0158507A015E
:100520001B962C911B97220F2056322F330F330F1F
:10053000230F1C963C911C973053230F298B1E963A
:100540002C911E97220F2056322F330F330F230F7B
:100550001F963C911F973053230F2A8B51962C9155
:100560005197220F2056322F330F330F230F5296FD
:100570008C918053280F2B8BCA010E94EC01882399
:1005800021F05D85523008F08601C70160E971E015
:100590000E946407FC01DB0120E839E540E650EFEA
:1005A0000E94C8072B013C01CF0164E670E00E9465
:1005B0006407FC01DB0120E032EC47E15CEB0E94C8
:1005C000C8074B015C01DF01B695A795B695A795C5
:1005D00020E83FE146E857E00E94C8076B017C0134
:1005E000DF01A370BB2720E833E341EE51E00E9416
:1005F000C8076C8B7D8B8E8B9F8BF1018E2F8219A0
:100600009D85891720F48191080F111DF7CFA989C5
:100610002A2F30E0A0E1BEE00E94B9076D877E87F7
:100620008F87988BBA892B2F30E0ACE3B0E00E9423
:10063000B9072D853E854F855889260F371F481FDE
:10064000591FDA01C9013B89830F911DA11DB11DFD
:10065000480E591E6A1E7B1E840C951CA61CB71CD6
:10066000C80CD91CEA1CFB1C8C899D89AE89BF89EA
:10067000C80ED91EEA1EFB1ED80120E831E541E074
:1006800050E00E94C807DC01CB018C0D9D1DAE1D02
:10069000BF1D8093900190939101A0939201B0931C
:1006A000930167960FB6F894DEBF0FBECDBFDF9102
:1006B000CF911F910F91FF90EF90DF90CF90BF905F
:1006C000AF909F908F907F906F905F904F903F90F2
:1006D0002F900C949401EF92FF920F931F93CF935E
:1006E000DF93CDB7DEB768970FB6F894DEBF0FBEC5
:1006F000CDBF7B012CE0E4E1F1E0DE011D9601902D
:100700000D922A95E1F78E010F5F1F4F2CE0F80143
:1007100011922A95E9F70E94EC018A83DE011D9669
:1007200080E0F701408151819D91F80121918F0175
:1007300030E0290F311D4217530740F0421B530B85
:10074000F701518340838F5F8C3059F768960FB65D
:10075000F894DEBF0FBECDBFDF91CF911F910F91F7
:10076000FF90EF9008954F925F926F927F928F92D9
:100770009F92AF92BF92CF92DF92EF92FF92CF9370
:10078000DF9300D0CDB7DEB72B013C0181E090E0D4
:10079000A0E0B0E020E8421629E5520620E6620615
:1007A00020EF720618F480E090E0DC0120E931E0EF
:1007B000829F5001839FB00C929FB00C112480E364
:1007C000A81A88EFB80AC12CD12C7601C39420E86E
:1007D000421629E5520620E6620620EF720618F45A
:1007E000C12CD12C7601A701960160E879E580E65D
:1007F00090EF0E94540773016201C61AD70AE80AF3
:10080000F90A81E090E0A0E0B0E0C11422ECD20649
:1008100027E1E2062CEBF20618F480E090E0DC0120
:1008200044E6489F9001499F300D1124A20EB31E4B
:1008300021E030E040E050E0C11482ECD80687E1CE
:10084000E8068CEBF80618F420E030E0A90160E03F
:1008500072EC87E19CEB0E945407A7019601261BCE
:10086000370B480B590BCA01B90120E83FE146E8B4
:1008700057E00E947807220F331F220F331FA20E6A
:10088000B31E20E833E341EE51E00E947807750182
:10089000E20EF31E20E831E541E050E00E947807C7
:1008A0004B015C013A832983BE016F5F7F4FC70113
:1008B0000E946B03D82EC501B40120E13EE040E068
:1008C00050E00E94780729013A014B015C0166E67D
:1008D00071E080E091E00E94CA046D2D70E06F5FCE
:1008E0007F4F42E080E091E00E94D40469817A81E8
:1008F0006F5F7F4F42E083E091E00E94D40444E0C8
:10090000B70186E091E00E94D40442E0B2018BE09E
:1009100091E00E94D404C501B4012CE330E040E032
:1009200050E00E94780749015A016B017C0142E0C6
:10093000B4018EE091E00E94D40442E0B60181E16E
:1009400091E00E94D40480E091E00F900F90DF913D
:10095000CF91FF90EF90DF90CF90BF90AF909F909E
:100960008F907F906F905F904F9008950F931F939B
:100970000E948201009190011091910120919201B9
:1009800030919301600F711F821F931F1F910F9170
:100990000C94B303FC01DB018D91BD01882311F0A0
:1009A0008193F9CF108208959F92AF92BF92CF9218
:1009B000DF92EF92FF920F931F93CF93DF9300D0BC
:1009C00000D01F92CDB7DEB7FC016B019E012F5FF7
:1009D0003F4F8E010A5F1F4FEE24E394F12C9AE003
:1009E000992E9E9C50019F9CB00C1124C601B5010C
:1009F0000E946407B7010E946407D9016D939D01AD
:100A0000C61AD10867FDD3947501A017B10749F73D
:100A100060E070E084E090E050E0D8012E918D011C
:100A2000211105C06115710511F4009741F4841777
:100A300095072CF4205D219361E070E004C08417D9
:100A400095070CF43196019740F70F900F900F9097
:100A50000F900F90DF91CF911F910F91FF90EF902A
:100A6000DF90CF90BF90AF909F9008950E940006B6
:100A7000789408950C949806CF93DF93EC018991B4
:100A8000882319F00E949806FACFDF91CF9108953C
:100A9000CF93C82F90E024E0959587952A95E1F7AC
:100AA0008A3010F4805D01C0895C0E9498068C2F0A
:100AB0008F708A3010F0895C01C0805DCF910C94FA
:100AC0009806CF93C82F892F0E9448058C2FCF916D
:100AD0000C9448052F923F924F925F926F927F92B3
:100AE0008F929F92AF92BF92CF92DF92EF92FF923E
:100AF0000F931F93CF93DF93CDB7DEB763970FB6F6
:100B0000F894DEBF0FBECDBF6B017C0197FF0DC017
:100B1000F094E094D094C094C11CD11CE11CF11C51
:100B200081E090E09B8B8A8B02C01B8A1A8AFE01AF
:100B300031965F018E01055F1F4FF98BE88B6624AC
:100B40006394712C812C912CAAE0B0E09301A40154
:100B50000E94C8071B012C01C701B6019101A20127
:100B60000E949A079301A4010E949A07E889F989D3
:100B70002193F98BE88B822F220F990BAA0BBB0BC9
:100B8000C81AD90AEA0AFB0A310142010E171F07E7
:100B9000D9F68A899B89892B11F08DE201C080E208
:100BA0000E94980620E030E0F80182918F018111C7
:100BB00006C02115310519F4EA15FB0529F4805DFD
:100BC0000E94980621E030E00A151B0569F763963C
:100BD0000FB6F894DEBF0FBECDBFDF91CF911F914E
:100BE0000F91FF90EF90DF90CF90BF90AF909F90CC
:100BF0008F907F906F905F904F903F902F900895CF
:100C00001092C00087E690E09093C5008093C400E6
:100C1000E1ECF0E088E1808386E08093C20080818F
:100C2000806A808308951F920F920FB60F9211244D
:100C30002F938F939F93EF93FF9380918E01209139
:100C40008F0190E0821B910901978F739927892B5F
:100C500079F0E0918F01F0E08091C600EC56FE4FF4
:100C6000808380918F018F5F8F7380938F0102C08B
:100C70008091C600FF91EF919F918F912F910F90DE
:100C80000FBE0F901F9018951F920F920FB60F92E4
:100C900011242F938F939F93EF93FF9380918D0156
:100CA00020918C0190E0821B91098F739927892BE9
:100CB00079F0E0918C01F0E0EC52FE4F808180935E
:100CC000C60080918C018F5F8F7380938C0105C06B
:100CD0008091C1008F7D8093C100FF91EF919F9122
:100CE0008F912F910F900FBE0F901F9018958091AC
:100CF0008F0190918E01891B8F73089580918F01D0
:100D000020918E0190E0821B91098F739927892B86
:100D100069F0E0918E01F0E0EC56FE4F80819091F9
:100D20008E019F5F9F7390938E01089580E00895D8
:100D30000FB607FE0EC020918C0190918D0130E01E
:100D4000291B3109215031092F733327232B99F3A4
:100D50000DC020918C0190918D0130E0291B31094B
:100D6000215031092F733327232B61F0E0918D013E
:100D7000F0E0EC52FE4F808380918D018F5F8F7386
:100D800080938D018091C10080628093C10008959D
:100D90001F93CF93DF93EC0180E011E0180FFE0169
:100DA000E80FF11D8081882321F00E949806812F91
:100DB000F4CFDF91CF911F9108951F93CF93DF93CD
:100DC000EC0180E011E0180FFE01E80FF11D8491A5
:100DD000882321F00E949806812FF4CFDF91CF91D4
:100DE0001F9108950E9436050E94CB010E94D701F1
:100DF00080E291E00E94DE0088E291E00E9406021B
:100E00008CE391E00E943C0560E177E281E090E0B4
:100E10000E947100812C912C540181E090E00E948D
:100E20009800892B31F48FEF881A980AA80AB80A1B
:100E3000F4CF60E177E281E090E00E947100C12C84
:100E4000D12C760181E090E00E949800892B41F43A
:100E50000E94F1008FEFC81AD80AE80AF80AF2CF08
:100E6000C501B4010E946A0581E691E00E943C053B
:100E7000C701B6010E946A0583E691E00E943C0525
:100E800064EF71E081E090E00E94710081E090E009
:100E90000E949800892BA1F70E94B6040E943C058D
:100EA0008DE00E943A05ECCFDB018F939F930E9467
:100EB000C807BF91AF91A29F800D911DA39F900D78
:100EC000B29F900D11240895AA1BBB1B51E107C0CE
:100ED000AA1FBB1FA617B70710F0A61BB70B881FCA
:100EE000991F5A95A9F780959095BC01CD01089559
:100EF000A1E21A2EAA1BBB1BFD010DC0AA1FBB1F1E
:100F0000EE1FFF1FA217B307E407F50720F0A21B8F
:100F1000B30BE40BF50B661F771F881F991F1A94FC
:100F200069F760957095809590959B01AC01BD0126
:100F3000CF010895052E97FB1EF400940E94B1077F
:100F400057FD07D00E94780707FC03D04EF40C949D
:100F5000B10750954095309521953F4F4F4F5F4FCA
:100F6000089590958095709561957F4F8F4F9F4F15
:100F70000895A29FB001B39FC001A39F700D811D72
:100F80001124911DB29F700D811D1124911D089592
:100F90000E94B907A59F900DB49F900DA49F800D4E
:0A0FA000911D11240895F894FFCF6D
:100FAA00030B443100802500002D00040B4430005F
:100FBA00802500002D0002060024F400010C617453
:080FCA006D65676133323800E8
:100FD20030302F30302F303030302030303A303017
:100FE2003A3030001F1C1F1E1F1E1F1F1E1F1E1FF8
:100FF2002D2D2D202D2E2D0030312F30312F32303E
:1010020031392030303A30303A30300053455220B6
:101012003438362050726F6A6563742031202D2077
:10102200416E6472657720476F6F646D616E0A0D61
:101032000020000D0A0030302F30302F3030303099
:0A1042002030303A30303A303000F0
:00000001FF
