:100000000C9434000C9451000C9451000C94510049
:100010000C9451000C9451000C9451000C9451001C
:100020000C9451000C9451000C9451000C9451000C
:100030000C9451000C9451000C9451000C945100FC
:100040000C9451000C9451000C9411010C94420139
:100050000C9451000C9451000C9451000C945100DC
:100060000C9451000C94510011241FBECFEFD8E026
:10007000DEBFCDBF11E0A0E0B1E0E6E4F4E002C0F5
:1000800005900D92A833B107D9F721E0A8E3B1E0BC
:1000900001C01D92AC3BB207E1F70E94F3010C9442
:1000A0000D020C940000CF93DF9300D000D0CDB7A9
:1000B000DEB71C821B822B813C8128173907A8F4EC
:1000C0001A82198229813A81283E334038F42981E5
:1000D0003A812F5F3F4F3A832983F4CF2B813C81B4
:1000E0002F5F3F4F3C832B83E6CF0F900F900F90F5
:1000F0000F90DF91CF910895CF93DF93EC01899119
:10010000882319F00E94FD00FACFDF91CF91089566
:100110001F93CF93DF93CDB7DEB761970FB6F894F7
:10012000DEBF0FBECDBF182F81E1E6E2F1E0DE01B8
:10013000119601900D928A95E1F7812F82958F702B
:10014000E1E0F0E0EC0FFD1FE80FF11D80810E945F
:10015000FD001F70E1E0F0E0EC0FFD1FE10FF11D6D
:10016000808161960FB6F894DEBF0FBECDBFDF91E0
:10017000CF911F910C94FD00CF93C82F892F0E941F
:1001800088008C2FCF910C948800EF92FF921F93E0
:10019000CF93DF93219AEC0112E07E0188818823BE
:1001A00019F18D3251F413B98EEE92E00E94530092
:1001B00013B984E690E00E94530088818E3251F496
:1001C00013B98AEF90E00E94530013B984E690E0DF
:1001D0000E9453002196F70180818032F1F688EE6B
:1001E00093E00E945300D9CFDF91CF911F91FF90F0
:1001F000EF90089503D07894089598C01092C000AD
:1002000083E390E09093C5008093C400E1ECF0E0BC
:1002100088E1808386E08093C2008081806A808349
:1002200008951F920F920FB60F9211242F938F9360
:100230009F93EF93FF9380913A0120913B0190E0CF
:10024000821B910901978F739927892B79F0E0918F
:100250003B01F0E08091C600E45CFE4F808380911A
:100260003B018F5F8F7380933B0102C08091C6007A
:10027000FF91EF919F918F912F910F900FBE0F9053
:100280001F9018951F920F920FB60F9211242F9363
:100290008F939F93EF93FF938091390120913801C1
:1002A00090E0821B91098F739927892B79F0E09157
:1002B0003801F0E0E458FE4F80818093C6008091C1
:1002C00038018F5F8F738093380105C08091C10022
:1002D0008F7D8093C100FF91EF919F918F912F911E
:1002E0000F900FBE0F901F90189580913B01909139
:1002F0003A01891B8F73089580913B0120913A0147
:1003000090E0821B91098F739927892B69F0E09106
:100310003A01F0E0E45CFE4F808190913A019F5FEA
:100320009F7390933A01089580E008950FB607FEF9
:100330000EC0209138019091390130E0291B31091C
:10034000215031092F733327232B99F30DC02091AE
:1003500038019091390130E0291B310921503109D0
:100360002F733327232B61F0E0913901F0E0E4583B
:10037000FE4F8083809139018F5F8F7380933901A5
:100380008091C10080628093C10008951F93CF9334
:10039000DF93C82FD92F90E011E0190FEC2FFD2F1C
:1003A000E90FF11D8081882319F0C0DF912FF4CF70
:1003B000DF91CF911F9108951F93CF93DF93C82FA3
:1003C000D92F90E011E0190FEC2FFD2FE90FF11D4F
:1003D000C895802D882319F0A9DF912FF3CFDF91E5
:1003E000CF911F9108950E94FA0080E091E00E9451
:1003F0007C008AE00E9488008BE191E00E947C00F2
:100400008EED90EC0E94BC008BE191E00E947C009C
:0E0410008EE191E00E94C500FFCFF894FFCF6F
:10041E00030B443100004B00002D00040B44300050
:10042E00004B00002D0002060024F400010C617444
:08043E006D656761333238007F
:1004460053455234383620485733202D20416E64A8
:1004560072657720476F6F646D616E0A0D002D2DF2
:100466002D202D2E2D0030313233343536373839A4
:080476004142434445460000E9
:00000001FF
