:100000000C9444000C9461000C9461000C94610009
:100010000C9461000C9461000C9432200C946100EB
:100020000C9461000C9461000C9461000C945B17BB
:100030000C9461000C9461000C94A1010C9461007B
:100040000C9461000C9461000C9468200C94902135
:100050000C9461000C9461000C9471080C94610084
:100060000C9461000C94610047237F2312255025D6
:10007000FE2505260F26B216D116DF16E916031740
:100080000D17181731173B1711241FBECFEFD8E0FB
:10009000DEBFCDBF14E0A0E0B1E0EAECFDE402C0B9
:1000A00005900D92AC30B107D9F726E0ACE0B4E092
:1000B00001C01D92A231B207E1F70E9473220C9495
:1000C000CF260C94000008958F929F92AF92BF921A
:1000D000EF92FF920F931F93CF93DF9300D000D046
:1000E0001F92CDB7DEB77C0180914401909145010C
:1000F000A0914601B091470189839A83AB83BC8369
:1001000048EB52E2BE016F5F7F4F83E00E94E00F39
:1001100048EB52E2BE016F5F7F4F83E00E94F7130E
:100120000E94570F0E9401168C010E94570F9801E0
:10013000AC0160E070E083E00E94AC120E94570FB7
:100140000E9401168C0121E030E04DE953E0BC0132
:1001500083E00E94AC120F5F1F4F87E795E00E947B
:1001600001169C0147E755E0B80183E00E94AC12FC
:1001700087E795E00E940116080F191F21E030E083
:100180004DE953E0B80183E00E94AC12B8016F5F03
:100190007F4FC70124E0969587952A95E1F78A302D
:1001A000910510F0895C01C0805D8D8321E030E015
:1001B000AE014B5F5F4F83E00E94AC12B8016E5FEF
:1001C0007F4F8E2D8F7097012F7033272A30310586
:1001D00010F0895C01C0805D8D8321E030E0AE01CC
:1001E0004B5F5F4F83E00E94AC1283E00E941C14BF
:1001F0000E9457024B015C0125EF820E21E0921E06
:10020000A11CB11C0E945702681579058A059B053F
:10021000C9F783E00E948D1085E993E00E94AE1734
:10022000B70180E090E00E94DC1786EB93E00E942B
:10023000AE170F900F900F900F900F90DF91CF910E
:100240001F910F91FF90EF90BF90AF909F908F9074
:10025000089581E080930E04089580910005813413
:1002600061F480910105833541F481E090E02091B3
:100270000205253521F080E002C080E090E0E0E05A
:10028000F5E020E03191230F35E0E331F307D1F7BA
:10029000222311F080E090E0089562E170E082E1B5
:1002A00091E00E94E11842E162E171E080E490E0B7
:1002B0000C94B7080E940009892BE1F742E160E045
:1002C00075E080E490E00E94EB080E942D01892BEC
:1002D00049F40E944D0142E160E075E080E490E065
:1002E0000E94EB0810920E0408950E940009892BC9
:1002F00099F480910E04882379F062E170E080E047
:1003000095E00E94E11842E160E075E080E490E051
:100310000E94B70810920E04089580910E0488235D
:1003200079F062E170E080E095E00E94E11842E13E
:1003300060E075E080E490E00E94D40810920E0422
:1003400008951F920F920FB60F9211242F933F938F
:100350008F939F93AF93BF932091190430911A0408
:1003600080911104909112042817390749F0809167
:10037000190490911A04019690931A048093190419
:1003800020911B0430911C0480911304909114045B
:100390002817390749F080911B0490911C0401969D
:1003A00090931C0480931B04809115049091160473
:1003B000A0911704B09118040196A11DB11D80935E
:1003C000150490931604A0931704B0931804BF91DA
:1003D000AF919F918F913F912F910F900FBE0F90F2
:1003E0001F90189589EF87BD82E084BD93E095BD8D
:1003F000789480936E001092150410921604109257
:1004000017041092180408958230910550F4F8945E
:10041000880F991FFC01E75EFB4F808191817894E2
:10042000089580E090E008958230910598F4880F57
:10043000991FFC01E75EFB4F20813181FC01EF5EDB
:10044000FB4F81E090E0408151814217530721F03A
:1004500080E0089580E090E008950F931F93CF937C
:10046000DF93EC018B0180910F0490911004892B94
:1004700041F40E94F20181E090E090931004809397
:100480000F04C230D10570F48FB7F894CC0FDD1F84
:10049000FE01EF5EFB4F11830083C75EDB4F1982C5
:1004A00018828FBFDF91CF911F910F910895809196
:1004B0000F0490911004892B41F40E94F20181E015
:1004C00090E09093100480930F04F89460911504C9
:1004D00070911604809117049091180478940895EF
:1004E0008BE294E008958FE294E0089583E394E032
:1004F000089587E394E008958BE394E0089544E140
:1005000050E060E00E960C94D61508952F923F921D
:100510004F925F926F927F928F929F92AF92BF9213
:10052000CF92DF92EF92FF920F931F93CF93DF93BF
:10053000CDB7DEB7E6970FB6F894DEBF0FBECDBFDE
:100540008C012A013B0119011AAA19AA0E9457021B
:100550004B015C0182E00E945711892BF9F40E9443
:100560005702DC01CB0188199909AA09BB09481671
:1005700059066A067B0608F4A7C00E9457026B0161
:100580007C0123E3C20ED11CE11CF11C0E94570226
:100590006C157D058E059F05C9F7DCCF48E050E05E
:1005A000BE016D5D7F4F82E00E94B311FFA08BA161
:1005B0008BA78CA18CA78DA18DA78EA18EA7E8A457
:1005C00042E250E0BE016F5F7F4F82E00E94B311B4
:1005D0008981823009F076C08F2D90E0982F88278E
:1005E0008E0D911D8334910509F06CC06D817E8163
:1005F0008F8198850E94AE26F1016083718382838A
:10060000938346E050E0B801685F7F4FCE014D967E
:100610000E94E015892B09F059C0F1018081918178
:10062000A281B381F8014081518162817381841775
:100630009507A607B70708F449C04481558166812C
:100640007781481759076A077B0708F43FC044E0E1
:1006500050E0BE016F5E7F4FC8010E960E94CA1522
:100660008EECE82EF12C41E050E0BE01615D7F4F41
:1006700082E00E94B311F1E0EF1AF108A1F7C8017E
:1006800082969CAB8BABF801B696FEABEDAB180136
:10069000FAE22F0E311C08976C012E019BE2490EE5
:1006A000511C3801E2E16E0E711C5801F6E1AF0EEB
:1006B000B11C48012EE1820E911C82E00E9457116C
:1006C000892B31F48AA924C18FEF22C180E020C197
:1006D00041E050E0BE01605D7F4F82E00E94B311B7
:1006E00088A9833309F4E0C0D0F48130B9F128F34C
:1006F000833009F442C0863009F0F5C041E050E093
:10070000BE016F5C7F4F82E00E94B31144E050E075
:10071000B40182E00E94B311E12CF12C51C08A3364
:1007200009F48DC030F4853359F0863309F45BC089
:10073000DAC08B3309F49EC08F3F09F4BECFD3C01B
:1007400041E050E0BE016F5C7F4F82E00E94B31138
:1007500041E050E0BE016E5C7F4F0BC041E050E0D5
:10076000BE016F5C7F4F82E00E94B31144E050E015
:10077000B30182E00E94B311A0CF41E050E0BE017E
:100780006F5C7F4F82E00E94B31144E050E0B501FE
:1007900082E00E94B311E12CF12C89A990E004972A
:1007A000E816F9060CF089CF41E050E0BE01615D2A
:1007B0007F4F82E00E94B3118FEFE81AF80AEDCF65
:1007C00089A990E00497E816F9060CF076CF41E08D
:1007D00050E0BE01615D7F4F82E00E94B3119FEF48
:1007E000E91AF90AEDCF41E050E0BE016F5C7F4F9E
:1007F00082E00E94B311F801828D811109C0838DBE
:10080000811106C0848D811103C0858D882319F064
:100810004C145D0421F444E050E0B601AACF89A94C
:100820009FEF980F99AB882309F447CF41E050E040
:10083000BE01615D7F4F82E00E94B311F0CF41E0C5
:1008400050E0BE016F5C7F4F82E00E94B31144E034
:1008500050E06DA97EA982E00E94B311F80166A163
:1008600077A180A591A50E94AE2666A377A380A755
:1008700091A723CF41E050E0BE016F5C7F4F82E043
:100880000E94B31144E050E0B10182E00E94B31134
:10089000F80162A573A584A595A50E94AE2662A75E
:1008A00073A784A795A709CF41E050E0BE016F5C14
:1008B0007F4F82E00E94B31144E050E06BA97CA915
:1008C00082E00E94B311F80162A173A184A195A1F5
:1008D0000E94AE2662A373A384A395A366A777A7FD
:1008E00080AB91ABEACE41E050E0BE016F5C7F4F40
:1008F00082E00E94B31189A99FEF980F99AB8823DA
:1009000009F4DBCE41E050E0BE01615D7F4FF0CFE6
:10091000E6960FB6F894DEBF0FBECDBFDF91CF9144
:100920001F910F91FF90EF90DF90CF90BF90AF900D
:100930009F908F907F906F905F904F903F902F90FF
:1009400008950E96089542960895469608954A96FB
:1009500008954E96089580E3FB0180833296842F9C
:1009600082958F7090E1899F401911244A3014F4C8
:10097000405D01C0495C4293482F8111F0CF08953A
:10098000AF92BF92DF92EF92FF920F931F93CF939C
:10099000DF93CDB7DEB7AA970FB6F894DEBF0FBED0
:1009A000CDBF8C01D62EF42EE52E40E250E060E063
:1009B000CE0101960E94D61580914801909149017F
:1009C000A0914A01B0914B018DA39EA3AFA3B8A7FC
:1009D00043E450E0BE016B5D7F4F82E00E94F7135D
:1009E000892B09F4FBC081E089838A8386E08B83AD
:1009F0001C82F80164817581868197810E94AE26F0
:100A000069A37AA38BA39CA344E050E0BE016F5D71
:100A10007F4FCE0105960E94CA15E986FA8680E8C6
:100A200090E09AA789A742E050E0BE01675D7F4F42
:100A3000CE010B960E94CA152CE130E0AE014F5F4B
:100A40005F4F60E070E082E00E94AC1240E250E054
:100A500060E0CE0101960E94D6155801F8E0AF0E75
:100A6000B11C46E050E0B501CE0101960E94CA15C6
:100A700020E130E0AE014F5F5F4F6CE170E082E05B
:100A80000E94AC1240E250E060E0CE0101960E946C
:100A9000D6158CE2E82EF12C20E230E0AE014F5F5B
:100AA0005F4FB70182E00E94AC1280E2E80EF11CB9
:100AB000ECEEEE16F10481F783E6898392E89A83DF
:100AC00093E59B838C8385E38D8381E08E83DF8236
:100AD0009DE3988797E099878A8746E050E0B501C3
:100AE000CE010B960E94CA158CE0898B8FE993E0AA
:100AF0000E9401168A5F8A8B6FE973E0CE014396EC
:100B00000E94F715F8014385BE01675E7F4FC8015B
:100B10000E94AB04F8014485BE01655E7F4FC801A9
:100B20000E94AB04F8014585BE01635E7F4FC8019A
:100B30000E94AB042EE130E0AE014F5F5F4F6CEEE0
:100B400070E082E00E94AC12F3E0DF1227C082E383
:100B5000898384E08A83F80196859B8397859C83AB
:100B600090899D8391899E8396E39F838887828D58
:100B70008987838D8A87848D8B87858D8C872CE0F0
:100B800030E0AE014F5F5F4F6AE071E082E00E94AB
:100B9000AC1266E171E080E090E004C06AE071E0D0
:100BA00080E090E027E3298326E02A8331E03B833D
:100BB00033E03C832D832FE02E832AE32F832BE326
:100BC00028872FEF298729E030E0AE014F5F5F4F84
:100BD00082E00E94AC1282E00E941C14AA960FB61A
:100BE000F894DEBF0FBECDBFDF91CF911F910F9163
:100BF000FF90EF90DF90BF90AF9008952F923F92BB
:100C00004F925F926F927F928F929F92AF92BF921C
:100C1000CF92DF92EF92FF920F931F93CF93DF93C8
:100C200000D000D0CDB7DEB78C0120ED37E040E03A
:100C300050E061E070E080E090E00E941019A0E0D8
:100C4000B0E0F80184839583A683B7838083918382
:100C5000A283B38382E00E948D1064E470E082E09E
:100C60000E948510882309F42EC10E9457024B016F
:100C70005C01212C312C7801F2E4EF0EF11C48EEDE
:100C8000442E43E0542E612C712C52E0C52ED70126
:100C90008C91833009F4FEC081111FC0F80184815A
:100CA0009581A681B7810196A11DB11D848395838D
:100CB000A683B7830E945702681979098A099B099C
:100CC000A30192010E946726A90161E0C8010E9468
:100CD000C00481E0D7018C93C5C08430F1F4F801E1
:100CE00084819581A681B7810196A11DB11D848360
:100CF0009583A683B7830E945702681979098A09E8
:100D00009B09A30192010E946726A90163E0C80123
:100D10000E94C004D701CC92A5C0813051F5F801E2
:100D200042AD53AD64AD75AD9E012F5F3F4FC8011D
:100D30000E948602D82EF2E08F138FC089819A819B
:100D4000AB81BC81F80184839583A683B7830E941D
:100D50005702681979098A099B09A30192010E9427
:100D60006726A90163E0C8010E94C004D701DC9294
:100D700079C0823009F076C0F80142AD53AD64AD60
:100D800075AD9E012F5F3F4FC8010E948602D82E8D
:100D9000F5E08F135CC0E3E0D701EC93F80182A18A
:100DA00093A1A4A1B5A1892B8A2B8B2B41F484E8B4
:100DB00093E0A0E0B0E082A393A3A4A3B5A3F801BD
:100DC00086A197A1A0A5B1A5892B8A2B8B2B61F4B5
:100DD00082A193A1A4A1B5A1B695A7959795879552
:100DE00086A397A3A0A7B1A7F80182A593A5A4A560
:100DF000B5A5892B8A2B8B2BA9F482A193A1A4A141
:100E0000B5A1AC01BD0123E076956795579547954F
:100E10002A95D1F7841B950BA60BB70B82A793A736
:100E2000A4A7B5A7F80186A197A1A0A5B1A586A7FB
:100E300097A7A0ABB1AB82A593A5A4A5B5A582AB9E
:100E400093ABA4ABB5AB22242394312C0BC0F6E0BA
:100E50008F1303C0D7011C9205C0BFEFDB1202C085
:100E6000F7011082F1E02F16310409F410CF0E942F
:100E70005702DC01CB0188199909AA09BB09F801BD
:100E800026A937A940AD51AD281739074A075B0796
:100E900008F0FDCE82E00E948D10F80184819581DA
:100EA000A681B7810196A11DB11D84839583A68378
:100EB000B7830E945702F801FE9660837183828394
:100EC0009383C10102C080E090E00F900F900F90DB
:100ED0000F90DF91CF911F910F91FF90EF90DF90D6
:100EE000CF90BF90AF909F908F907F906F905F90CA
:100EF0004F903F902F900895CF92DF92EF92FF9204
:100F00000F931F93CF93DF93EC016B011AA21BA2E7
:100F10001CA21DA21EA21FA218A619A61AA61BA6D5
:100F20001CA61DA62EAB3FAB48AF59AFEAAEFBAE39
:100F30000CAF1DAF8C01085F1F4F46E050E060E032
:100F4000C8010E94D615CE010E947F0246E050E003
:100F5000B601C8010E94CA15FE01EE5BFF4F108268
:100F6000CE01DF91CF911F910F91FF90EF90DF9015
:100F7000CF900C94FE05EF92FF920F931F93780190
:100F800089019A01AB01BC018DE194E00E947C07CC
:100F90001F910F91FF90EF900895CF92DF92EF9203
:100FA000FF920F931F93CF93DF93EC010E945702A0
:100FB0006B017C018E01025C1F4FF80180819181E1
:100FC000A281B381A7019601281B390B4A0B5B0B49
:100FD000CA01B901683E33E073078105910508F441
:100FE00041C028EE33E040E050E00E946726C61A78
:100FF000D70AE80AF90AF801C082D182E282F382B4
:101000008EA59FA5A8A9B9A969017A01CC0CDD1C00
:10101000EE1CFF1C8C159D05AE05BF0528F41EA611
:101020001FA618AA19AA08C0821B930BA40BB50B04
:101030008EA79FA7A8ABB9AB8AA99BA9ACA9BDA94C
:101040008C159D05AE05BF0528F41AAA1BAA1CAA7B
:101050001DAA08C0821B930BA40BB50B8AAB9BABDC
:10106000ACABBDAB8EA59FA5A8A9B9A9892B8A2B2E
:101070008B2B69F4FE01EE5BFF4F8081833039F4E6
:1010800084E08083CE010E94FE05019602C080E0CC
:1010900090E04AA95BA96CA97DA9452B462B472B5B
:1010A00081F4FE01EE5BFF4F2081233011F021110E
:1010B00008C01082CE010E947F02CE010E94FE0570
:1010C0000396DF91CF911F910F91FF90EF90DF90EA
:1010D000CF9008958DE194E00C94CD07FA9AF99A97
:1010E00008951F920F920FB60F9211242F933F93E2
:1010F0004F935F936F937F938F939F93AF93BF9320
:10110000EF93FF93E091560580911505E81720F0C5
:10111000FB98109212051AC0809113059091140546
:1011200092BD81BD81E08E0F80935605F0E0EA5EAE
:10113000FA4F808180BD809113059091140501962E
:1011400090931405809313050E946E08FF91EF9110
:10115000BF91AF919F918F917F916F915F914F91CF
:101160003F912F910F900FBE0F901F9018952091D7
:1011700012052111FCCF909314058093130581E093
:10118000809312051092560540931505962FA6E1FF
:10119000B5E0FB018E2F891B841718F481918D9384
:1011A000F9CF7894FB9A0895FB01861B970B50E0CA
:1011B000DC01AE0FBF1F9F01261B370B241735071D
:1011C00048F4F999FECFB2BDA1BD219120BDFA9A94
:1011D000F99AEECF0895209112052111FCCFFB0161
:1011E000861B970B2E2F261B241748F49C012E0FCD
:1011F0003F1F32BD21BDF89A20B52193F3CF08954A
:101200008091120590E0089560E070E080E090E049
:101210000E942D02219A29980895299A08952998C3
:101220000895909361048093600410926404109276
:1012300063041092620460E070E080E090E00E943D
:101240002D020C940F098091600490916104892B08
:1012500009F452C080E090E00E941402892B09F446
:101260004BC080916204811134C02091630430919D
:101270006404E0916004F0916104E20FF31F808147
:101280008032E9F03CF481111DC010926404109288
:10129000630408958D3239F08E32A1F40E940D0955
:1012A0006AEF70E004C00E940D096EEE72E080E00B
:1012B00090E00E942D0281E080936204089568EE20
:1012C00073E00BC02F5F3F4F30936404209363049F
:1012D00008950E940F0964E670E080E090E00E94AB
:1012E0002D0210926204809163049091640401962F
:1012F0009093640480936304089585B1869581700A
:1013000090E008958031910504F527E0289FA00121
:10131000299F500D1124FA01E859FB4F8081813239
:10132000A0F480E090E020E0FA01E80FF91FE8590E
:10133000FB4F3081230F019687309105A9F781E09B
:1013400090E0222321F080E0089580E090E008956D
:101350006F927F928F929F92AF92BF92CF92DF92C5
:10136000EF92FF920F931F93CF93DF930E94000998
:10137000892BE1F708ED14E0C0E8D0E0BE01685128
:101380007C4F47E0CE010E94EB08F80111928F01DB
:101390002796C03FD10591F748E6E42E44E0F42EAD
:1013A0008701C0E0D0E0D12CB12C77247A94CE0113
:1013B0000E948209892B41F0F8018081871520F471
:1013C000BC2E782EDD24D3942196095F1F4FC031A7
:1013D000D10569F7DD2009F46AC0B0926704709204
:1013E0006604CB2DD0E08E010F5F1F4F872C2FE0BE
:1013F000A22E37E0932E6801FFE0CF22DD24C60144
:101400000E948209892B61F4B09265048E0101501B
:101410001109609780E1A82EB12C97E0692E3AC09F
:101420009C9CF0019D9CF00D1124E859FB4F4081DC
:10143000242F30E0882D90E001968F71992728178E
:10144000390711F7C092670440936604AA940F5FAE
:101450001F4FAA20C9F2842ECECFF701208130E0A1
:10146000872D90E04F968F7199272817390731F50E
:10147000C0926504689CF001699CF00D1124E85944
:10148000FB4F708001501109F7E0EF0EF11C0C17B3
:101490001D07A1F0C801B5010E9453266C014C0143
:1014A0009924C4010E948209892BB9F607C08FE0F4
:1014B000809367041092660410926504DF91CF91C7
:1014C0001F910F91FF90EF90DF90CF90BF90AF9062
:1014D0009F908F907F906F900895EF92FF921F934F
:1014E000CF93DF930E940009892B39F5E8EDF4E0F2
:1014F000C0E0D0E081918823E1F017E01C9FC0019B
:101500001D9F900D11249C0128593B4F790167E0E4
:1015100070E0C9010E94E118C19FC001112447E099
:10152000B70180589F4F0E94B708C852DB4F1882FE
:1015300004C02196C031D105E9F6DF91CF911F910A
:10154000FF90EF900895EF92FF921F93CF93DF9358
:10155000E8EDF4E0C0E0D0E081918823E1F017E00D
:101560001C9FC0011D9F900D11249C0128593B4FC9
:10157000790167E070E0C9010E94E118C19FC001D4
:10158000112447E0B70180589F4F0E94D408C852E9
:10159000DB4F188204C02196C031D105E9F6DF91F6
:1015A000CF911F91FF90EF900895EF92FF920F93CC
:1015B0001F93CF93DF93E82EC0916704D0E021966C
:1015C000CF70DD278091650490E00E948209F82E9B
:1015D000809166048F5F813218F48093660402C0A4
:1015E0001092660487E08C9F80018D9F100D11245E
:1015F00008591B4F80916604F80180830E94810C7A
:10160000F8016183728383839483E582C0936704C6
:1016100067E070E0C8010E94E118C852DB4F81E02A
:1016200088838091670490916504891308C0FF2026
:1016300031F090E001968F70992780936504DF91D7
:10164000CF911F910F91FF90EF900895E8E6F4E09D
:10165000A8EDB4E08FEF4FEF5FEFBA0191E0808328
:10166000858341835283638374839D93379624E0FB
:10167000E83DF207A1F78FE08093670410926504BC
:101680001092660408950F931F93CF93DF930091F8
:101690006504C02F10E0D0E0CE010E948209892BA2
:1016A00029F02196CF701F5F0C13F5CF812FDF91AA
:1016B000CF911F910F910895AF92BF92CF92DF9279
:1016C000EF92FF920F931F93CF93DF936B017C01F7
:1016D0008A0159010E94430B90E0A0E0B0E0C816D7
:1016E000D906EA06FB06F8F48091650490E0C80E7E
:1016F000D91E8FE0C822DD2487E08C9DF0018D9DEE
:10170000F00D1124E859FB4F81819281A381B481AE
:10171000E80188839983AA83BB838581F50180834F
:1017200081E090E002C080E090E0DF91CF911F91D6
:101730000F91FF90EF90DF90CF90BF90AF90089502
:101740004F925F926F927F928F929F92AF92BF92D1
:10175000CF92DF92EF92FF920F931F93CF93DF937D
:10176000CDB7DEB7CA57D1090FB6F894DEBF0FBEAA
:10177000CDBFF82E80914C0190914D01A0914E016A
:10178000B0914F01E9968CAF9DAFAEAFBFAFE99777
:1017900083E00E945010882329F06BE770E083E01B
:1017A0000E94851050E3E52E6E0101E4C00ED11CAD
:1017B00063E2462E512C612C712CFF2009F482C06B
:1017C000F6010E2D11920A95E9F7F6014082518239
:1017D000628273820BE710E09E012B583F4F40E37B
:1017E00050E0B60183E00E946111C09709F06AC021
:1017F0000E9457024B015C01F9EE8F0EF3E09F1E31
:10180000A11CB11C0E945702681579058A059B0529
:10181000C9F783E00E945711009709F451C08E0167
:1018200007581F4F9E012F583F4FAC01BE016F5FFD
:101830007F4F83E00E94D411C09709F041C069A591
:10184000862F90E0A0E0B0E0BA2FA92F982F88272C
:101850002AA5820F911DA11DB11DBA2FA92F982F66
:1018600088272BA5820F911DA11DB11DBA2FA92F6D
:10187000982F88274CA550E060E070E04058534115
:1018800069417C4B8A019B01080F191F2A1F3B1FCE
:10189000C901B8010E94540E0E94A70C86EA93E089
:1018A0000E94AE170E94570F0E94AE1783EB93E081
:1018B0000E94AE1783E00E948D1081E090E007C087
:1018C000FA947BCF83E00E948D1080E090E0C658B0
:1018D000DF4F0FB6F894DEBF0FBECDBFDF91CF91C3
:1018E0001F910F91FF90EF90DF90CF90BF90AF903E
:1018F0009F908F907F906F905F904F9008950C9481
:1019000080170C9490176093570570935805809337
:10191000590590935A050C949C179C0160E971E05D
:101920000E943F26892B79F0C90183709927892B62
:1019300061F4C90164E670E00E943F269C0181E0E9
:10194000232B21F402C081E0089580E008952F92B6
:101950003F924F925F926F927F928F929F92AF923F
:10196000BF92CF92DF92EF92FF920F931F93CF938C
:10197000DF93CDB7DEB767970FB6F894DEBF0FBE23
:10198000CDBF2CE0E0E5F1E0AE014F5F5F4F1A0103
:10199000DA0101900D922A95E1F7DC012C91220FDA
:1019A0002056322F330F330F230F11963C9111978E
:1019B0003153230F2D8713962C911397022E000C71
:1019C000330B205331096AE0629FA001639F500DE1
:1019D00011241496CC900C2C000CDD08B0E3CB1A2B
:1019E000D108C40ED51E860101501109FC012681C3
:1019F000022E000C330B20533109E8EEF3E02E9F4A
:101A0000A0012F9F500D3E9F500D1124DC01179611
:101A10002C911797022E000C330B2053310974E6DA
:101A2000729F7001739FF00C1124E40EF51E18963E
:101A30004C911897042E000C550B40535109649F8C
:101A40009001659F300D1124E20EF31E19962C9122
:101A50001997F701E20FF11D27FDFA95AF015850D4
:101A60007A011B962C911B97220F2056322F330F91
:101A7000330F230F1C963C911C973053230F298B57
:101A80001E962C911E97220F2056322F330F330FA4
:101A9000230F1F963C911F973053230F2A8B51968B
:101AA0002C915197220F2056322F330F330F230FD3
:101AB00052968C918053280F2B8BCA010E948D0C5B
:101AC000882321F05D85523008F08601C70160E966
:101AD00071E00E943F26FC01DB0120E839E540E689
:101AE00050EF0E94C4262B013C01CF0164E670E058
:101AF0000E943F26FC01DB0120E032EC47E15CEB79
:101B00000E94C4264B015C01DF01B695A795B695EE
:101B1000A79520E83FE146E857E00E94C4266B0104
:101B20007C01DF01A370BB2720E833E341EE51E0E5
:101B30000E94C4266C8B7D8B8E8B9F8BF1018E2F28
:101B400082199D85891720F48191080F111DF7CF07
:101B5000A9892A2F30E0A0E1BEE00E94B5266D875A
:101B60007E878F87988BBA892B2F30E0ACE3B0E06B
:101B70000E94B5262D853E854F855889260F371F33
:101B8000481F591FDA01C9013B89830F911DA11D0F
:101B9000B11D480E591E6A1E7B1E840C951CA61C86
:101BA000B71CC80CD91CEA1CFB1C8C899D89AE890A
:101BB000BF89C80ED91EEA1EFB1ED80120E831E5F8
:101BC00041E050E00E94C426DC01CB018C0D9D1D3C
:101BD000AE1DBF1D8093570590935805A0935905DE
:101BE000B0935A0567960FB6F894DEBF0FBECDBF0F
:101BF000DF91CF911F910F91FF90EF90DF90CF90E9
:101C0000BF90AF909F908F907F906F905F904F901C
:101C10003F902F900C949C17EF92FF920F931F937D
:101C2000CF93DF93CDB7DEB768970FB6F894DEBFDA
:101C30000FBECDBF7B012CE0E0E5F1E0DE011D969B
:101C400001900D922A95E1F78E010F5F1F4F2CE056
:101C5000F80111922A95E9F70E948D0C8A83DE0122
:101C60001D9680E0F701408151819D91F8012191FD
:101C70008F0130E0290F311D4217530740F0421BFE
:101C8000530BF701518340838F5F8C3059F768966F
:101C90000FB6F894DEBF0FBECDBFDF91CF911F917D
:101CA0000F91FF90EF9008954F925F926F927F9205
:101CB0008F929F92AF92BF92CF92DF92EF92FF925C
:101CC000CF93DF9300D0CDB7DEB72B013C0181E08D
:101CD00090E0A0E0B0E020E8421629E5520620E6B8
:101CE000620620EF720618F480E090E0DC0120E943
:101CF00031E0829F5001839FB00C929FB00C112461
:101D000080E3A81A88EFB80AC12CD12C7601C394BD
:101D100020E8421629E5520620E6620620EF720608
:101D200018F4C12CD12C7601A701960160E879E561
:101D300080E690EF0E942F2673016201C61AD70A2F
:101D4000E80AF90A81E090E0A0E0B0E0C11422ECDA
:101D5000D20627E1E2062CEBF20618F480E090E0D0
:101D6000DC0144E6489F9001499F300D1124A20EEA
:101D7000B31E21E030E040E050E0C11482ECD80610
:101D800087E1E8068CEBF80618F420E030E0A901C2
:101D900060E072EC87E19CEB0E942F26A701960180
:101DA000261B370B480B590BCA01B90120E83FE14C
:101DB00046E857E00E946726220F331F220F331F89
:101DC000A20EB31E20E833E341EE51E00E946726E5
:101DD0007501E20EF31E20E831E541E050E00E947B
:101DE00067264B015C013A832983BE016F5F7F4FF9
:101DF000C7010E940C0ED82EC501B40120E13EE0BF
:101E000040E050E00E94672629013A014B015C0145
:101E100069EB73E084E291E00E94F7156D2D70E0AC
:101E20006F5F7F4F42E084E291E00E940A16698171
:101E30007A816F5F7F4F42E087E291E00E940A164D
:101E400044E0B7018AE291E00E940A1642E0B20142
:101E50008FE291E00E940A16C501B4012CE330E044
:101E600040E050E00E94672649015A016B017C0165
:101E700042E0B40182E391E00E940A1642E0B6011A
:101E800085E391E00E940A1684E291E00F900F90A2
:101E9000DF91CF91FF90EF90DF90CF90BF90AF9008
:101EA0009F908F907F906F905F904F9008950F93C9
:101EB0001F930E949017009157051091580520918B
:101EC000590530915A05600F711F821F931F1F9192
:101ED0000F910C94540EEF92FF920F931F93CF9398
:101EE000DF938C01EB017A01009721F0209711F02C
:101EF000452B29F48DEC93E00E94AE17FFCF62EEE4
:101F000073E00E94C618892B29F48DEC93E00E949F
:101F1000AE1744C06CEE73E0CE010E94C618892B48
:101F2000A1F365EF73E0C7010E94C618892B69F31E
:101F30004CE050E0B8018FE595E00E94CA15109280
:101F40006A054CE050E0BE018BE695E00E94CA15A0
:101F5000109276054CE050E0B70187E795E00E94CB
:101F6000CA1510928205F80180818E7F80938705C3
:101F700081818093880582818093890588818093FF
:101F80008A05898180938B058A8180938C05DF91F6
:101F9000CF911F910F91FF90EF900895FFCF0E9476
:101FA000C321882361F00E94CA218435C1F78DEFD7
:101FB00093E00E94AE178FEF90E00C9464000895B8
:101FC000EF92FF921F93CF93DF9300D000D000D009
:101FD000CDB7DEB7182F7A0186E0ECE5F1E0DE013F
:101FE000119601900D928A95E1F7FB0181818F771F
:101FF0008C8382818D8383818E83812F0E94161E24
:10200000BE016F5F7F4F812F0E94081EB701812F95
:102010000E94241EB701812F0E94DF1D62E8812FDC
:102020000E94B01D61E0812F0E94C21D81E02696B2
:102030000FB6F894DEBF0FBECDBFDF91CF911F91D9
:10204000FF90EF9008950E94DB1D91E0823209F02D
:1020500090E0892F08950E94DB1D882341F08C3188
:1020600031F091E08A3109F490E0892F089580E001
:1020700008950E94DB1D91E0843109F090E0892FE2
:1020800008950E94DB1D91E0873109F090E0892FCF
:1020900008950E94DB1D91E0811190E0892F089541
:1020A0000C944910CF93C82F60E10E94C21D6FEFBE
:1020B0008C2FCF910C94CD1D0F931F93CF93DF9353
:1020C000C82FD62F8A010E9452106D2F8C2F0E948C
:1020D000B01D0115110511F0B8010AC06091E804A6
:1020E0007091E9046F5F7F4F7093E9046093E80497
:1020F0008C2F0E94DF1D61E08C2F0E94C21D81E0A9
:10210000DF91CF911F910F910895AB0162E00C9484
:102110005C10AB0161E00C945C100C945210CF93F6
:10212000C82F0E94DB1D833131F462E08C2F0E94A6
:10213000C21D81E001C080E0CF9108950F931F93ED
:10214000CF93FB0190819F3F51F491819F3F91F488
:1021500092819F3F79F493819F3F61F41DC091115B
:1021600009C09181911106C09281911103C09381A0
:10217000992399F04115510579F08A01BF01C82FC3
:102180000E94161EB8018C2F0E94241E64E08C2F22
:102190000E94C21D91E001C090E0892FCF911F9154
:1021A0000F91089568E00C94C21DCF92DF92EF92D8
:1021B000FF920F931F93CF93C82F7B018A01413069
:1021C000584010F000E018E08C2F0E949F1E6C0118
:1021D0008C2F0E94DB1D873111F08C3121F4C01649
:1021E000D10690F302C000E010E0A801B7018C2FE7
:1021F0000E94401F60E28C2F0E94C21D8C2F0E9403
:10220000D21D84FD0BC08C2F0E94DB1D8111F6CFE7
:102210008C2F0E94521080E090E005C060E18C2F6E
:102220000E94CD1DC801CF911F910F91FF90EF909B
:10223000DF90CF900895CF92DF92EF92FF921F939D
:10224000CF93DF93182F6B017A010E94871FEC0157
:10225000009789F4812F0E94DB1D8431E9F08823E7
:10226000D9F0C1E0D0E08C3111F4C0E0D0E0D195DC
:10227000C195D10911C0E816F9060CF4E7011C1646
:102280001D0654F420E0AE01B601812F0E9401200A
:1022900060E4812F0E94C21DCE01DF91CF911F917A
:1022A000FF90EF90DF90CF9008950C94871F0C94CF
:1022B000871F21E041E050E00E94012081E090E092
:1022C0000895CF92DF92EF92FF920F931F93CF93D7
:1022D000F9019081911109C09181911106C09281FB
:1022E000911103C093819923A1F10115110589F181
:1022F0007A014130584018F0E12C98E0F92EE114B1
:10230000F10439F16B01C82FBF010E94161EB801FC
:102310008C2F0E94241EA701B6018C2F0E94401F03
:1023200060E28C2F0E94C21D8C2F0E94D21D84FD62
:102330000AC08C2F0E94D21D83FFF6CF68E18C2F3C
:102340000E94CD1D06C060E18C2F0E94CD1DC701EB
:1023500002C080E090E0CF911F910F91FF90EF902D
:10236000DF90CF900895EF92FF921F93CF93DF936A
:102370004115510589F0EA017B01182F0E94871F42
:102380008C179D0708F4EC0120E0AE01B701812F06
:102390000E940120CE0102C080E090E0DF91CF9149
:1023A0001F91FF90EF9008958F929F92BF92CF92CE
:1023B000DF92EF92FF920F931F93CF93DF93CDB7EE
:1023C000DEB728970FB6F894DEBF0FBECDBF452B02
:1023D00009F47EC049016B01B82E0E94B41F7C0134
:1023E0008B2D0E94B51D8770833059F1843009F41C
:1023F00045C0823009F065C028E030E0AE014F5F93
:102400005F4FB7018B2D0E94541C88E0E80EF11C31
:102410008981F40180838A8181838B8182838C818D
:1024200083838D8190E0982F88272E81820F911DC4
:10243000F801918380830F8110E0102F0027888599
:102440001AC026E030E0AE014F5F5F4FB7018B2D21
:102450000E94541CF6E0EF0EF11C8981F401808388
:102460008A8181838B8182838C8183830D8110E0BB
:10247000102F00278E81080F111D16C022E030E0BA
:10248000AE014F5F5F4FB7018B2D0E94541CF2E0ED
:10249000EF0EF11C098110E0902F88270A8110E0CF
:1024A00002501109080F191F9801A601B7018B2DC1
:1024B0000E94541CB701600F711F8B2D0E94A31F37
:1024C00002C000E010E060E48B2D0E94C21D02C03B
:1024D00000E010E0C80128960FB6F894DEBF0FBEEA
:1024E000CDBFDF91CF911F910F91FF90EF90DF90C3
:1024F000CF90BF909F908F9008951F93CF93DF93BD
:10250000182FEA014130584018F42097F9F002C022
:10251000C0E0D8E0AE01812F0E94401F60E2812F11
:102520000E94C21D812F0E94D21D84FD09C0812FEF
:102530000E94D21D83FFF6CF812F0E94521006C049
:1025400060E1812F0E94CD1DCE0102C080E090E0AD
:10255000DF91CF911F910895CF92DF92EF92FF927A
:102560001F93CF93DF93182F7B016A01E9010E942B
:102570009F1E8C179D0720F4812F0E949F1EEC0147
:102580009E01A601B701812F0E94F51ECE01DF91A9
:10259000CF911F91FF90EF90DF90CF9008951F9300
:1025A000CF93DF93182FEB01CB010E940116AC01F2
:1025B000BE01812FDF91CF911F910C94D510CF9345
:1025C000DF931F92CDB7DEB7698341E050E0BE01D3
:1025D0006F5F7F4F0E94D5100F90DF91CF910895CC
:1025E0000F931F93CF93C82F8B0162E20E94DF12DB
:1025F000B8018C2F0E94CF1262E28C2FCF911F91D5
:102600000F910C94DF12CF93C82FCB01BA010E9417
:10261000540EFC011286BC018C2FCF910C94F01249
:10262000CF93DF93D82FC62F70E084E07595679520
:102630008A95E1F76A3010F4605D01C0695C8D2F06
:102640000E94DF126C2F6F706A3010F0695C01C05D
:10265000605D8D2FDF91CF910C94DF12EF92FF928E
:102660000F931F93CF93C82F7B0162E20E94DF126A
:10267000F70161918F018C2F0E941013F6E0EF0E8D
:10268000F11C6AE38C2F0E94DF12F80161918F0127
:102690008C2F0E9410130E151F0599F762E28C2FE4
:1026A000CF911F910F91FF90EF900C94DF12CF9379
:1026B000DF93C82FD62F672F0E9410136D2F8C2FFA
:1026C000DF91CF910C9410132F923F924F925F9213
:1026D0006F927F928F929F92AF92BF92CF92DF9232
:1026E000EF92FF920F931F93CF93DF93CDB7DEB797
:1026F00062970FB6F894DEBF0FBECDBF782E7B0178
:1027000077FF08C0F194E194F10881E090E0998BA3
:10271000888B02C0198A188AFE0131961F018E012A
:10272000055F1F4F6F0188248394912CA12CB12C3D
:10273000AAE0B0E09401A5010E94C4266A8B472E4E
:10274000582E692EB7010F2C000C880B990B2A8983
:10275000342D452D562D0E9489269401A5010E94F5
:102760008926F60121936F01E21AF10827FDF394FF
:102770008A88942CA52CB62C0E171F07C9F68889B9
:102780009989892B21F06DE2872D0E94DF1280E06C
:1027900090E0F80162918F01611105C0009719F472
:1027A0002E163F0641F4605DF8016083872D0E947C
:1027B000DF1281E090E02016310659F762960FB6DD
:1027C000F894DEBF0FBECDBFDF91CF911F910F9167
:1027D000FF90EF90DF90CF90BF90AF909F908F9041
:1027E0007F906F905F904F903F902F9008950F9340
:1027F0001F93CF93FB019081911109C09181911199
:1028000006C09281911103C09381992379F04115FB
:10281000510561F08A01BF01C82F0E94161EB80140
:102820008C2F0E94241E81E090E002C080E090E0A6
:10283000CF911F910F910895CF93C82F60E20E940E
:10284000C21D8C2F0E94D21D84FD0CC08C2F0E94B3
:10285000D21D83FFF6CF68E18C2F0E94CD1D80E052
:1028600090E006C060E18C2F0E94CD1D81E090E0D9
:10287000CF910895EF92FF920F931F93CF93DF9321
:102880001F92CDB7DEB7182FE12CF12C812F0E94BB
:10289000871FE816F90688F401E0970141E050E04F
:1028A000BE016F5F7F4F812F0E94CC1F89818A30CC
:1028B00031F08FEFE81AF80AE9CF80E001C081E03B
:1028C0000F90DF91CF911F910F91FF90EF9008959E
:1028D0001F93CF93DF931F92CDB7DEB7182F0E94BF
:1028E000871F892B89F021E041E050E0BE016F5F36
:1028F0007F4F812F0E940120998181E09D3029F036
:102900009A3019F080E001C081E00F90DF91CF9103
:102910001F9108958F929F92AF92BF92CF92DF92B4
:10292000EF92FF920F931F93CF93DF931F92CDB738
:10293000DEB7182F5B010E94871F7C01C5010E9432
:102940000116E816F90668F175016701CA18DB0877
:102950004701F7018081882399F001E0960141E069
:1029600050E0BE016F5F7F4F812F0E94CC1F8FEF21
:10297000E81AF80AF40190818981981731F311C09F
:10298000C114D10461F041E050E0BE016F5F7F4FA0
:10299000812F0E941B11F1E0CF1AD108F1CF81E005
:1029A00001C080E00F90DF91CF911F910F91FF90B8
:1029B000EF90DF90CF90BF90AF909F908F90089551
:1029C0001F93CF93DF931F92CDB7DEB7182F812FC0
:1029D0000E94871F892BC1F141E050E0BE016F5F6B
:1029E0007F4F812F0E941B1189818D30D1F4812F5F
:1029F0000E94871F892B59F321E041E050E0BE017E
:102A00006F5F7F4F812F0E94012089818A30E1F41E
:102A100041E050E0BE016F5F7F4F812F0E941B118C
:102A200013C08A30A1F6812F0E94871F892B79F26B
:102A300021E041E050E0BE016F5F7F4F812F0E9497
:102A4000012089818D3021F30F90DF91CF911F916B
:102A50000895BF92CF92DF92EF92FF920F931F9350
:102A6000CF93DF931F92CDB7DEB7C82E8B01FB014A
:102A7000118210820E94871F892B09F451C0D12C2A
:102A8000EE24E394F12C2AE0B22E8C2D0E94871FB5
:102A9000892BB9F121E041E050E0BE016F5F7F4F2B
:102AA0008C2D0E94012089818D3231F4D11038C0E3
:102AB000EE24EA94FE2C1CC090ED980F9A3090F40E
:102AC000F80140815181B49E9001B59E300D1124D2
:102AD000082E000C990BC097820F931F918380835F
:102AE000D39406C08A3069F08D3059F0803249F0B5
:102AF00041E050E0BE016F5F7F4F8C2D0E941B11A3
:102B0000C4CFF801208131812E9DC0012F9D900DF1
:102B10003E9D900D11249183808381E0D11001C0EE
:102B200080E00F90DF91CF911F910F91FF90EF9078
:102B3000DF90CF90BF9008959FB7F894229B2A9A78
:102B4000229A259A239A2D988CB580618CBD8CB5DC
:102B500080648CBD1092EA049FBF08958091EA04BE
:102B600008959091EA04911109C09FB7F8948CBD23
:102B70006DBD81E08093EA049FBF2A9808958EBDC1
:102B800000000DB407FEFDCF8EB508952A9A10926D
:102B9000EA040895FB01480F591F8417950729F08F
:102BA0002191DC012D93CD01F8CF0895480F591FD5
:102BB0008417950721F0FC016193CF01F9CF0895A7
:102BC000FB01480F591F8417950759F0DC013D910F
:102BD000CD012191321740F02317A8F781E090E052
:102BE000089580E090E008958FEF9FEF0895FC0135
:102BF000DB018D91BD01882311F08193F9CF108203
:102C00000895FC019F01281B390B41914111FACF16
:102C1000C90108959F92AF92BF92CF92DF92EF9237
:102C2000FF920F931F93CF93DF9300D000D01F929A
:102C3000CDB7DEB7FC016B019E012F5F3F4F8E01C8
:102C40000A5F1F4FEE24E394F12C9AE0992E9E9C8C
:102C500050019F9CB00C1124C601B5010E943F2673
:102C6000B7010E943F26D9016D939D01C61AD10874
:102C700067FDD3947501A017B10749F760E070E0D4
:102C800084E090E050E0D8012E918D01211105C023
:102C90006115710511F4009741F4841795072CF420
:102CA000205D219361E070E004C0841795070CF467
:102CB0003196019740F70F900F900F900F900F9063
:102CC000DF91CF911F910F91FF90EF90DF90CF9008
:102CD000BF90AF909F90089588EC80937C0086E829
:102CE00080937A00089580917A00829586958695E2
:102CF000837091E08927817090E00895EAE7F0E021
:102D0000808180648083089580917800209179008B
:102D100030E0322F2227A901330F660B770B9A017F
:102D2000AB01282BA5E6B0E00E94C42624E630E0E3
:102D300040E050E00E948926DA01C90181519140AA
:102D4000A109B109089508950F931F93E091EB0431
:102D5000F091EC04E930F10508F09BC0E55CFF4F11
:102D60000C94A8268417950764F087E094E00E94ED
:102D7000110986E00E94D50A86E090E00E94640076
:102D800025C0081719070CF48EC087E094E00E9454
:102D9000110988E00E94D50A88E090E00E94640052
:102DA0000BC0841795070CF7081719070CF47BC0A4
:102DB00087E094E00E94110986E090E065C08417E6
:102DC0009507FCF287E094E00E94110983E090E00F
:102DD0005BC08617970764F089E094E00E941109B0
:102DE00085E00E94D50A85E090E00E94640012C050
:102DF000841795070CF057C08DE993E00E941109E4
:102E000082E090E041C08617970794F389E094E050
:102E10000E94110985E090E037C0861797070CF0F3
:102E200042C087E094E00E94110984E090E02CC049
:102E30002817390764F089E094E00E94110987E0BF
:102E40000E94D50A87E090E00E94640011C0081734
:102E500019074CF58DE993E00E94110981E090E09B
:102E600013C0281739079CF389E094E00E941109E8
:102E700088E090E009C028173907ACF487E094E0B7
:102E80000E94110987E090E09093EC048093EB049A
:102E90000AC01092EC041092EB048DE993E01F91AC
:102EA0000F910C9411091F910F9108951092EC0449
:102EB0001092EB0408951F920F920FB60F921124F7
:102EC0008F939F93AF93BF938091ED049091EE0405
:102ED000A091EF04B091F0040196A11DB11D809363
:102EE000ED049093EE04A093EF04B093F004BF912F
:102EF000AF919F918F910F900FBE0F901F901895DB
:102F000083E294EF90938900809388001092800070
:102F10008CE080938100789482E080936F00089524
:102F20002FB7F8946091ED047091EE048091EF0456
:102F30009091F0042FBF08958FB7F8941092ED048C
:102F40001092EE041092EF041092F0048FBF0895D7
:102F50000E945520789408950C941922CF93DF9302
:102F6000EC018991882319F00E941922FACFDF9190
:102F7000CF910895CF93C82F90E024E09595879541
:102F80002A95E1F78A3010F4805D01C0895C0E94C7
:102F900019228C2F8F708A3010F0895C01C0805DFF
:102FA000CF910C941922CF93C82F892F0E94BA1762
:102FB0008C2FCF910C94BA172F923F924F925F9221
:102FC0006F927F928F929F92AF92BF92CF92DF9239
:102FD000EF92FF920F931F93CF93DF93CDB7DEB79E
:102FE00063970FB6F894DEBF0FBECDBF6B017C01B7
:102FF00097FF0DC0F094E094D094C094C11CD11CF4
:10300000E11CF11C81E090E09B8B8A8B02C01B8A43
:103010001A8AFE0131965F018E01055F1F4FF98B01
:10302000E88B66246394712C812C912CAAE0B0E08B
:103030009301A4010E94C4261B012C01C701B60103
:103040009101A2010E9489269301A4010E94892670
:10305000E889F9892193F98BE88B822F220F990B4C
:10306000AA0BBB0BC81AD90AEA0AFB0A31014201B2
:103070000E171F07D9F68A899B89892B19F08DE2D3
:103080000E94192220E030E0F80182918F01811125
:1030900006C02115310519F4EA15FB0529F4805DF8
:1030A0000E94192221E030E00A151B0569F763969A
:1030B0000FB6F894DEBF0FBECDBFDF91CF911F9149
:1030C0000F91FF90EF90DF90CF90BF90AF909F90C7
:1030D0008F907F906F905F904F903F902F900895CA
:1030E0000C94EF210C941622FF920F931F93CF9311
:1030F000DF93EC01062FF72E18820E94EF2110E0DB
:103100008823D9F00E94C3218823B9F00E94CA21E4
:10311000803210F089931F5FE02FFF2D482F50E081
:103120002191222339F0022E000C330B4217530752
:10313000B9F702C08D3051F71882812FDF91CF91FE
:103140001F910F91FF9008950F931F93CF93DF93DB
:103150008C01EC01699170E080E090E00E94DC1746
:103160000C5F1F4F8EE20E941922699170E080E08F
:1031700090E00E94DC17C017D107A1F786EB93E01F
:10318000DF91CF911F910F910C94AE17DC01FB01E1
:103190009D91992341F08191891784F09817C4F784
:1031A0008FEF9FEF089581E090E02081211102C010
:1031B00080E090E0919581959109089581E090E0FB
:1031C0000895DC0190E020E061507109422F50E049
:1031D000FD01E40FF51F4617570720F48081980F73
:1031E0002F5FF4CF91959083089561157105810546
:1031F000910541F060933C0170933D0180933E0145
:1032000090933F01211531054105510541F020936F
:1032100038013093390140933A0150933B010895AE
:103220004F925F926F927F928F929F92AF92BF92D6
:10323000CF92DF92EF92FF92CF93DF9300D000D036
:10324000CDB7DEB72B013C0129833A834B835C83E6
:10325000C0903801D0903901E0903A01F0903B01E4
:10326000A701960144275527A9E6B0E90E94C42684
:103270006701EE24FF244B015C018C0C9D1CAE1CED
:10328000BF1C8092380190923901A0923A01B0920D
:103290003B01C0903C01D0903D01E0903E01F09098
:1032A0003F01A701960144275527A0E5B6E40E94F7
:1032B000C4266701EE24FF24C60ED71EE81EF91EA1
:1032C000C0923C01D0923D01E0923E01F0923F015C
:1032D000D40199278827BC01CD016C0D7D1D8E1D61
:1032E0009F1D29813A814B815C812419350946094A
:1032F00057090E946726CB01840D951D0F900F90F2
:103300000F900F90DF91CF91FF90EF90DF90CF90D3
:10331000BF90AF909F908F907F906F905F904F90F5
:103320000895CF93DB01FC0120812D3221F4019619
:103330006FEF7FEF02C061E070E011961C921E9269
:10334000FC01CAE020818D919C9111972223C1F04C
:10335000C89FA001C99F500D112411965C934E93F4
:10336000219180ED820F8A30B8F4022E000C330BCD
:1033700020533109240F351F11963C932E93E2CF31
:10338000869F9001879F300D969F300D11242D93BD
:103390003C9381E090E002C080E090E0CF910895FE
:1033A00080915B05833561F480915C05853441F43F
:1033B00081E090E020915D05223521F080E002C09F
:1033C00080E090E0EBE5F5E020E03191230F35E07F
:1033D000E339F307D1F7222311F080E090E008955C
:1033E000CF93DF93CDB7DEB7E7970FB6F894DEBF84
:1033F0000FBECDBF87E3E2E6F1E0DE01119601905A
:103400000D928A95E1F767E370E0CE0101960E9484
:10341000E11847E3BE016F5F7F4F80E090E00E94BC
:10342000B708E7960FB6F894DEBF0FBECDBFDF91A9
:10343000CF9108950E940009892BE1F747E36BE5DE
:1034400075E080E090E00E94EB080E94D019892B83
:1034500049F40E94F01947E36BE575E080E090E0E5
:103460000C94EB080895AF92BF92DF92EF92FF9217
:103470000F931F93CF93DF93EC01D62EE72E8A0193
:103480008091F1048333F9F4A62EB72E7E01E40E69
:10349000F51ECE15DF0509F45EC062E080E50E94EE
:1034A000B11580EF0E94BF158D2F0E94BF158C2F84
:1034B0000E94BF152196F50181915F010E94BF1501
:1034C0000E94C615E6CF62E080E50E94B115C115E5
:1034D000F4E0DF0718F4FC2EC4E00DC0C11528E0AD
:1034E000D20758F4FC2ED45033E0D695C7953A95C0
:1034F000E1F7C07ECC6080E018C0CE019770892FC4
:10350000FC2EC115E0E6DE0740F426E0D695C7950F
:103510002A95E1F7C07EC46108C0D05696E0D695E2
:10352000C7959A95E1F7C07ECC610E94BF158F2D9B
:103530000E94BF158C2F0E94BF15CD2DDE2D7E0160
:10354000E00EF11ECE15DF0521F089910E94BF1516
:10355000F9CF0E94C615C801DF91CF911F910F913D
:10356000FF90EF90DF90BF90AF900895CF93DF93DF
:103570001F92CDB7DEB7698341E050E0BE016F5FB7
:103580007F4F0E94331A0F90DF91CF9108958F9251
:103590009F92AF92BF92CF92DF92EF92FF920F93E2
:1035A0001F93CF93DF93EC018B016A017901FA013C
:1035B000608181E090E00E94B61AF601618182E0AC
:1035C00090E00E94B61AF601628183E090E00E94CA
:1035D000B61AF601638184E090E00E94B61A0E9458
:1035E00057024B015C01F2E08F0E911CA11CB11C33
:1035F0000E945702681579058A059B05C9F76881FD
:1036000089E090E00E94B61A69818AE090E00E9409
:10361000B61A6A818BE090E00E94B61A6B818CE04A
:1036200090E00E94B61A6C818DE090E00E94B61A7C
:103630006D818EE090E00E94B61A0E9457024B0105
:103640005C0122E0820E911CA11CB11C0E94570259
:10365000681579058A059B05C9F7F701608185E042
:1036600090E00E94B61AF701618186E090E00E9426
:10367000B61AF701628187E090E00E94B61AF7015E
:10368000638188E090E00E94B61A0E9457026B01A5
:103690007C01F2E0CF0ED11CE11CF11C0E9457020C
:1036A0006C157D058E059F05C9F7F80160818FE0D7
:1036B00090E00E94B61AF801618180E190E00E94DA
:1036C000B61AF801628181E190E00E94B61AF80111
:1036D000638182E190E00E94B61A0E9457026B015A
:1036E0007C01F2E0CF0ED11CE11CF11C0E945702BC
:1036F0006C157D058E059F05C9F765E58AE190E0AB
:103700000E94B61A65E58BE190E00E94B61A80E04F
:10371000DF91CF911F910F91FF90EF90DF90CF90AD
:10372000BF90AF909F908F900895AF92BF92DF921D
:10373000EF92FF920F931F93CF93DF93EC01D62E5E
:10374000E72E8A018091F104833301F5A62EB72E6E
:103750007E01E40EF51ECE15DF0509F460C062E0BF
:1037600080E50E94B1158FE00E94BF158D2F0E9449
:10377000BF158C2F0E94BF15219680E00E94BF15B7
:10378000F50181935F010E94C615E5CF62E080E5F7
:103790000E94B115C115F4E0DF0718F4FC2EC0E05B
:1037A0000DC0C11528E0D20758F4FC2ED45033E0E8
:1037B000D695C7953A95E1F7C07EC86080E018C0FD
:1037C000CE019770892FFC2EC115E0E6DE0740F48C
:1037D00026E0D695C7952A95E1F7C07EC06108C05E
:1037E000D05696E0D695C7959A95E1F7C07EC86108
:1037F0000E94BF158F2D0E94BF158C2F0E94BF15F0
:10380000CD2DDE2D7E01E00EF11ECE15DF0529F057
:1038100080E00E94BF158993F8CF0E94C615C801A9
:10382000DF91CF911F910F91FF90EF90DF90BF90AC
:10383000AF900895CF93DF931F92CDB7DEB741E0ED
:1038400050E0BE016F5F7F4F0E94951B89810F90F2
:10385000DF91CF91089590E00496982F8827860FE6
:10386000971F0C941A1C9B0190E00496982F8827B0
:10387000642F820F931F0E94B61A0895FB01BA01AC
:1038800090E00496982F8827A9018E0F9F1F0C9413
:10389000951BFB01BA0190E00496982F8827A90197
:1038A0008E0F9F1F0C94331AAF92BF92CF92DF926C
:1038B000EF92FF920F931F93CF93DF9300D0CDB77A
:1038C000DEB77A836983BA01A901A981BA81B77089
:1038D000E82FF0E0EE0FFF1FE756FE4FE080F1808B
:1038E000CD018E0D9F1D9D01240F351F21303840C5
:1038F00080F06A015B0100E018E00A1B1B0BA801C5
:103900000E94951BA601401B510BB501600F711F52
:10391000C7010F900F90DF91CF911F910F91FF90F2
:10392000EF90DF90CF90BF90AF900C94951B682FD5
:1039300080E090E00C94B61A80E090E00C941A1CA1
:10394000CF92DF92EF92FF9283E38093F10460E8DD
:1039500080E090E00E94B61A0E9457026B017C0141
:1039600022E0C20ED11CE11CF11C0E9457026C1512
:103970007D058E059F05C9F780E10E94971C0E9476
:103980009C1C803121F01092F10480E00FC082E194
:103990000E94971C0E949C1C8231A9F780E00E9423
:1039A000971C0E949C1C8111EECF81E0FF90EF904C
:1039B000DF90CF900895CF92DF92EF92FF9287E34E
:1039C0008093F10460E880E090E00E94B61A0E94C3
:1039D00057026B017C0122E0C20ED11CE11CF11CDC
:1039E0000E9457026C157D058E059F05C9F788E07A
:1039F0000E94971C0E949C1C883021F01092F104B8
:103A000080E00FC080E10E94971C0E949C1C8031C6
:103A1000A9F780E00E94971C0E949C1C8111EECFA8
:103A200081E0FF90EF90DF90CF9008950E94A01C5E
:103A3000811102C00C94DB1C089544E050E0BC01ED
:103A400081E090E00C94331A44E050E0BC0181E046
:103A500090E00C94951B44E050E0BC0185E090E0C0
:103A60000C94331A44E050E0BC0185E090E00C94E3
:103A7000951B46E050E0BC0189E090E00C94331ABD
:103A800046E050E0BC0189E090E00C94951B44E0D6
:103A900050E0BC018FE090E00C94331A44E050E019
:103AA000BC018FE090E00C94951B682F85E190E0BD
:103AB0000C94B61A85E190E00C941A1CCF93C82F91
:103AC000692F87E190E00E94B61A6C2F88E190E0A0
:103AD000CF910C94B61ACF93DF9387E190E00E94C8
:103AE0001A1CC82FD0E0DC2FCC2788E190E00E9480
:103AF0001A1C9E01280F311DC901DF91CF91089535
:103B000044E050E0BC018AE290E00C94331A44E0B7
:103B100050E0BC018AE290E00C94951BCF93C82F33
:103B2000692F8EE290E00E94B61A6C2F8FE290E02F
:103B3000CF910C94B61ACF93DF938EE290E00E945F
:103B40001A1CC82FD0E0DC2FCC278FE290E00E9417
:103B50001A1C9E01280F311DC901DF91CF910895D4
:103B6000462F60E070E00C94331C60E070E00C9431
:103B70002B1C462F61E070E00C94331C61E070E078
:103B80000C942B1CCF93C82F0E94B91D8C2F0E9420
:103B9000BE1D8111FBCFCF910895462F62E070E0EA
:103BA0000C94331C62E070E00C942B1C462F63E0F5
:103BB00070E00C94331C63E070E00C942B1CCF93EA
:103BC000DF93C82FD62F472F64E070E00E94331C8C
:103BD0004D2F65E070E08C2FDF91CF910C94331C5A
:103BE0001F93CF93DF93182F64E070E00E942B1C8B
:103BF000C82FD0E065E070E0812F0E942B1CDC2FE5
:103C0000CC279E01282BC901DF91CF911F910895E8
:103C1000AB0126E030E066E070E00C94491CAB019B
:103C200026E030E066E070E00C943E1CAB0124E03E
:103C300030E06CE070E00C94491CAB0124E030E013
:103C40006CE070E00C943E1CCF93DF93C82FD62F0E
:103C5000472F60E170E00E94331C4D2F61E170E05E
:103C60008C2FDF91CF910C94331C1F93CF93DF9354
:103C7000182F60E170E00E942B1CC82FD0E061E19A
:103C800070E0812F0E942B1CDC2FCC279E01282B5B
:103C9000C901DF91CF911F910895CF93DF93C82F72
:103CA000D62F472F62E170E00E94331C4D2F63E155
:103CB00070E08C2FDF91CF910C94331C1F93CF9326
:103CC000DF93182F62E170E00E942B1CC82FD0E018
:103CD00063E170E0812F0E942B1CDC2FCC279E011A
:103CE000282BC901DF91CF911F910895CF93DF93C6
:103CF000C82FD62F472F60E270E00E94331C4D2F53
:103D000061E270E08C2FDF91CF910C94331C1F93F4
:103D1000CF93DF93182F60E270E00E942B1CC82F16
:103D2000D0E061E270E0812F0E942B1CDC2FCC27B9
:103D30009E01282BC901DF91CF911F910895FF9219
:103D40000F931F93CF93DF93F82EC0E0D0E08F2D19
:103D50000E94871E8C01892B21F08F2D0E94871EC7
:103D6000EC01C017D10799F7CE01DF91CF911F91D8
:103D70000F91FF900895CF93DF93C82FD62F472F31
:103D800062E270E00E94331C4D2F63E270E08C2FE2
:103D9000DF91CF910C94331C1F93CF93DF93182F97
:103DA00062E270E00E942B1CC82FD0E063E270E05A
:103DB000812F0E942B1CDC2FCC279E01282BC901B0
:103DC000DF91CF911F910895CF93DF93C82FD62F06
:103DD000472F64E270E00E94331C4D2F65E270E0D3
:103DE0008C2FDF91CF910C94331C9F92AF92BF9296
:103DF000CF92DF92EF92FF920F931F93CF93DF93B7
:103E0000982E7B016A0189010E94CC1EE80EF91EE2
:103E100097013770E92DF0E0EE0FFF1FEF55FE4FD1
:103E2000A080B180C9018A0D9B1DA901400F511FBF
:103E30004130584080F0C0E0D8E0C21BD30BAE0147
:103E4000B6010E94331AA8014C1B5D0BB6016C0F22
:103E50007D1FC50102C0A801B6010E94331AB70137
:103E6000600F711F892DDF91CF911F910F91FF90EE
:103E7000EF90DF90CF90BF90AF909F900C94E41E96
:103E80009A01AB0160E070E00C94F51E1F93CF9394
:103E9000DF93182F64E270E00E942B1CC82FD0E043
:103EA00065E270E0812F0E942B1CDC2FCC279E0145
:103EB000282BC901DF91CF911F910895CF93DF93F4
:103EC000C82FD62F472F66E270E00E94331C4D2F7B
:103ED00067E270E08C2FDF91CF910C94331C1F931D
:103EE000CF93DF93182F66E270E00E942B1CC82F3F
:103EF000D0E067E270E0812F0E942B1CDC2FCC27E2
:103F00009E01282BC901DF91CF911F910895FF9247
:103F10000F931F93CF93DF93F82EC0E0D0E08F2D47
:103F20000E946F1F8C01892B21F08F2D0E946F1F23
:103F3000EC01C017D10799F7CE01DF91CF911F9106
:103F40000F91FF900895CF93DF93C82FD62F472F5F
:103F500068E270E00E94331C4D2F69E270E08C2F04
:103F6000DF91CF910C94331C1F93CF93DF93182FC5
:103F700068E270E00E942B1CC82FD0E069E270E07C
:103F8000812F0E942B1CDC2FCC279E01282BC901DE
:103F9000DF91CF911F910895CF92DF92EF92FF9220
:103FA0000F931F93CF93DF93182F6B017A01E901D1
:103FB0000E94B41F8C0F9D1FEC01D7709701A601C2
:103FC000BE01812F0E94541C011112C0BE016E0D52
:103FD0007F1D812F0E94A31F60E4812FDF91CF916D
:103FE0001F910F91FF90EF90DF90CF900C94C21D26
:103FF000DF91CF911F910F91FF90EF90DF90CF90C5
:1040000008950F93022F20E030E00E94CC1F0F9103
:104010000895CF93DF93C82FD62F472F6AE270E021
:104020000E94331C4D2F6BE270E08C2FDF91CF91FB
:104030000C94331C1F93CF93DF93182F6AE270E028
:104040000E942B1CC82FD0E06BE270E0812F0E94F1
:104050002B1CDC2FCC279E01282BC901DF91CF918F
:104060001F9108951F920F920FB60F9211240E9474
:104070000D0982E00E94D50A0E94A30A0E948D01C8
:10408000FBCF9FB7F894A895E0E6F0E080818861C7
:1040900080838FE480839FBF0895A89508958091C1
:1040A00060008B7080936000FFCF1092C00087E6A5
:1040B00090E09093C5008093C400E1ECF0E088E1CB
:1040C000808386E08093C2008081806A8083089527
:1040D0001F920F920FB60F9211242F933F938F933D
:1040E0009F93EF93FF938091F804882309F4F0C025
:1040F0008091C6009091F704992309F4E3C090EEF3
:10410000980F9F3518F08D3009F059C02091F404B4
:104110009091F50430E0291B3109215031092F73AA
:104120003327232B61F0E091F504F0E0EE56FA4FCF
:1041300080839091F5049F5F9F739093F504209185
:10414000F2049091F30430E0291B31092150310928
:104150002F733327232B89F0E091F304F0E0EE5224
:10416000FA4F80839091F3049F5F9F739093F304C1
:104170009091C10090629093C1008D3009F0C5C04C
:104180008091F2042091F30490E0821B9109019741
:104190008F739927892B69F0E091F304F0E0EE52D8
:1041A000FA4F8AE080838091F3048F5F8F7380934E
:1041B000F3048091F6048F5F8093F604A6C08830E4
:1041C00011F08F37C1F58091F5042091F40490E04F
:1041D000821B91098F739927892B09F496C0E0916E
:1041E000F504F0E0EE56FA4F80818091F50481509D
:1041F0008F738093F5048091F2042091F30490E092
:10420000821B910901978F739927892B09F47DC02F
:10421000E091F304F0E0EE52FA4F8FE78083809153
:10422000F3048F5F8F738093F3048091C1008062E9
:104230008093C1006AC0843009F067C08091F504A2
:104240002091F40490E0821B91098F739927892BA8
:1042500031F1E091F504F0E0EE56FA4F80818D30B7
:10426000F1F08091F4042091F50490E0821B910913
:1042700001978F739927892B91F0E091F504F0E075
:10428000EE56FA4F8DE080838091F5048F5F8F7337
:104290008093F5048091F6048F5F8093F6048091FB
:1042A000F4042091F50490E0821B910901978F732B
:1042B0009927892B51F1E091F504F0E0EE56FA4F81
:1042C00084E019C0833009F581E08093F7041DC0B4
:1042D0008091F4042091F50490E0821B91090197EC
:1042E0008F739927892B79F0E091F504F0E08091A4
:1042F000C600EE56FA4F80838091F5048F5F8F736E
:104300008093F50402C08091C600FF91EF919F91C8
:104310008F913F912F910F900FBE0F901F90189586
:104320001F920F920FB60F9211242F938F939F938A
:10433000EF93FF938091F3042091F20490E0821BAD
:1043400091098F739927892B79F0E091F204F0E0BD
:10435000EE52FA4F80818093C6008091F2048F5F05
:104360008F738093F20405C08091C1008F7D80938C
:10437000C100FF91EF919F918F912F910F900FBEF0
:104380000F901F9018958091F5049091F404891B6B
:104390008F7308958091F5042091F40490E0821BBE
:1043A00091098F739927892BC1F0E091F404F0E013
:1043B000EE56FA4F80819091F4049F5F9F73909323
:1043C000F4049091F804992349F08D3039F49091D8
:1043D000F60491509093F604089580E0089581E0EA
:1043E0008093F8048091F5042091F40490E0821BFE
:1043F00091098F739927892BB1F0E091F404F0E0D3
:10440000EE56FA4F8081843071F41092F704E091F7
:10441000F404F0E0EE56FA4F80818091F4048F5F4F
:104420008F738093F4048091F70408958091F604CB
:1044300008950FB607FE0EC02091F2049091F30488
:1044400030E0291B3109215031092F733327232BE9
:1044500099F30DC02091F2049091F30430E0291BF0
:104460003109215031092F733327232B61F0E0915B
:10447000F304F0E0EE52FA4F80838091F3048F5FF3
:104480008F738093F3048091C10080628093C10098
:1044900008951F93CF93DF93EC0180E011E0180F94
:1044A000FE01E80FF11D8081882321F00E9419226E
:1044B000812FF4CFDF91CF911F9108951F93CF9358
:1044C000DF93EC0180E011E0180FFE01E80FF11D11
:1044D0008491882321F00E941922812FF4CFDF914B
:1044E000CF911F910895CF93DF93CDB7DEB7299772
:1044F0000FB6F894DEBF0FBECDBF0E94A8170E9472
:1045000004090E941A1A0E945A010E94A8090E94D6
:104510007F0C0E949C150E946C160E94161D0E9422
:10452000A31649EA51E062EB71E089EB91E00E9449
:104530006B0F8091400190914101A0914201B09197
:1045400043018D839E83AF83B8879E012B5F3F4FCE
:10455000A901B90187E895E00E94C71A00EA1FE0A7
:1045600020E030E040E65AEE60E070E087E895E059
:104570000E94BB07892B91F381EC91E00E94AE175A
:104580000E9470020E94A4180E9473027C010E9483
:1045900076028C010E9470029701A801BC0187E895
:1045A00095E00E94C71A83E00E94D50A85E00E9428
:1045B000A00B84E00E94D50A0E94412080E00E9466
:1045C000D50A80E090E00E9464000E94CF0F0E9414
:1045D0007E1668E873E180E090E00E942D0285E09D
:1045E000E82EF12C94E0C92ED12C23E0A22EB12C80
:1045F00032E0832E912C66246394712C0E944D200E
:104600000E9423090E947316892BF1F00E948416E0
:10461000909311018093100100910A0510910B05F0
:104620002091080530910905409106055091070534
:1046300060910405709105050E94A41668EE73E070
:1046400080E090E00E942D0280E00E9449108823C3
:1046500061F060E97FE180E00E94891080E00E94C3
:104660008F101092FA041092F90480E00E94411019
:10467000882309F4EFC2E091F904F091FA04E730DD
:10468000F10508F0E2C2EC5CFF4F0C94A8266091A3
:104690000E0170910F0180E00E948A14882321F09E
:1046A0007092FA046092F90460910C0170910D010E
:1046B00080E00E948A14882329F09092FA04809264
:1046C000F9049CCF60910A0170910B0180E00E9477
:1046D0008A14882329F0B092FA04A092F9048ECFAC
:1046E000609108017091090180E00E948A1488237A
:1046F00009F484CFD092FA04C092F9047FCF0E94CB
:10470000430B90E09093FE048093FD0419821A827B
:104710001B821C821986609106017091070180E05E
:104720000E94CF12609100017091010180E00E940F
:10473000CF126BE780E00E94DF126CEC71E080E04A
:104740000E94F01260ED71E080E00E94CF1263EDF4
:1047500071E080E00E94F0126AE380E00E94DF12C4
:104760006FE575E080E00E94F0126CE280E00E944C
:10477000DF1269ED71E080E00E94F0126AE380E0F0
:104780000E94DF126BE675E080E00E94F0126CE29E
:1047900080E00E94DF1266EE71E080E00E94F0127D
:1047A0006AE380E00E94DF1267E775E080E00E9424
:1047B000F0126CE280E00E94DF1264EF71E080E0B2
:1047C0000E94F0126AE380E00E94DF1240918305AC
:1047D00050918405609185057091860580E00E9466
:1047E00003136CE280E00E94DF1265E072E080E07B
:1047F0000E94F0126AE380E00E94DF1267E875E031
:1048000080E00E942E136CE280E00E94DF1261E1E2
:1048100072E080E00E94F0126AE380E00E94DF1202
:104820006DE875E080E00E94F0126EE172E080E0D9
:104830000E94CF1261E272E080E00E94F0126AE30F
:1048400080E00E94DF12609104057091050580E010
:104850000E9464136CE280E00E94DF126AE272E060
:1048600080E00E94F0126AE380E00E94DF12609113
:1048700006057091070580E00E9464136CE280E0F9
:104880000E94DF1263E372E080E00E94F0126AE3AC
:1048900080E00E94DF12609108057091090580E0B8
:1048A0000E9464136CE280E00E94DF126CE372E00D
:1048B00080E00E94F0126AE380E00E94DF126091C3
:1048C0000A0570910B0580E00E9464136CE280E0A1
:1048D0000E94DF1265E472E080E00E94F0126AE359
:1048E00080E00E94DF12609110017091110180E060
:1048F0000E9464136CE280E00E94DF1261E572E0C6
:1049000080E00E94F0126AE380E00E94DF1267E517
:1049100072E080E00E94F0126EE172E080E00E949E
:10492000CF126EE573E080E00E94F0126EE572E057
:1049300080E00E94CF12212C312C21016091FD04D6
:104940007091FE0461507109072E000C880B990BC1
:104950009E01275F3F4FAE014F5F5F4F2616370620
:1049600048065906A0F5C201B1010E945C0B6BE735
:1049700080E00E94DF1261E672E080E00E94F012A7
:104980006AE380E00E94DF1249815A816B817C8159
:1049900080E00E9403136CE280E00E94DF126BE66D
:1049A00072E080E00E94F0126AE380E00E94DF1271
:1049B000698570E080E00E9464136CE280E00E94F0
:1049C000DF128FEF281A380A480A580AB7CF0E9418
:1049D0005C0B6BE780E00E94DF1261E672E080E032
:1049E0000E94F0126AE380E00E94DF1249815A813E
:1049F0006B817C8180E00E9403136CE280E00E9466
:104A0000DF126BE672E080E00E94F0126AE380E061
:104A10000E94DF12698570E080E00E94641361E704
:104A200072E06CC065E772E080E00E948A1488231F
:104A3000B1F0609104017091050180E00E94CF12F5
:104A4000609100017091010180E00E94CF121092EC
:104A5000FA041092F90480E00E94D210FFCF6CE7B4
:104A600072E080E00E948A148823B1F06091040112
:104A70007091050180E00E94CF1260910001709159
:104A8000010180E00E94CF121092FA041092F90402
:104A900080E00E94D21004C0F092FA04E092F9047F
:104AA00064E872E080E00E948A148823C9F16BEF09
:104AB00074E080E00E942915409106055091070599
:104AC0006091FB047091FC04461757070CF0BDC0C1
:104AD000709305056093040500910A0510910B057C
:104AE00020910805309109058091100190911101E4
:104AF0000E94A416609104017091050180E00E945B
:104B0000CF12609100017091010180E00E94CF12EC
:104B10001092FA041092F90480E00E94D2106ECD37
:104B20006EE872E080E00E948A148823F1F06BEF57
:104B300074E080E00E94291500910A0510910B0590
:104B40004091FB045091FC04041715070CF07DC044
:104B50006091040570910505461757070CF075C064
:104B60005093070540930605BBCF68E972E080E0EB
:104B70000E948A148823D1F06BEF74E080E00E94D9
:104B8000291500910A0510910B052091FB04309125
:104B9000FC04201731070CF058C03093090520930E
:104BA0000805409106055091070523C062EA72E0AE
:104BB00080E00E948A14882309F447C06BEF74E0F8
:104BC00080E00E9429152091080530910905009187
:104BD000FB041091FC0420173107BCF54091060539
:104BE000509107050417150784F510930B050093E2
:104BF0000A05609104057091050576CF0E94260B89
:104C000060910401709105010EC080E00E94E014E3
:104C100086E090E09093FA048093F904EFCC6091E1
:104C200002017091030180E00E94CF1260910001A7
:104C30007091010180E00E94CF1280E00E94D210AA
:104C40001092FA041092F904D9CCF092FA04E0928E
:104C5000F904D4CC0E946D0A0E947501CFCCDB010F
:104C60008F939F930E94C426BF91AF91A29F800D06
:104C7000911DA39F900DB29F900D11240895AA1B22
:104C8000BB1B51E107C0AA1FBB1FA617B70710F037
:104C9000A61BB70B881F991F5A95A9F78095909569
:104CA000BC01CD01089597FB072E16F4009407D0A0
:104CB00077FD09D00E943F2607FC05D03EF4909571
:104CC00081959F4F0895709561957F4F0895A1E25A
:104CD0001A2EAA1BBB1BFD010DC0AA1FBB1FEE1F76
:104CE000FF1FA217B307E407F50720F0A21BB30BC1
:104CF000E40BF50B661F771F881F991F1A9469F73D
:104D000060957095809590959B01AC01BD01CF0198
:104D10000895052E97FB1EF400940E94A02657FDCF
:104D200007D00E94672607FC03D04EF40C94A026FF
:104D300050954095309521953F4F4F4F5F4F0895C7
:104D400090958095709561957F4F8F4F9F4F0895F7
:104D5000EE0FFF1F0590F491E02D09946927962727
:104D600069277827872778270895A29FB001B39FE6
:104D7000C001A39F700D811D1124911DB29F700D64
:104D8000811D1124911D08950E94B526A59F900DA7
:104D9000B49F900DA49F800D911D11240895F89447
:024DA000FFCF43
:104DA200030B443100802500002D00040B44300029
:104DB200802500002D0002060024F400010C61741D
:084DC2006D65676133323800B2
:104DCA00B603AC02E00204034F03620376038903CD
:104DDA004B0041535500FF03FE030000010000C0D1
:104DEA00A801640030302F30302F3030303020307E
:104DFA00303A30303A303000E5559A15B53B121F3B
:104E0A00C0A80101EF010101FFFFFFFFC0A80101D6
:104E1A001F1C1F1E1F1E1F1F1E1F1E1F01005E00BC
:104E2A0000005345520053616E647900000000008F
:104E3A000000446F75676C617300000000005F55E5
:104E4A004E41535349474E45440000000000444F29
:104E5A005553414E55534100000060004800700010
:104E6A007800400048005000586175676F6F646DA4
:104E7A006100616E6472657700676F6F646D616E61
:104E8A00006C6F63616C2069703A20007670640070
:104E9A003A7B006D6F64656C006D616E7566616367
:104EAA0074757265720073657269616C5F6E756D97
:104EBA00626572006D616E75666163747572655FB5
:104ECA0064617465006D61635F61646472657373C4
:104EDA0000636F756E7472795F636F6465007D2C11
:104EEA000074637269745F686900747761726E5FD7
:104EFA0068690074637269745F6C6F0074776172B9
:104F0A006E5F6C6F0074656D706572617475726541
:104F1A00007374617465004E4F524D414C003A5B08
:104F2A000074696D657374616D70006576656E7481
:104F3A00007D5D7D00227472756522002266616CB7
:104F4A007365220074637269745F68693D007477DF
:104F5A0061726E5F68693D0074637269745F6C6F39
:104F6A003D00747761726E5F6C6F3D004854545017
:104F7A002F312E3120343030205265736F757263B1
:104F8A0065206E6F7420666F756E640A436F6E6E6D
:104F9A00656374696F6E3A20636C6F73650D0A00FE
:104FAA00485454502F312E3120323030204F4B0A82
:104FBA00436F6E6E656374696F6E3A20636C6F73CC
:104FCA00650D0A00485454502F312E3120323030AA
:104FDA00204F4B0A436F6E74656E742D5479706559
:104FEA003A206170706C69636174696F6E2F766EB6
:104FFA00642E6170692B6A736F6E0A436F6E6E65F9
:10500A006374696F6E3A20636C6F73650D0A0044AE
:10501A00454C455445202F6465766963652F6C6F4E
:10502A006700505554202F6465766963652F636F56
:10503A006E6669673F00505554202F646576696330
:10504A00653F72657365743D00474554202F64655A
:10505A0076696365000D0A414C41524D3A2000576A
:10506A00495A6E65740074696D652073796E63655B
:10507A006420005554430D0A0030302F30302F3051
:10508A003030302030303A30303A30300050726FA1
:10509A006A656374206E6F74207369676E65640D48
:1050AA000A0066697273746E616D65006C6173746F
:1050BA006E616D650061737572697465005465731C
:0C50CA0074696E670D0A002D002E0000B6
:00000001FF
