:100000000C9434000C9451000C9451000C94510049
:100010000C9451000C9451000C9451000C9451001C
:100020000C9451000C9451000C9451000C947F0AD4
:100030000C9451000C9451000C945F0C0C945100E2
:100040000C9451000C9451000C94080D0C94390D33
:100050000C9451000C9451000C9415020C94510016
:100060000C9451000C94510011241FBECFEFD8E026
:10007000DEBFCDBF11E0A0E0B1E0E0E2FDE102C0F3
:1000800005900D92AC38B107D9F723E0ACE8B1E0A8
:1000900001C01D92A93BB207E1F70E9450020C94E7
:1000A0007A0E0C940000CF93DF93CDB7DEB700003B
:1000B0000E940602892BE1F78091020190910301D1
:1000C00041E1BC0180E490E00E94B8010E94AC00D4
:1000D000892B71F40E94E20080910201909103014A
:1000E00041E1BC0180E490E00E94B80110929E01C1
:1000F0000000DF91CF910895CF93DF93CDB7DEB7A6
:1001000000000E940602892BE1F780919E0188235E
:10011000A1F0809100019091010162E170E00E94E4
:10012000D802809100019091010141E1BC0180E47D
:1001300090E00E94620110929E010000DF91CF9139
:100140000895CF93DF93CDB7DEB781E080939E0112
:100150000000DF91CF910895CF93DF9300D0CDB70A
:10016000DEB781E090E09A838983809100019091CD
:100170000101FC018081813481F480910001909122
:100180000101FC018181833541F48091000190914E
:100190000101FC018281853511F01A82198280915A
:1001A00000019091010162E170E00E941C03892B23
:1001B00011F41A82198289819A810F900F90DF9130
:1001C000CF910895CF93DF93CDB7DEB78091020131
:1001D0009091030121E4FC01208380910201909120
:1001E000030123E5FC012183809102019091030129
:1001F00025E5FC0122838091020190910301FC011D
:10020000138280910201909103012FEF33E0FC01F2
:100210003583248380910201909103012EEF33E016
:10022000FC01378326838091020190910301FC0138
:1002300011861086809102019091030121E030E047
:10024000FC0133872287809102019091030120E312
:10025000FC012487809102019091030120ECFC01B4
:100260002587809102019091030128EAFC012687ED
:10027000809102019091030121E0FC012787809188
:1002800002019091030124E6FC01208B8091020180
:1002900090910301FC01118A809102019091030168
:1002A00062E170E00E94D802809102019091030106
:1002B00042E1BC0180E490E00E9462010000DF9115
:1002C000CF910895CF93DF93CDB7DEB727970FB6C1
:1002D000F894DEBF0FBECDBF9C838B837E836D837E
:1002E0004F8300000E940602892BE1F78B819C81DD
:1002F0009093E2018093E10181E08093E301109209
:10030000DF011A82198213C089819A812D813E8171
:10031000820F931FFC01208189819A8181569E4F13
:10032000FC01208389819A8101969A8389838F8138
:10033000882F90E09C012150310989819A81821790
:10034000930714F38F818093E0018FE390E02FE314
:1003500030E0F90120812860FC012083000027960D
:100360000FB6F894DEBF0FBECDBFDF91CF910895D9
:10037000CF93DF93CDB7DEB727970FB6F894DEBFE4
:100380000FBECDBF9C838B837E836D834F83000024
:100390000E940602892BE1F71A82198225C081E4A6
:1003A00090E049815A812B813C81240F351FFC014B
:1003B000318320838FE390E02FE330E0F901208147
:1003C0002160FC01208389819A812D813E81820FE9
:1003D000931F20E430E0F9012081FC012083898112
:1003E0009A8101969A8389838F81282F30E08981B1
:1003F0009A81821793079CF2000027960FB6F89413
:10040000DEBF0FBECDBFDF91CF910895CF93DF93B5
:10041000CDB7DEB79091E30181E0913009F080E043
:10042000882F90E0DF91CF9108951F920F920FB621
:100430000F9211248F939F93EF93FF939091DF017D
:100440008091E001981700F5F999FECF8091E101C4
:100450009091E20192BD81BDE091DF01F0E0E156B3
:10046000FE4F808180BDFA9AF99A8091E1019091C6
:10047000E20101969093E2018093E1018091DF0116
:100480008F5F8093DF0103C0FB981092E301FF911F
:10049000EF919F918F910F900FBE0F901F90189525
:1004A000CF93DF9300D0CDB7DEB70E94CB0A0E9476
:1004B00053000E9428050E945A050E9420070E94AE
:1004C0005B031A82198280E291E00E94BC0488E2F8
:1004D00091E00E944F078CE391E00E94D10A809145
:1004E00006019091070146E3BC0180E090E00E9484
:1004F000B801809104019091050141E1BC0180E4C3
:1005000090E00E94B8018091060190910701049645
:100510000E94D10A81E691E00E94D10A80910601F1
:100520009091070140960E94D10A81E691E00E94D5
:10053000D10A80910401909105010E94D10A81E6BF
:1005400091E00E94D10A809104019091050121E37C
:10055000FC012487809104019091050142E1BC01D6
:1005600080E490E00E9462010E94A6068AEA0E944E
:1005700055068BEB0E9455068CEC0E9455060E9496
:10058000CE040E941F060E947C000E940602892B56
:10059000B1F789819A81892B91F760E071E080E061
:1005A00090E00E94950B81E090E09A838983E7CFE9
:1005B000CF93DF93CDB7DEB727970FB6F894DEBFA2
:1005C0000FBECDBF9D838C837F836E831B821A8277
:1005D000198214C08981882F90E02C813D81820F7F
:1005E000931FFC018081882F90E02A813B81820F3C
:1005F000931F9B838A8389818F5F89838981282FB9
:1006000030E08E819F8101972817390718F38E817A
:100610009F8101972C813D81820F931F2A81219513
:10062000FC012083000027960FB6F894DEBF0FBEB2
:10063000CDBFDF91CF910895CF93DF93CDB7DEB7D4
:1006400027970FB6F894DEBF0FBECDBF9D838C8376
:100650007F836E831B821A82198214C08981882F3E
:1006600090E02C813D81820F931FFC018081882FB7
:1006700090E02A813B81820F931F9B838A8389812B
:100680008F5F89838981282F30E08E819F81281791
:10069000390720F321E08A819B81892B09F020E032
:1006A000822F90E027960FB6F894DEBF0FBECDBF25
:1006B000DF91CF910895CF93DF93CDB7DEB70000E0
:1006C0000E940602892BE1F780910A0190910B01AB
:1006D00046E3BC0180E090E00E94B8010E948203E2
:1006E000892B61F40E94B80380910A0190910B015B
:1006F00046E3BC0180E090E00E94B8010000DF9179
:10070000CF910895CF93DF9300D0CDB7DEB781E0CE
:1007100090E09A8389838091080190910901FC01FE
:100720008081833581F48091080190910901FC0159
:100730008181853441F48091080190910901FC0187
:100740008281823511F01A8219828091080190917C
:10075000090167E370E00E941C03892B11F41A82DF
:10076000198289819A810F900F90DF91CF9108951E
:10077000CF93DF93CDB7DEB780910A0190910B0143
:1007800023E5FC01208380910A0190910B0125E46F
:10079000FC01218380910A0190910B0122E5FC016B
:1007A000228380910A0190910B01FC0113828091B8
:1007B0000A0190910B0121E4FC01248380910A013C
:1007C00090910B012EE6FC01258380910A01909106
:1007D0000B0124E6FC01268380910A0190910B0114
:1007E00022E7FC01278380910A0190910B0125E605
:1007F000FC01208780910A0190910B0127E7FC0101
:10080000218780910A0190910B01FC011286809151
:100810000A0190910B0127E4FC01208B80910A01D1
:1008200090910B012FE6FC01218B80910A019091A0
:100830000B012FE6FC01228B80910A0190910B01A4
:1008400024E6FC01238B80910A0190910B012DE697
:10085000FC01248B80910A0190910B0121E6FC019F
:10086000258B80910A0190910B012EE6FC01268BCD
:1008700080910A0190910B01FC01178A80910A0175
:1008800090910B0124E3FC01248F80910A01909147
:100890000B0122E3FC01258F80910A0190910B014D
:1008A000FC01168E80910A0190910B01FC0110A6AB
:1008B00011A612A613A680910A0190910B0120E4C3
:1008C000FC0124A780910A0190910B012EE6FC0106
:1008D00025A780910A0190910B0124E6FC0126A72F
:1008E00080910A0190910B0127E4FC0127A78091D8
:1008F0000A0190910B012FE6FC0120AB80910A01C7
:1009000090910B012FE6FC0121AB80910A0190919F
:100910000B0125E5FC0122AB80910A0190910B01AE
:1009200023E5FC0123AB80910A0190910B0121E4A6
:10093000FC0124AB80910A0190910B01FC0115AAE6
:1009400080910A0190910B01FC0116AA80910A0185
:1009500090910B0167E370E00E94D80280910A0138
:1009600090910B0147E3BC0180E090E00E9462019E
:100970000000DF91CF91089590938A0280938902BD
:1009800010928D0210928C0210928B0260E070E047
:1009900080E090E00E94CB0C0C942D0580918902A0
:1009A00090918A02892B09F452C080E090E00E9465
:1009B000B20C892B09F44BC080918B02811134C099
:1009C00020918C0230918D02E0918902F0918A028F
:1009D000E20FF31F80818032E9F03CF481111DC0E9
:1009E00010928D0210928C0208958D3239F08E3261
:1009F000A1F40E942B056AEF70E004C00E942B0551
:100A00006EEE72E080E090E00E94CB0C81E080937B
:100A10008B02089568EE73E00BC02F5F3F4F309359
:100A20008D0220938C0208950E942D0564E670E0EB
:100A300080E090E00E94CB0C10928B0280918C029F
:100A400090918D02019690938D0280938C0208956F
:100A5000219A29980895299A08952998089585B189
:100A60008695817090E008958031910504F527E026
:100A7000289FA001299F500D1124FA01EF56FD4F28
:100A800080818132A0F480E090E020E0FA01E80F5C
:100A9000F91FEF56FD4F3081230F019687309105E6
:100AA000A9F781E090E0222321F080E0089580E022
:100AB00090E008956F927F928F929F92AF92BF9233
:100AC000CF92DF92EF92FF920F931F93CF93DF931A
:100AD0000E940602892BE1F701E013E0C0E8D0E0B4
:100AE000BE016F5E7D4F47E0CE010E94B801F80164
:100AF00011928F012796C03FD10591F741E9E42E6D
:100B000042E0F42E8701C0E0D0E0D12CB12C772454
:100B10007A94CE010E943405892B41F0F80180813E
:100B2000871520F4BC2E782EDD24D3942196095FFE
:100B30001F4FC031D10569F7DD2009F46AC0B092BA
:100B4000900270928F02CB2DD0E08E010F5F1F4F6D
:100B5000872C2FE0A22E37E0932E6801FFE0CF22F2
:100B6000DD24C6010E943405892B61F4B0928E0207
:100B70008E0101501109609780E1A82EB12C97E0F9
:100B8000692E3AC09C9CF0019D9CF00D1124EF56FB
:100B9000FD4F4081242F30E0882D90E001968F7129
:100BA00099272817390711F7C092900240938F02B6
:100BB000AA940F5F1F4FAA20C9F2842ECECFF7014F
:100BC000208130E0872D90E04F968F71992728176C
:100BD000390731F5C0928E02689CF001699CF00DD6
:100BE0001124EF56FD4F708001501109F7E0EF0E10
:100BF000F11C0C171D07A1F0C801B5010E940B0ED6
:100C00006C014C019924C4010E943405892BB9F66A
:100C100007C08FE08093900210928F0210928E0294
:100C2000DF91CF911F910F91FF90EF90DF90CF90C8
:100C3000BF90AF909F908F907F906F900895EF92AC
:100C4000FF921F93CF93DF930E940602892B39F501
:100C5000E1E0F3E0C0E0D0E081918823E1F017E02B
:100C60001C9FC0011D9F900D11249C012F563D4FCC
:100C7000790167E070E0C9010E94D802C19FC001FC
:100C8000112447E0B70180589F4F0E946201CF5F57
:100C9000DC4F188204C02196C031D105E9F6DF91FE
:100CA000CF911F91FF90EF900895EF92FF920F93D5
:100CB0001F93CF93DF93E82EC0919002D0E021964E
:100CC000CF70DD2780918E0290E00E943405F82ECF
:100CD00080918F028F5F813218F480938F0202C05F
:100CE00010928F0287E08C9F80018D9F100D112440
:100CF0000F561D4F80918F02F80180830E942207BA
:100D0000F8016183728383839483E582C0939002A8
:100D100067E070E0C8010E94D802CF5FDC4F81E03D
:100D200088838091900290918E02891308C0FF20E1
:100D300031F090E001968F70992780938E02DF91B9
:100D4000CF911F910F91FF90EF900895E1E9F2E0AC
:100D5000A1E0B3E08FEF4FEF5FEFBA0191E0808346
:100D6000858341835283638374839D93379623E005
:100D7000E130F207A1F78FE08093900210928E028B
:100D800010928F0208950F931F93CF93DF930091DA
:100D90008E02C02F10E0D0E0CE010E943405892BD6
:100DA00029F02196CF701F5F0C13F5CF812FDF91B3
:100DB000CF911F910F910895AF92BF92CF92DF9282
:100DC000EF92FF920F931F93CF93DF936B017C0100
:100DD0008A0159010E94C30690E0A0E0B0E0C81665
:100DE000D906EA06FB06F8F480918E0290E0C80E60
:100DF000D91E8FE0C822DD2487E08C9DF0018D9DF7
:100E0000F00D1124EF56FD4F81819281A381B481B1
:100E1000E80188839983AA83BB838581F501808358
:100E200081E090E002C080E090E0DF91CF911F91DF
:100E30000F91FF90EF90DF90CF90BF90AF9008950B
:100E40000C94A40A0F931F930E94B30A00913503D8
:100E5000109136032091370330913803600F711FD2
:100E6000821F931F1F910F9108959C0160E971E00B
:100E70000E94F70D892B79F0C90183709927892B7E
:100E800061F4C90164E670E00E94F70D9C0181E005
:100E9000232B21F402C081E0089580E008952F9271
:100EA0003F924F925F926F927F928F929F92AF92FA
:100EB000BF92CF92DF92EF92FF920F931F93CF9347
:100EC000DF93CDB7DEB767970FB6F894DEBF0FBEDE
:100ED000CDBF2CE0E4E6F1E0AE014F5F5F4F1A01B9
:100EE000DA0101900D922A95E1F7DC012C91220F95
:100EF0002056322F330F330F230F11963C91119749
:100F00003153230F2D8713962C911397022E000C2B
:100F1000330B205331096AE0629FA001639F500D9B
:100F200011241496CC900C2C000CDD08B0E3CB1AE5
:100F3000D108C40ED51E860101501109FC0126817D
:100F4000022E000C330B20533109E8EEF3E02E9F04
:100F5000A0012F9F500D3E9F500D1124DC011796CC
:100F60002C911797022E000C330B2053310974E695
:100F7000729F7001739FF00C1124E40EF51E1896F9
:100F80004C911897042E000C550B40535109649F47
:100F90009001659F300D1124E20EF31E19962C91DD
:100FA0001997F701E20FF11D27FDFA95AF0158508F
:100FB0007A011B962C911B97220F2056322F330F4C
:100FC000330F230F1C963C911C973053230F298B12
:100FD0001E962C911E97220F2056322F330F330F5F
:100FE000230F1F963C911F973053230F2A8B519646
:100FF0002C915197220F2056322F330F330F230F8E
:1010000052968C918053280F2B8BCA010E94350772
:10101000882321F05D85523008F08601C70160E920
:1010200071E00E94F70DFC01DB0120E839E540E6A4
:1010300050EF0E946F0E2B013C01CF0164E670E07F
:101040000E94F70DFC01DB0120E032EC47E15CEB94
:101050000E946F0E4B015C01DF01B695A795B69516
:10106000A79520E83FE146E857E00E946F0E6B012C
:101070007C01DF01A370BB2720E833E341EE51E0A0
:101080000E946F0E6C8B7D8B8E8B9F8BF1018E2F50
:1010900082199D85891720F48191080F111DF7CFC2
:1010A000A9892A2F30E0A0E1BEE00E94600E6D8782
:1010B0007E878F87988BBA892B2F30E0ACE3B0E026
:1010C0000E94600E2D853E854F855889260F371F5B
:1010D000481F591FDA01C9013B89830F911DA11DCA
:1010E000B11D480E591E6A1E7B1E840C951CA61C41
:1010F000B71CC80CD91CEA1CFB1C8C899D89AE89C5
:10110000BF89C80ED91EEA1EFB1ED80120E831E5B2
:1011100041E050E00E946F0EDC01CB018C0D9D1D63
:10112000AE1DBF1D8093350390933603A093370304
:10113000B093380367960FB6F894DEBF0FBECDBFED
:10114000DF91CF911F910F91FF90EF90DF90CF90A3
:10115000BF90AF909F908F907F906F905F904F90D7
:101160003F902F900C94BF0AEF92FF920F931F9322
:10117000CF93DF93CDB7DEB768970FB6F894DEBF95
:101180000FBECDBF7B012CE0E4E6F1E0DE011D9651
:1011900001900D922A95E1F78E010F5F1F4F2CE011
:1011A000F80111922A95E9F70E9435078A83DE013A
:1011B0001D9680E0F701408151819D91F8012191B8
:1011C0008F0130E0290F311D4217530740F0421BB9
:1011D000530BF701518340838F5F8C3059F768962A
:1011E0000FB6F894DEBF0FBECDBFDF91CF911F9138
:1011F0000F91FF90EF9008954F925F926F927F92C0
:101200008F929F92AF92BF92CF92DF92EF92FF9216
:10121000CF93DF9300D0CDB7DEB72B013C0181E047
:1012200090E0A0E0B0E020E8421629E5520620E672
:10123000620620EF720618F480E090E0DC0120E9FD
:1012400031E0829F5001839FB00C929FB00C11241B
:1012500080E3A81A88EFB80AC12CD12C7601C39478
:1012600020E8421629E5520620E6620620EF7206C3
:1012700018F4C12CD12C7601A701960160E879E51C
:1012800080E690EF0E94E70D73016201C61AD70A4B
:10129000E80AF90A81E090E0A0E0B0E0C11422EC95
:1012A000D20627E1E2062CEBF20618F480E090E08B
:1012B000DC0144E6489F9001499F300D1124A20EA5
:1012C000B31E21E030E040E050E0C11482ECD806CB
:1012D00087E1E8068CEBF80618F420E030E0A9017D
:1012E00060E072EC87E19CEB0E94E70DA70196019C
:1012F000261B370B480B590BCA01B90120E83FE107
:1013000046E857E00E941F0E220F331F220F331FA3
:10131000A20EB31E20E833E341EE51E00E941F0EFF
:101320007501E20EF31E20E831E541E050E00E9435
:101330001F0E4B015C013A832983BE016F5F7F4F13
:10134000C7010E94B408D82EC501B40120E13EE0D7
:1013500040E050E00E941F0E29013A014B015C0160
:1013600060E771E08CE091E00E94130A6D2D70E05F
:101370006F5F7F4F42E08CE091E00E941D0A69811F
:101380007A816F5F7F4F42E08FE091E00E941D0AFB
:1013900044E0B70182E191E00E941D0A42E0B201FF
:1013A00087E191E00E941D0AC501B4012CE330E001
:1013B00040E050E00E941F0E49015A016B017C0180
:1013C00042E0B4018AE191E00E941D0A42E0B601C8
:1013D0008DE191E00E941D0A8CE091E00F900F904A
:1013E000DF91CF91FF90EF90DF90CF90BF90AF90C3
:1013F0009F908F907F906F905F904F9008950F9384
:101400001F930E94B30A0091350310913603209177
:10141000370330913803600F711F821F931F1F9194
:101420000F910C94FC08FC01DB018D91BD01882318
:1014300011F08193F9CF108208959F92AF92BF92DD
:10144000CF92DF92EF92FF920F931F93CF93DF9390
:1014500000D000D01F92CDB7DEB7FC016B019E011A
:101460002F5F3F4F8E010A5F1F4FEE24E394F12C54
:101470009AE0992E9E9C50019F9CB00C1124C601AD
:10148000B5010E94F70DB7010E94F70DD9016D93C8
:101490009D01C61AD10867FDD3947501A017B10745
:1014A00049F760E070E084E090E050E0D8012E91D0
:1014B0008D01211105C06115710511F4009741F4EA
:1014C000841795072CF4205D219361E070E004C03F
:1014D000841795070CF43196019740F70F900F9001
:1014E0000F900F900F90DF91CF911F910F91FF9070
:1014F000EF90DF90CF90BF90AF909F9008951F9294
:101500000F920FB60F9211248F939F93AF93BF93B7
:101510008091110390911203A0911303B0911403D1
:101520000196A11DB11D8093110390931203A09306
:101530001303B0931403BF91AF919F918F910F90BC
:101540000FBE0F901F90189583E294EF909389003F
:1015500080938800109280008CE08093810082E06C
:1015600080936F0008952FB7F894609111037091E4
:10157000120380911303909114032FBF08958FB726
:10158000F894109211031092120310921303109208
:1015900014038FBF08950E94F50C789408950C945D
:1015A0008D0DCF93DF93EC018991882319F00E9470
:1015B0008D0DFACFDF91CF910895CF93C82F90E092
:1015C00024E0959587952A95E1F78A3010F4805D9F
:1015D00001C0895C0E948D0D8C2F8F708A3010F0B5
:1015E000895C01C0805DCF910C948D0DCF93C82F85
:1015F000892F0E94DD0A8C2FCF910C94DD0A2F9247
:101600003F924F925F926F927F928F929F92AF9292
:10161000BF92CF92DF92EF92FF920F931F93CF93DF
:10162000DF93CDB7DEB763970FB6F894DEBF0FBE7A
:10163000CDBF6B017C0197FF0DC0F094E094D09476
:10164000C094C11CD11CE11CF11C81E090E09B8B7B
:101650008A8B02C01B8A1A8AFE0131965F018E01B5
:10166000055F1F4FF98BE88B66246394712C812CE6
:10167000912CAAE0B0E09301A4010E946F0E1B011F
:101680002C01C701B6019101A2010E94410E9301F4
:10169000A4010E94410EE889F9892193F98BE88B16
:1016A000822F220F990BAA0BBB0BC81AD90AEA0A80
:1016B000FB0A310142010E171F07D9F68A899B895F
:1016C000892B11F08DE201C080E20E948D0D20E097
:1016D00030E0F80182918F01811106C0211531059A
:1016E00019F4EA15FB0529F4805D0E948D0D21E0B7
:1016F00030E00A151B0569F763960FB6F894DEBF54
:101700000FBECDBFDF91CF911F910F91FF90EF9052
:10171000DF90CF90BF90AF909F908F907F906F9011
:101720005F904F903F902F9008952F923F924F924D
:101730005F926F927F928F929F92AF92BF92CF9261
:10174000DF92EF92FF920F931F93CF93DF93CDB76A
:10175000DEB764970FB6F894DEBF0FBECDBF8C0125
:101760006115710509F492C0812C912C5401CB01B3
:10177000A0E0B0E0898B9A8BAB8BBC8BDE0111961D
:101780001D0189899A89AB89BC8988169906AA06A0
:10179000BB0608F07BC0812F0E94DD0A802F807F6E
:1017A0000E94DD0A80E20E94CF0A61017801412C8B
:1017B000512C320141E0B601C7010E94B801BFEFD0
:1017C000EB1AFB0AEFEF4E1A5E0A6E0A7E0AFFEF73
:1017D0008F1A9F0AAF0ABF0A89899A89AB89BC8987
:1017E00088169906AA06BB0650F068019FE0C92238
:1017F000DD2400E010E032016C0C7D1C09C0AFEF6D
:10180000CA1ADA0AC7018F709927892B99F6EDCF8A
:101810000C151D0518F00615170528F084E891E051
:101820000E94D10A0BC0F801EC19FD09E20DF31D6D
:1018300080810E94DD0A80E20E94CF0A0F5F1F4F65
:101840000031110529F700E010E0C016D10631F093
:1018500080E20E94CF0A0F5F1F4FF7CF8101C801BE
:10186000821993098415950558F4F80181918F0127
:1018700090EE980F903608F08EE20E94CF0AEFCFDC
:1018800088E891E00E94D10A87017BCF64960FB669
:10189000F894DEBF0FBECDBFDF91CF911F910F91A6
:1018A000FF90EF90DF90CF90BF90AF909F908F9080
:1018B0007F906F905F904F903F902F9008951F9270
:1018C0000F920FB60F9211242F933F938F939F93F4
:1018D00020911B0330911C038091170390911803F2
:1018E0002817390749F080911B0390911C0301963A
:1018F00090931C0380931B0320911D0330911E03C2
:101900008091190390911A032817390749F08091A3
:101910001D0390911E03019690931E0380931D0357
:101920009F918F913F912F910F900FBE0F901F901D
:10193000189589EF87BD82E084BD93E095BD8093C3
:101940006E0008958230910550F4F894880F991F25
:10195000FC01E55EFC4F808191817894089580E0E0
:1019600090E008958230910598F4880F991FFC014A
:10197000E55EFC4F20813181FC01E95EFC4F81E096
:1019800090E0408151814217530721F080E0089593
:1019900080E090E008950F931F93CF93DF93EC01C5
:1019A0008B018091150390911603892B41F40E94BD
:1019B000990C81E090E09093160380931503C23058
:1019C000D10570F48FB7F894CC0FDD1FFE01E95EEE
:1019D000FC4F11830083C55EDC4F198218828FBFD4
:1019E000DF91CF911F910F9108951092C00087E66B
:1019F00090E09093C5008093C400E1ECF0E088E1B2
:101A0000808386E08093C2008081806A808308950D
:101A10001F920F920FB60F9211242F938F939F93C3
:101A2000EF93FF93809121032091220390E0821B8A
:101A3000910901978F739927892B79F0E0912203FF
:101A4000F0E08091C600E75CFC4F80838091220328
:101A50008F5F8F738093220302C08091C600FF9135
:101A6000EF919F918F912F910F900FBE0F901F902C
:101A700018951F920F920FB60F9211242F938F93E8
:101A80009F93EF93FF938091200320911F0390E099
:101A9000821B91098F739927892B79F0E0911F039D
:101AA000F0E0E758FC4F80818093C60080911F03CF
:101AB0008F5F8F7380931F0305C08091C1008F7D5E
:101AC0008093C100FF91EF919F918F912F910F9083
:101AD0000FBE0F901F9018958091220390912103C3
:101AE000891B8F730895809122032091210390E038
:101AF000821B91098F739927892B69F0E09121034B
:101B0000F0E0E75CFC4F8081909121039F5F9F7321
:101B100090932103089580E008950FB607FE0EC04C
:101B200020911F039091200330E0291B310921509F
:101B300031092F733327232B99F30DC020911F03F5
:101B40009091200330E0291B3109215031092F7376
:101B50003327232B61F0E0912003F0E0E758FC4F9E
:101B60008083809120038F5F8F7380932003809107
:101B7000C10080628093C10008951F93CF93DF93CB
:101B8000EC0180E011E0180FFE01E80FF11D8081EB
:101B9000882321F00E948D0D812FF4CFDF91CF910A
:101BA0001F9108951F93CF93DF93EC0180E011E024
:101BB000180FFE01E80FF11D8491882321F00E9487
:101BC0008D0D812FF4CFDF91CF911F910895DB010F
:101BD0008F939F930E946F0EBF91AF91A29F800D34
:101BE000911DA39F900DB29F900D11240895AA1BE3
:101BF000BB1B51E107C0AA1FBB1FA617B70710F0F8
:101C0000A61BB70B881F991F5A95A9F78095909529
:101C1000BC01CD01089597FB072E16F4009407D060
:101C200077FD09D00E94F70D07FC05D03EF4909592
:101C300081959F4F0895709561957F4F0895A1E21A
:101C40001A2EAA1BBB1BFD010DC0AA1FBB1FEE1F36
:101C5000FF1FA217B307E407F50720F0A21BB30B81
:101C6000E40BF50B661F771F881F991F1A9469F7FD
:101C700060957095809590959B01AC01BD01CF0159
:101C80000895052E97FB1EF400940E94580E57FDF0
:101C900007D00E941F0E07FC03D04EF40C94580E80
:101CA00050954095309521953F4F4F4F5F4F089588
:101CB00090958095709561957F4F8F4F9F4F0895B8
:101CC000A29FB001B39FC001A39F700D811D11247D
:101CD000911DB29F700D811D1124911D08950E94C8
:101CE000600EA59F900DB49F900DA49F800D911D37
:081CF00011240895F894FFCFC0
:101CF800030B443100802500002D00040B44300004
:101D0800802500002D0002060024F400010C6174F7
:081D18006D656761333238008C
:101D200023038C012303E4011B02520230302F30C5
:101D3000302F303030302030303A30303A303000D0
:101D40002D2D2D202D2E2D0030312F30312F3230E2
:101D500031392030303A30303A303000534552205B
:101D60003438362050726F6A6563742032202D201B
:101D7000416E6472657720476F6F646D616E0A0D06
:101D8000000A0D001F1C1F1E1F1E1F1F1E1F1E1FCF
:101D900030302F30302F303030302030303A30304B
:0C1DA0003A303000202020000D0A000026
:00000001FF
