:100000000C9434000C943E000C943E000C943E0082
:100010000C943E000C943E000C943E000C943E0068
:100020000C943E000C943E000C943E000C943E0058
:100030000C943E000C943E000C943E000C943E0048
:100040000C943E000C943E000C943E000C943E0038
:100050000C943E000C943E000C943E000C943E0028
:100060000C943E000C943E0011241FBECFEFD8E04C
:10007000DEBFCDBF0E9440000C947B000C940000BA
:10008000CF93DF93CDB7DEB784E290E0FC0110821E
:1000900084E290E024E230E0F90120812260FC015A
:1000A000208384E290E024E230E0F901308122E014
:1000B0002327FC01208383E290E022E0FC012083DF
:1000C0000E946300EECFCF93DF9300D0CDB7DEB7B1
:1000D0001A82198205C089819A8101969A8389833F
:1000E00089819A8181159A4FB0F300000F900F908B
:0A00F000DF91CF910895F894FFCF3F
:00000001FF
