:100000000C9434000C9451000C9451000C94510049
:100010000C9451000C9451000C9451000C9451001C
:100020000C9451000C9451000C9451000C94C8078E
:100030000C9451000C9451000C94A8090C9451009C
:100040000C9451000C9451000C94510A0C94820AA7
:100050000C9451000C9451000C941C010C94510010
:100060000C9451000C94510011241FBECFEFD8E026
:10007000DEBFCDBF11E0A0E0B1E0E8E8F8E102C0EA
:1000800005900D92AC37B107D9F723E0ACE7B1E0AA
:1000900001C01D92A93AB207E1F70E94300B0C94FF
:1000A0002E0C0C9400000E941301892BE1F7809123
:1000B0007C01882379F062E170E083E193E00E94A3
:1000C000550141E163E173E080E490E00E94DB00D0
:1000D00010927C01089581E080937C010895CF9374
:1000E000DF9380911303813461F48091140383358D
:1000F00041F4D1E0C0E080911503853521F0D0E0D6
:1001000002C0D0E0C0E062E170E083E193E00E94D1
:100110006D01892B11F4D0E0C0E08D2F9C2FDF9171
:10012000CF910895EDE7F1E081E4808383E5818359
:1001300085E5828313828FEF93E0958384838EEF2E
:1001400093E0978386831186108681E090E0938701
:10015000828780E3848780EC858788EA868781E0D0
:10016000878784E6808B118A62E170E0CF010E946C
:10017000550142E16DE771E080E490E00C94DB0012
:100180000E941301892BE1F741E16DE771E080E402
:1001900090E00E94FB000E946F00892B59F40E949E
:1001A000920041E16DE771E080E490E00E94FB0085
:1001B00010927C01089520918F012130E1F39093FA
:1001C00091018093900181E080938F0110929301BF
:1001D000FB01A4E9B1E0842F90E001979D0124592F
:1001E0003140281739071CF421912D93F7CF409304
:1001F0009201FB9A089520918F012130E1F3FB01D8
:1002000050E0861B970B9F01261B370B24173507E1
:100210004CF49C012E0F3F1F32BD21BDF89A20B532
:100220002193F1CF089520918F0181E090E021305A
:1002300011F080E090E008951F920F920FB60F9298
:1002400011248F939F93EF93FF93E09193018091FB
:100250009201E817F0F4F999FECF80919001909106
:10026000910192BD81BDF0E0EC56FE4F808180BDD2
:10027000FA9AF99A80919001909191010196909348
:10028000910180939001809193018F5F80939301FE
:1002900003C0FB9810928F01FF91EF919F918F9176
:1002A0000F900FBE0F901F901895FC0120E030E0DA
:1002B00090E061507109492F50E04617570740F40C
:1002C000DF01A40FB51F8C91280F311D9F5FF3CF65
:1002D000E60FF71F219520830895FC0140E050E0D0
:1002E00090E0292F30E02617370740F4DF01A20FF6
:1002F000B31F8C91480F511D9F5FF3CF81E090E0B9
:10030000452B11F080E090E00895CF93DF9380912A
:100310004202833561F480914302853441F4D1E097
:10032000C0E080914402823521F0D0E002C0D0E0EC
:10033000C0E067E370E082E492E00E946D01892BE7
:1003400011F4D0E0C0E08D2F9C2FDF91CF91089564
:10035000EBE0F2E043E5408385E4818382E582833C
:10036000138231E434832EE6258394E6968382E774
:10037000878385E6808787E78187128657E4508BDD
:100380008FE6818B828B938B6DE6648B61E6658B48
:10039000268B178A64E3648F62E3658F168E10A63E
:1003A00011A612A613A660E464A725A796A757A7CF
:1003B00080AB81AB85E582AB43AB34AB15AA16AA03
:1003C00067E370E0CF010E94550147E36BE072E004
:1003D00080E090E00C94DB000E941301892BE1F790
:1003E00046E36BE072E080E090E00E94FB000E9438
:1003F0008501892B49F40E94A80146E36BE072E075
:1004000080E090E00C94FB00089590937A02809332
:10041000790210927D0210927C0210927B0260E0C1
:1004200070E080E090E00E94140A0C9476028091C3
:10043000790290917A02892B09F452C080E090E011
:100440000E94FB09892B09F44BC080917B0281112A
:1004500034C020917C0230917D02E0917902F091CC
:100460007A02E20FF31F80818032E9F03CF48111BF
:100470001DC010927D0210927C0208958D3239F0D9
:100480008E32A1F40E9474026AEF70E004C00E94F0
:1004900074026EEE72E080E090E00E94140A81E047
:1004A00080937B02089568EE73E00BC02F5F3F4F8F
:1004B00030937D0220937C0208950E94760264E6C8
:1004C00070E080E090E00E94140A10927B0280911C
:1004D0007C0290917D02019690937D0280937C0234
:1004E0000895219A29980895299A08952998089598
:1004F00085B18695817090E008958031910504F56D
:1005000027E0289FA001299F500D1124FA01EF57E1
:10051000FD4F80818132A0F480E090E020E0FA017C
:10052000E80FF91FEF57FD4F3081230F01968730F9
:100530009105A9F781E090E0222321F080E0089561
:1005400080E090E008956F927F928F929F92AF9299
:10055000BF92CF92DF92EF92FF920F931F93CF93B0
:10056000DF930E941301892BE1F701EF12E0C0E84D
:10057000D0E0BE016F5F7D4F47E0CE010E94FB00DF
:10058000F80111928F012796C03FD10591F741E8FC
:10059000E42E42E0F42E8701C0E0D0E0D12CB12C53
:1005A00077247A94CE010E947D02892B41F0F801D4
:1005B0008081871520F4BC2E782EDD24D3942196DB
:1005C000095F1F4FC031D10569F7DD2009F46AC00A
:1005D000B092800270927F02CB2DD0E08E010F5F2F
:1005E0001F4F872C2FE0A22E37E0932E6801FFE0EB
:1005F000CF22DD24C6010E947D02892B61F4B092D6
:100600007E028E0101501109609780E1A82EB12C65
:1006100097E0692E3AC09C9CF0019D9CF00D11243E
:10062000EF57FD4F4081242F30E0882D90E0019658
:100630008F7199272817390711F7C09280024093CC
:100640007F02AA940F5F1F4FAA20C9F2842ECECF3B
:10065000F701208130E0872D90E04F968F71992728
:100660002817390731F5C0927E02689CF001699C19
:10067000F00D1124EF57FD4F708001501109F7E084
:10068000EF0EF11C0C171D07A1F0C801B5010E9467
:10069000BF0B6C014C019924C4010E947D02892B7F
:1006A000B9F607C08FE08093800210927F0210920B
:1006B0007E02DF91CF911F910F91FF90EF90DF901D
:1006C000CF90BF90AF909F908F907F906F90089544
:1006D000EF92FF921F93CF93DF930E941301892B18
:1006E00039F5E1EFF2E0C0E0D0E081918823E1F05C
:1006F00017E01C9FC0011D9F900D11249C012F57D6
:100700003D4F790167E070E0C9010E945501C19F2A
:10071000C001112447E0B70180589F4F0E94DB00C1
:10072000CF50DD4F188204C02196C031D105E9F6C3
:10073000DF91CF911F91FF90EF900895EF92FF927C
:100740000F931F93CF93DF93E82EC0918002D0E0E8
:100750002196CF70DD2780917E0290E00E947D027D
:10076000F82E80917F028F5F813218F480937F0290
:1007700002C010927F0287E08C9F80018D9F100D38
:1007800011240F571D4F80917F02F80180830E9432
:100790006B04F8016183728383839483E582C09341
:1007A000800267E070E0C8010E945501CF50DD4F24
:1007B00081E088838091800290917E02891308C035
:1007C000FF2031F090E001968F70992780937E0290
:1007D000DF91CF911F910F91FF90EF900895E1E885
:1007E000F2E0A1EFB2E08FEF4FEF5FEFBA0191E0DF
:1007F0008083858341835283638374839D9337967B
:1008000022E0E13FF207A1F78FE08093800210928F
:100810007E0210927F0208950F931F93CF93DF9370
:1008200000917E02C02F10E0D0E0CE010E947D0238
:10083000892B29F02196CF701F5F0C13F5CF812FE4
:10084000DF91CF911F910F910895AF92BF92CF92F8
:10085000DF92EF92FF920F931F93CF93DF936B0181
:100860007C018A0159010E940C0490E0A0E0B0E0F4
:10087000C816D906EA06FB06F8F480917E0290E0DD
:10088000C80ED91E8FE0C822DD2487E08C9DF001C0
:100890008D9DF00D1124EF57FD4F81819281A38131
:1008A000B481E80188839983AA83BB838581F5019C
:1008B000808381E090E002C080E090E0DF91CF9102
:1008C0001F910F91FF90EF90DF90CF90BF90AF906E
:1008D00008950C94ED070F931F930E94FC0700915D
:1008E0002503109126032091270330912803600FE0
:1008F000711F821F931F1F910F9108959C0160E942
:1009000071E00E94AB0B892B79F0C90183709927A4
:10091000892B61F4C90164E670E00E94AB0B9C0175
:1009200081E0232B21F402C081E0089580E0089546
:100930002F923F924F925F926F927F928F929F92EF
:10094000AF92BF92CF92DF92EF92FF920F931F93DD
:10095000CF93DF93CDB7DEB767970FB6F894DEBFBE
:100960000FBECDBF2CE0E4E1F1E0AE014F5F5F4F81
:100970001A01DA0101900D922A95E1F7DC012C9120
:10098000220F2056322F330F330F230F11963C9135
:1009900011973153230F2D8713962C911397022E05
:1009A000000C330B205331096AE0629FA001639F62
:1009B000500D11241496CC900C2C000CDD08B0E3E3
:1009C000CB1AD108C40ED51E860101501109FC01B5
:1009D0002681022E000C330B20533109E8EEF3E0A0
:1009E0002E9FA0012F9F500D3E9F500D1124DC0122
:1009F00017962C911797022E000C330B20533109B8
:100A000074E6729F7001739FF00C1124E40EF51EC2
:100A100018964C911897042E000C550B4053510911
:100A2000649F9001659F300D1124E20EF31E19960C
:100A30002C911997F701E20FF11D27FDFA95AF01EF
:100A400058507A011B962C911B97220F2056322F5B
:100A5000330F330F230F1C963C911C973053230FF9
:100A6000298B1E962C911E97220F2056322F330F62
:100A7000330F230F1F963C911F973053230F2A8B60
:100A800051962C915197220F2056322F330F330F4E
:100A9000230F52968C918053280F2B8BCA010E94F2
:100AA0007E04882321F05D85523008F08601C7015D
:100AB00060E971E00E94AB0BFC01DB0120E839E545
:100AC00040E650EF0E94230C2B013C01CF0164E66D
:100AD00070E00E94AB0BFC01DB0120E032EC47E14F
:100AE0005CEB0E94230C4B015C01DF01B695A795DE
:100AF000B695A79520E83FE146E857E00E94230C11
:100B00006B017C01DF01A370BB2720E833E341EEDA
:100B100051E00E94230C6C8B7D8B8E8B9F8BF1019F
:100B20008E2F82199D85891720F48191080F111D40
:100B3000F7CFA9892A2F30E0A0E1BEE00E94140C73
:100B40006D877E878F87988BBA892B2F30E0ACE337
:100B5000B0E00E94140C2D853E854F855889260FE4
:100B6000371F481F591FDA01C9013B89830F911DA7
:100B7000A11DB11D480E591E6A1E7B1E840C951CBA
:100B8000A61CB71CC80CD91CEA1CFB1C8C899D89AF
:100B9000AE89BF89C80ED91EEA1EFB1ED80120E807
:100BA00031E541E050E00E94230CDC01CB018C0DCB
:100BB0009D1DAE1DBF1D8093250390932603A0931A
:100BC0002703B093280367960FB6F894DEBF0FBED5
:100BD000CDBFDF91CF911F910F91FF90EF90DF90EC
:100BE000CF90BF90AF909F908F907F906F905F90CD
:100BF0004F903F902F900C940808EF92FF920F9324
:100C00001F93CF93DF93CDB7DEB768970FB6F894F5
:100C1000DEBF0FBECDBF7B012CE0E4E1F1E0DE01E1
:100C20001D9601900D922A95E1F78E010F5F1F4FDF
:100C30002CE0F80111922A95E9F70E947E048A833C
:100C4000DE011D9680E0F701408151819D91F80100
:100C500021918F0130E0290F311D4217530740F0D9
:100C6000421B530BF701518340838F5F8C3059F740
:100C700068960FB6F894DEBF0FBECDBFDF91CF915F
:100C80001F910F91FF90EF9008954F925F926F9296
:100C90007F928F929F92AF92BF92CF92DF92EF920C
:100CA000FF92CF93DF9300D0CDB7DEB72B013C018D
:100CB00081E090E0A0E0B0E020E8421629E552068D
:100CC00020E6620620EF720618F480E090E0DC0176
:100CD00020E931E0829F5001839FB00C929FB00CBD
:100CE000112480E3A81A88EFB80AC12CD12C760110
:100CF000C39420E8421629E5520620E6620620EF5A
:100D0000720618F4C12CD12C7601A701960160E877
:100D100079E580E690EF0E949B0B73016201C61A91
:100D2000D70AE80AF90A81E090E0A0E0B0E0C11437
:100D300022ECD20627E1E2062CEBF20618F480E062
:100D400090E0DC0144E6489F9001499F300D11245A
:100D5000A20EB31E21E030E040E050E0C11482EC6E
:100D6000D80687E1E8068CEBF80618F420E030E0BE
:100D7000A90160E072EC87E19CEB0E949B0BA7014C
:100D80009601261B370B480B590BCA01B90120E805
:100D90003FE146E857E00E94D30B220F331F220F9A
:100DA000331FA20EB31E20E833E341EE51E00E9450
:100DB000D30B7501E20EF31E20E831E541E050E06F
:100DC0000E94D30B4B015C013A832983BE016F5F04
:100DD0007F4FC7010E94FD05D82EC501B40120E157
:100DE0003EE040E050E00E94D30B29013A014B0164
:100DF0005C0161E671E080E091E00E945C076D2D8E
:100E000070E06F5F7F4F42E080E091E00E946607F4
:100E100069817A816F5F7F4F42E083E091E00E94B9
:100E2000660744E0B70186E091E00E94660742E071
:100E3000B2018BE091E00E946607C501B4012CE38A
:100E400030E040E050E00E94D30B49015A016B01B1
:100E50007C0142E0B4018EE091E00E94660742E02E
:100E6000B60181E191E00E94660780E091E00F9079
:100E70000F90DF91CF91FF90EF90DF90CF90BF90D8
:100E8000AF909F908F907F906F905F904F9008955C
:100E90000F931F930E94FC070091250310912603D6
:100EA0002091270330912803600F711F821F931F29
:100EB0001F910F910C944506FC01DB018D91BD0142
:100EC000882311F08193F9CF108208959F92AF92F9
:100ED000BF92CF92DF92EF92FF920F931F93CF9327
:100EE000DF9300D000D01F92CDB7DEB7FC016B01BD
:100EF0009E012F5F3F4F8E010A5F1F4FEE24E39448
:100F0000F12C9AE0992E9E9C50019F9CB00C1124CC
:100F1000C601B5010E94AB0BB7010E94AB0BD90112
:100F20006D939D01C61AD10867FDD3947501A01772
:100F3000B10749F760E070E084E090E050E0D8014C
:100F40002E918D01211105C06115710511F40097D5
:100F500041F4841795072CF4205D219361E070E043
:100F600004C0841795070CF43196019740F70F9051
:100F70000F900F900F900F90DF91CF911F910F91D5
:100F8000FF90EF90DF90CF90BF90AF909F9008952B
:100F90001F920F920FB60F9211248F939F93AF93CE
:100FA000BF938091010390910203A0910303B0913C
:100FB00004030196A11DB11D8093010390930203C8
:100FC000A0930303B0930403BF91AF919F918F91BE
:100FD0000F900FBE0F901F90189583E294EF90939F
:100FE000890080938800109280008CE080938100BB
:100FF00082E080936F0008952FB7F8946091010309
:101000007091020380910303909104032FBF089510
:101010008FB7F89410920103109202031092030309
:10102000109204038FBF08950E943E0A7894089599
:101030000C94D60ACF93DF93EC018991882319F0A1
:101040000E94D60AFACFDF91CF910895CF93C82F8F
:1010500090E024E0959587952A95E1F78A3010F481
:10106000805D01C0895C0E94D60A8C2F8F708A3007
:1010700010F0895C01C0805DCF910C94D60ACF93AB
:10108000C82F892F0E9426088C2FCF910C942608F8
:101090002F923F924F925F926F927F928F929F9288
:1010A000AF92BF92CF92DF92EF92FF920F931F9376
:1010B000CF93DF93CDB7DEB763970FB6F894DEBF5B
:1010C0000FBECDBF6B017C0197FF0DC0F094E09483
:1010D000D094C094C11CD11CE11CF11C81E090E0B3
:1010E0009B8B8A8B02C01B8A1A8AFE0131965F0194
:1010F0008E01055F1F4FF98BE88B66246394712C7A
:10110000812C912CAAE0B0E09301A4010E94230C51
:101110001B012C01C701B6019101A2010E94F50B30
:101120009301A4010E94F50BE889F9892193F98BB9
:10113000E88B822F220F990BAA0BBB0BC81AD90A76
:10114000EA0AFB0A310142010E171F07D9F68A8904
:101150009B89892B11F08DE201C080E20E94D60AA2
:1011600020E030E0F80182918F01811106C0211545
:10117000310519F4EA15FB0529F4805D0E94D60AB1
:1011800021E030E00A151B0569F763960FB6F89465
:10119000DEBF0FBECDBFDF91CF911F910F91FF90AA
:1011A000EF90DF90CF90BF90AF909F908F907F9007
:1011B0006F905F904F903F902F9008952F923F92A5
:1011C0004F925F926F927F928F929F92AF92BF9257
:1011D000CF92DF92EF92FF920F931F93CF93DF9303
:1011E000CDB7DEB764970FB6F894DEBF0FBECDBFA4
:1011F0008C016115710509F492C0812C912C540168
:10120000CB01A0E0B0E0898B9A8BAB8BBC8BDE016D
:1012100011961D0189899A89AB89BC89881699061E
:10122000AA06BB0608F07BC0812F0E942608802FEB
:10123000807F0E94260880E20E94180861017801E0
:10124000412C512C320141E0B601C7010E94FB0044
:10125000BFEFEB1AFB0AEFEF4E1A5E0A6E0A7E0A28
:10126000FFEF8F1A9F0AAF0ABF0A89899A89AB8953
:10127000BC8988169906AA06BB0650F068019FE053
:10128000C922DD2400E010E032016C0C7D1C09C095
:10129000AFEFCA1ADA0AC7018F709927892B99F61E
:1012A000EDCF0C151D0518F00615170528F085E77C
:1012B00091E00E941A080BC0F801EC19FD09E20D3B
:1012C000F31D80810E94260880E20E9418080F5FAB
:1012D0001F4F0031110529F700E010E0C016D106BC
:1012E00031F080E20E9418080F5F1F4FF7CF810195
:1012F000C801821993098415950558F4F801819164
:101300008F0190EE980F903608F08EE20E94180838
:10131000EFCF89E791E00E941A0887017BCF64969E
:101320000FB6F894DEBF0FBECDBFDF91CF911F91F6
:101330000F91FF90EF90DF90CF90BF90AF909F9074
:101340008F907F906F905F904F903F902F90089577
:101350001F920F920FB60F9211242F933F938F93EA
:101360009F9320910B0330910C0380910703909180
:1013700008032817390749F080910B0390910C035B
:10138000019690930C0380930B0320910D033091F1
:101390000E038091090390910A032817390749F039
:1013A00080910D0390910E03019690930E0380930C
:1013B0000D039F918F913F912F910F900FBE0F9032
:1013C0001F90189589EF87BD82E084BD93E095BD9D
:1013D00080936E0008958230910550F4F894880F40
:1013E000991FFC01E55FFC4F8081918178940895FD
:1013F00080E090E008958230910598F4880F991F5D
:10140000FC01E55FFC4F20813181FC01E95FFC4F6D
:1014100081E090E0408151814217530721F080E044
:10142000089580E090E008950F931F93CF93DF938A
:10143000EC018B018091050390910603892B41F407
:101440000E94E20981E090E09093060380930503F7
:10145000C230D10570F48FB7F894CC0FDD1FFE01B8
:10146000E95FFC4F11830083C55FDC4F198218824E
:101470008FBFDF91CF911F910F9108951092C000FF
:1014800087E690E09093C5008093C400E1ECF0E023
:1014900088E1808386E08093C2008081806A8083B7
:1014A00008951F920F920FB60F9211242F938F93CE
:1014B0009F93EF93FF93809111032091120390E08B
:1014C000821B910901978F739927892B79F0E091FD
:1014D0001203F0E08091C600E75DFC4F80838091AD
:1014E00012038F5F8F738093120302C08091C60036
:1014F000FF91EF919F918F912F910F900FBE0F90C1
:101500001F9018951F920F920FB60F9211242F93D0
:101510008F939F93EF93FF938091100320910F037C
:1015200090E0821B91098F739927892B79F0E091C4
:101530000F03F0E0E759FC4F80818093C600809153
:101540000F038F5F8F7380930F0305C08091C100DD
:101550008F7D8093C100FF91EF919F918F912F918B
:101560000F900FBE0F901F901895809112039091CD
:101570001103891B8F730895809112032091110329
:1015800090E0821B91098F739927892B69F0E09174
:101590001103F0E0E75DFC4F8081909111039F5FA4
:1015A0009F7390931103089580E008950FB607FE8E
:1015B0000EC020910F039091100330E0291B3109D8
:1015C000215031092F733327232B99F30DC020911C
:1015D0000F039091100330E0291B3109215031098C
:1015E0002F733327232B61F0E0911003F0E0E759CC
:1015F000FC4F8083809110038F5F8F738093100363
:101600008091C10080628093C10008951F93CF93A1
:10161000DF93EC0180E011E0180FFE01E80FF11DEF
:101620008081882321F00E94D60A812FF4CFDF9198
:10163000CF911F9108951F93CF93DF93EC0180E02A
:1016400011E0180FFE01E80FF11D8491882321F0AD
:101650000E94D60A812FF4CFDF91CF911F91089578
:101660000E9414080E94C0000E9471020E94A302FE
:101670000E9469040E94EC0180E291E00E94050250
:1016800088E291E00E9498048CE391E00E941A089D
:1016900046E364ED71E080E090E00E94FB0041E1F0
:1016A00063E173E080E490E00E94FB0088ED91E04C
:1016B0000E941A088EE591E00E941A0884EE91E0DB
:1016C0000E941A088EE591E00E941A0883E193E0D7
:1016D0000E941A088EE591E00E941A0881E3809327
:1016E0001F0342E163E173E080E490E00E94DB00CD
:1016F0000E94EF038AEA0E949E038BEB0E949E03E6
:101700008CEC0E949E03C0E0D0E00E9417020E9471
:1017100068030E9453000E941301892BB1F7CD2B5F
:1017200019F0C1E0D0E0F1CF60E071E080E090E03E
:101730000E94DE08F6CFDB018F939F930E94230C5B
:10174000BF91AF91A29F800D911DA39F900DB29F5D
:10175000900D11240895AA1BBB1B51E107C0AA1FBD
:10176000BB1FA617B70710F0A61BB70B881F991F42
:101770005A95A9F780959095BC01CD01089597FBE6
:10178000072E16F4009407D077FD09D00E94AB0B0A
:1017900007FC05D03EF4909581959F4F0895709574
:1017A00061957F4F0895A1E21A2EAA1BBB1BFD0174
:1017B0000DC0AA1FBB1FEE1FFF1FA217B307E40730
:1017C000F50720F0A21BB30BE40BF50B661F771F88
:1017D000881F991F1A9469F7609570958095909568
:1017E0009B01AC01BD01CF010895052E97FB1EF4AE
:1017F00000940E940C0C57FD07D00E94D30B07FCED
:1018000003D04EF40C940C0C5095409530952195D6
:101810003F4F4F4F5F4F089590958095709561951C
:101820007F4F8F4F9F4F0895A29FB001B39FC0017C
:10183000A39F700D811D1124911DB29F700D811DFC
:101840001124911D08950E94140CA59F900DB49F22
:10185000900DA49F800D911D11240895F894FFCF41
:10186000030B443100802500002D00040B443000A0
:10187000802500002D0002060024F400010C617494
:081880006D6567613332380029
:1018880030302F30302F303030302030303A303058
:101898003A3030001F1C1F1E1F1E1F1F1E1F1E1F39
:1018A8002D2D2D202D2E2D0030312F30312F32307F
:1018B80031392030303A30303A30300053455220F8
:1018C8003438362050726F6A6563742032202D20B8
:1018D800416E6472657720476F6F646D616E0A0DA3
:1018E8000030302F30302F303030302030303A3028
:0C18F800303A303000202020000D0A00A3
:00000001FF
