:100000000C943D000C945A000C945A000C945A0025
:100010000C945A000C945A000C9440010C945A0011
:100020000C945A000C945A000C945A000C94BC097D
:100030000C945A000C945A000C94F6010C945A003B
:100040000C945A000C945A000C943E100C946611B7
:100050000C945A000C945A000C94C8020C945A0048
:100060000C945A000C945A007000840094008C0088
:1000700078009B00A800AD00B60011241FBECFEF92
:10008000D8E0DEBFCDBF13E0A0E0B1E0EEEEF6E2D7
:1000900002C005900D92A63BB107D9F725E0A6EB6B
:1000A000B3E001C01D92AB3AB207E1F70E944912DA
:1000B0000C9461130C940000CF92DF92EF92FF92A8
:1000C0000F931F93E091B603CE2ED12CF6013197FA
:1000D000E930F10508F05FC0EC5CFF4F0C94411370
:1000E0008417950744F086E090E00E946C011FC0E1
:1000F00084179507E4F4081719070CF44FC088E03B
:1001000090E00E946C0145C08617970744F085E097
:1001100090E00E946C010DC08617970754F4841775
:100120009507E4F585E038C086179707BCF582E0AF
:1001300033C083E031C0281739072CF087E090E006
:100140000E946C010DC00817190744F589E024C00E
:10015000281739071CF588E01FC02817390714F045
:1001600087E01AC0481759078CF318C08417950701
:100170006CF082E08093B60386E090E01F910F91CF
:10018000FF90EF90DF90CF900C946C010817190747
:100190002CF086E001C081E08093B6031F910F919F
:1001A000FF90EF90DF90CF90089581E08093B603A9
:1001B000089581E08093B6030895AC0180919F0477
:1001C0009091A0048417950744F421E090E0411534
:1001D00054400CF420E0822F089581E090E00895CF
:1001E000AC018091A3049091A4048417950764F452
:1001F00021E090E060919D0470919E04461757079E
:100200000CF420E0822F089581E090E0089521E031
:1002100030E04091A3045091A4048417950714F48E
:1002200020E030E0C9010895AC018091A1049091D3
:10023000A2048417950764F421E090E060919F0484
:100240007091A004461757070CF420E0822F089500
:1002500081E090E00895E0E6F0E01082A8958081CA
:10026000886180838FE080838FB780688FBF8081B3
:10027000886480830895A895089510926000089579
:100280001F920F920FB60F9211242F933F934F930B
:100290005F936F937F938F939F93AF93BF93EF93EE
:1002A000FF930E94640382E00E942C050E94FA04DE
:1002B0000E94E201FF91EF91BF91AF919F918F91C9
:1002C0007F916F915F914F913F912F910F900FBE52
:1002D0000F901F9018950895CF93DF93EC018FEC4A
:1002E00091E00E940F0ABE0180E090E00E943D0A6A
:1002F00084EF91E0DF91CF910C940F0A81E080931D
:10030000B703089580919904813461F480919A042F
:10031000833541F481E090E020919B04253521F064
:1003200080E002C080E090E0E9E9F4E020E0319173
:10033000230F34E0EC3AF307D1F7222311F080E0E9
:1003400090E0089562E170E082E091E00E94D90EB1
:1003500042E162E071E080E490E00C940E030E94C0
:100360005703892BE1F742E169E974E080E490E00A
:100370000E9442030E948201892B49F40E94A2013B
:1003800042E169E974E080E490E00E944203109247
:10039000B70308950E945703892B99F48091B703FE
:1003A000882379F062E170E089E994E00E94D90E37
:1003B00042E169E974E080E490E00E940E0310924B
:1003C000B70308958091B703882379F062E170E064
:1003D00089E994E00E94D90E42E169E974E080E481
:1003E00090E00E942B031092B70308951F920F9282
:1003F0000FB60F9211242F933F938F939F93AF9338
:10040000BF932091C2033091C3038091BA039091AE
:10041000BB032817390749F08091C2039091C303A9
:1004200001969093C3038093C2032091C40330913B
:10043000C5038091BC039091BD032817390749F08B
:100440008091C4039091C50301969093C503809356
:10045000C4038091BE039091BF03A091C003B091EB
:10046000C1030196A11DB11D8093BE039093BF03EC
:10047000A093C003B093C103BF91AF919F918F919F
:100480003F912F910F900FBE0F901F90189589EFFD
:1004900087BD82E084BD93E095BD789480936E0023
:1004A0001092BE031092BF031092C0031092C103BA
:1004B00008958230910550F4F894880F991FFC013B
:1004C000EE53FC4F808191817894089580E090E014
:1004D00008958230910598F4880F991FFC01EE531E
:1004E000FC4F20813181FC01E654FC4F81E090E01B
:1004F000408151814217530721F080E0089580E048
:1005000090E008950F931F93CF93DF93EC018B013D
:100510008091B8039091B903892B41F40E9447025E
:1005200081E090E09093B9038093B803C230D10585
:1005300070F48FB7F894CC0FDD1FFE01E654FC4F2A
:1005400011830083CE53DC4F198218828FBFDF9155
:10055000CF911F910F9108958091B8039091B903A5
:10056000892B41F40E94470281E090E09093B90307
:100570008093B803F8946091BE037091BF0380919B
:10058000C0039091C10378940895FA9AF99A089556
:100590001F920F920FB60F9211242F933F934F93F8
:1005A0005F936F937F938F939F93AF93BF93EF93DB
:1005B000FF93E091EF048091AE04E81720F0FB98E0
:1005C0001092AB041AC08091AC049091AD0492BD1E
:1005D00081BD81E08E0F8093EF04F0E0E155FB4F89
:1005E000808180BD8091AC049091AD040196909380
:1005F000AD048093AC040E94C502FF91EF91BF91BE
:10060000AF919F918F917F916F915F914F913F91AA
:100610002F910F900FBE0F901F9018952091AB0453
:100620002111FCCF9093AD048093AC0481E08093C2
:10063000AB041092EF044093AE04962FAFEAB4E0FF
:10064000FB018E2F891B841718F481918D93F9CFAC
:100650007894FB9A0895FB01861B970B50E0DC0110
:10066000AE0FBF1F9F01261B370B2417350748F419
:10067000F999FECFB2BDA1BD219120BDFA9AF99A98
:10068000EECF08952091AB042111FCCFFB01861B16
:10069000970B2E2F261B241748F49C012E0F3F1F6B
:1006A00032BD21BDF89A20B52193F3CF08958091F2
:1006B000AB0490E0089560E070E080E090E00E947C
:1006C0008202219A29980895299A089529980895CF
:1006D0009093C7038093C6031092CA031092C90374
:1006E0001092C80360E070E080E090E00E94820217
:1006F0000C9466038091C6039091C703892B09F47B
:1007000052C080E090E00E946902892B09F44BC03E
:100710008091C803811134C02091C9033091CA036C
:10072000E091C603F091C703E20FF31F808180328E
:10073000E9F03CF481111DC01092CA031092C90364
:1007400008958D3239F08E32A1F40E9464036AEF6D
:1007500070E004C00E9464036EEE72E080E090E0FE
:100760000E94820281E08093C803089568EE73E0DE
:100770000BC02F5F3F4F3093CA032093C9030895E6
:100780000E94660364E670E080E090E00E948202CE
:100790001092C8038091C9039091CA030196909367
:1007A000CA038093C903089585B18695817090E04E
:1007B00008958031910504F527E0289FA001299F25
:1007C000500D1124FA01E253FC4F80818132A0F4D4
:1007D00080E090E020E0FA01E80FF91FE253FC4FBF
:1007E0003081230F019687309105A9F781E090E0D1
:1007F000222321F080E0089580E090E008956F9238
:100800007F928F929F92AF92BF92CF92DF92EF92A0
:10081000FF920F931F93CF93DF930E945703892B6F
:10082000E1F70EE314E0C0E8D0E0BE01625B7C4F6C
:1008300047E0CE010E944203F80111928F012796F2
:10084000C03FD10591F74EECE42E43E0F42E870132
:10085000C0E0D0E0D12CB12C77247A94CE010E9454
:10086000D903892B41F0F8018081871520F4BC2E33
:10087000782EDD24D3942196095F1F4FC031D10516
:1008800069F7DD2009F46AC0B092CD037092CC0301
:10089000CB2DD0E08E010F5F1F4F872C2FE0A22EB3
:1008A00037E0932E6801FFE0CF22DD24C6010E94CD
:1008B000D903892B61F4B092CB038E010150110949
:1008C000609780E1A82EB12C97E0692E3AC09C9CDD
:1008D000F0019D9CF00D1124E253FC4F4081242F28
:1008E00030E0882D90E001968F71992728173907FD
:1008F00011F7C092CD034093CC03AA940F5F1F4F12
:10090000AA20C9F2842ECECFF701208130E0872DB6
:1009100090E04F968F7199272817390731F5C092CB
:10092000CB03689CF001699CF00D1124E253FC4F4D
:10093000708001501109F7E0EF0EF11C0C171D0734
:10094000A1F0C801B5010E94EC126C014C01992480
:10095000C4010E94D903892BB9F607C08FE08093A8
:10096000CD031092CC031092CB03DF91CF911F9156
:100970000F91FF90EF90DF90CF90BF90AF909F903E
:100980008F907F906F900895EF92FF921F93CF9377
:10099000DF930E945703892B39F5EEE3F4E0C0E0C2
:1009A000D0E081918823E1F017E01C9FC0011D9FDA
:1009B000900D11249C0122533C4F790167E070E0B7
:1009C000C9010E94D90EC19FC001112447E0B7019F
:1009D00080589F4F0E940E03C25CDB4F188204C0F8
:1009E0002196C031D105E9F6DF91CF911F91FF909B
:1009F000EF900895EF92FF921F93CF93DF93EEE372
:100A0000F4E0C0E0D0E081918823E1F017E01C9F82
:100A1000C0011D9F900D11249C0122533C4F790170
:100A200067E070E0C9010E94D90EC19FC001112486
:100A300047E0B70180589F4F0E942B03C25CDB4FF9
:100A4000188204C02196C031D105E9F6DF91CF911B
:100A50001F91FF90EF900895EF92FF920F931F93D5
:100A6000CF93DF93E82EC091CD03D0E02196CF70D5
:100A7000DD278091CB0390E00E94D903F82E80916E
:100A8000CC038F5F813218F48093CC0302C01092A4
:100A9000CC0387E08C9F80018D9F100D11240253A1
:100AA0001C4F8091CC03F80180830E94F905F80166
:100AB0006183728383839483E582C093CD0367E06F
:100AC00070E0C8010E94D90EC25CDB4F81E08883D0
:100AD0008091CD039091CB03891308C0FF2031F0A2
:100AE00090E001968F7099278093CB03DF91CF918F
:100AF0001F910F91FF90EF900895EEECF3E0AEE3BD
:100B0000B4E08FEF4FEF5FEFBA0191E08083858310
:100B100041835283638374839D93379624E0EE333D
:100B2000F207A1F78FE08093CD031092CB031092D0
:100B3000CC0308950F931F93CF93DF930091CB03C2
:100B4000C02F10E0D0E0CE010E94D903892B29F0FC
:100B50002196CF701F5F0C13F5CF812FDF91CF91BE
:100B60001F910F910895AF92BF92CF92DF92EF92B3
:100B7000FF920F931F93CF93DF936B017C018A0148
:100B800059010E949A0590E0A0E0B0E0C816D9068D
:100B9000EA06FB06F8F48091CB0390E0C80ED91E5C
:100BA0008FE0C822DD2487E08C9DF0018D9DF00D43
:100BB0001124E253FC4F81819281A381B481E80129
:100BC00088839983AA83BB838581F501808381E033
:100BD00090E002C080E090E0DF91CF911F910F91F3
:100BE000FF90EF90DF90CF90BF90AF9008950C945E
:100BF000E1090C94F1096093F0047093F10480937F
:100C0000F2049093F3040C94FD099C0160E971E0F7
:100C10000E94D812892B79F0C90183709927892BFA
:100C200061F4C90164E670E00E94D8129C0181E081
:100C3000232B21F402C081E0089580E008952F92D3
:100C40003F924F925F926F927F928F929F92AF925C
:100C5000BF92CF92DF92EF92FF920F931F93CF93A9
:100C6000DF93CDB7DEB767970FB6F894DEBF0FBE40
:100C7000CDBF2CE0E0E3F1E0AE014F5F5F4F1A0122
:100C8000DA0101900D922A95E1F7DC012C91220FF7
:100C90002056322F330F330F230F11963C911197AB
:100CA0003153230F2D8713962C911397022E000C8E
:100CB000330B205331096AE0629FA001639F500DFE
:100CC00011241496CC900C2C000CDD08B0E3CB1A48
:100CD000D108C40ED51E860101501109FC012681E0
:100CE000022E000C330B20533109E8EEF3E02E9F67
:100CF000A0012F9F500D3E9F500D1124DC0117962F
:100D00002C911797022E000C330B2053310974E6F7
:100D1000729F7001739FF00C1124E40EF51E18965B
:100D20004C911897042E000C550B40535109649FA9
:100D30009001659F300D1124E20EF31E19962C913F
:100D40001997F701E20FF11D27FDFA95AF015850F1
:100D50007A011B962C911B97220F2056322F330FAE
:100D6000330F230F1C963C911C973053230F298B74
:100D70001E962C911E97220F2056322F330F330FC1
:100D8000230F1F963C911F973053230F2A8B5196A8
:100D90002C915197220F2056322F330F330F230FF0
:100DA00052968C918053280F2B8BCA010E94050606
:100DB000882321F05D85523008F08601C70160E983
:100DC00071E00E94D812FC01DB0120E839E540E621
:100DD00050EF0E9456132B013C01CF0164E670E0F6
:100DE0000E94D812FC01DB0120E032EC47E15CEB11
:100DF0000E9456134B015C01DF01B695A795B6958D
:100E0000A79520E83FE146E857E00E9456136B01A2
:100E10007C01DF01A370BB2720E833E341EE51E002
:100E20000E9456136C8B7D8B8E8B9F8BF1018E2FC6
:100E300082199D85891720F48191080F111DF7CF24
:100E4000A9892A2F30E0A0E1BEE00E9447136D87F8
:100E50007E878F87988BBA892B2F30E0ACE3B0E088
:100E60000E9447132D853E854F855889260F371FD1
:100E7000481F591FDA01C9013B89830F911DA11D2C
:100E8000B11D480E591E6A1E7B1E840C951CA61CA3
:100E9000B71CC80CD91CEA1CFB1C8C899D89AE8927
:100EA000BF89C80ED91EEA1EFB1ED80120E831E515
:100EB00041E050E00E945613DC01CB018C0D9D1DDA
:100EC000AE1DBF1D8093F0049093F104A093F20433
:100ED000B093F30467960FB6F894DEBF0FBECDBF94
:100EE000DF91CF911F910F91FF90EF90DF90CF9006
:100EF000BF90AF909F908F907F906F905F904F903A
:100F00003F902F900C94FD09EF92FF920F931F9347
:100F1000CF93DF93CDB7DEB768970FB6F894DEBFF7
:100F20000FBECDBF7B012CE0E0E3F1E0DE011D96BA
:100F300001900D922A95E1F78E010F5F1F4F2CE073
:100F4000F80111922A95E9F70E9405068A83DE01CD
:100F50001D9680E0F701408151819D91F80121911A
:100F60008F0130E0290F311D4217530740F0421B1B
:100F7000530BF701518340838F5F8C3059F768968C
:100F80000FB6F894DEBF0FBECDBFDF91CF911F919A
:100F90000F91FF90EF9008954F925F926F927F9222
:100FA0008F929F92AF92BF92CF92DF92EF92FF9279
:100FB000CF93DF9300D0CDB7DEB72B013C0181E0AA
:100FC00090E0A0E0B0E020E8421629E5520620E6D5
:100FD000620620EF720618F480E090E0DC0120E960
:100FE00031E0829F5001839FB00C929FB00C11247E
:100FF00080E3A81A88EFB80AC12CD12C7601C394DB
:1010000020E8421629E5520620E6620620EF720625
:1010100018F4C12CD12C7601A701960160E879E57E
:1010200080E690EF0E94C81273016201C61AD70AC7
:10103000E80AF90A81E090E0A0E0B0E0C11422ECF7
:10104000D20627E1E2062CEBF20618F480E090E0ED
:10105000DC0144E6489F9001499F300D1124A20E07
:10106000B31E21E030E040E050E0C11482ECD8062D
:1010700087E1E8068CEBF80618F420E030E0A901DF
:1010800060E072EC87E19CEB0E94C812A701960118
:10109000261B370B480B590BCA01B90120E83FE169
:1010A00046E857E00E940013220F331F220F331F20
:1010B000A20EB31E20E833E341EE51E00E9400137C
:1010C0007501E20EF31E20E831E541E050E00E9498
:1010D00000134B015C013A832983BE016F5F7F4F90
:1010E000C7010E948407D82EC501B40120E13EE06B
:1010F00040E050E00E94001329013A014B015C01DD
:1011000069ED71E084E191E00E9410096D2D70E0BD
:101110006F5F7F4F42E084E191E00E942309698183
:101120007A816F5F7F4F42E087E191E00E9423095F
:1011300044E0B7018AE191E00E94230942E0B20154
:101140008FE191E00E942309C501B4012CE330E056
:1011500040E050E00E94001349015A016B017C01FC
:1011600042E0B40182E291E00E94230942E0B6012C
:1011700085E291E00E94230984E191E00F900F90B5
:10118000DF91CF91FF90EF90DF90CF90BF90AF9025
:101190009F908F907F906F905F904F9008950F93E6
:1011A0001F930E94F1090091F0041091F104209125
:1011B000F2043091F304600F711F821F931F1F917F
:1011C0000F910C94CC07FB01480F591F841795070A
:1011D00029F02191DC012D93CD01F8CF0895480F1E
:1011E000591F8417950721F0FC016193CF01F9CFB6
:1011F0000895FB01480F591F8417950759F0DC012A
:101200003D91CD012191321740F02317A8F781E0DD
:1012100090E0089580E090E008958FEF9FEF0895AB
:10122000FC01DB018D91BD01882311F08193F9CF81
:1012300010820895FC019F01281B390B4191411137
:10124000FACFC90108959F92AF92BF92CF92DF92D9
:10125000EF92FF920F931F93CF93DF9300D000D0B4
:101260001F92CDB7DEB7FC016B019E012F5F3F4F90
:101270008E010A5F1F4FEE24E394F12C9AE0992E21
:101280009E9C50019F9CB00C1124C601B5010E9488
:10129000D812B7010E94D812D9016D939D01C61AC8
:1012A000D10867FDD3947501A017B10749F760E035
:1012B00070E084E090E050E0D8012E918D01211182
:1012C00005C06115710511F4009741F48417950765
:1012D0002CF4205D219361E070E004C08417950731
:1012E0000CF43196019740F70F900F900F900F90EC
:1012F0000F90DF91CF911F910F91FF90EF90DF90B2
:10130000CF90BF90AF909F90089588EC80937C0021
:1013100086E880937A00089580917A008295869578
:101320008695837091E08927817090E00895EAE7BF
:10133000F0E080818064808308958091780020911E
:10134000790030E0322F2227A901330F660B770B8B
:101350009A01AB01282BA5E6B0E00E94561324E6C3
:1013600030E040E050E00E942213DA01C9018151CF
:101370009140A109B10908951F920F920FB60F92E3
:1013800011248F939F93AF93BF9380914E049091BC
:101390004F04A0915004B09151040196A11DB11DBC
:1013A00080934E0490934F04A0935004B093510443
:1013B000BF91AF919F918F910F900FBE0F901F9093
:1013C000189583E294EF909389008093880010929F
:1013D00080008CE080938100789482E080936F009D
:1013E00008952FB7F89460914E0470914F04809146
:1013F0005004909151042FBF08958FB7F894109224
:101400004E0410924F0410925004109251048FBF5A
:1014100008950E942B10789408950C94EF11CF93A7
:10142000DF93EC018991882319F00E94EF11FACF24
:10143000DF91CF910895CF93C82F90E024E0959548
:1014400087952A95E1F78A3010F4805D01C0895CA8
:101450000E94EF118C2F8F708A3010F0895C01C0D0
:10146000805DCF910C94EF11CF93C82F892F0E94EC
:101470001B0A8C2FCF910C941B0A2F923F924F92F4
:101480005F926F927F928F929F92AF92BF92CF9214
:10149000DF92EF92FF920F931F93CF93DF93CDB71D
:1014A000DEB763970FB6F894DEBF0FBECDBF6B01FA
:1014B0007C0197FF0DC0F094E094D094C094C11CBF
:1014C000D11CE11CF11C81E090E09B8B8A8B02C057
:1014D0001B8A1A8AFE0131965F018E01055F1F4F3C
:1014E000F98BE88B66246394712C812C912CAAE0F3
:1014F000B0E09301A4010E9456131B012C01C70107
:10150000B6019101A2010E9422139301A4010E943D
:101510002213E889F9892193F98BE88B822F220F16
:10152000990BAA0BBB0BC81AD90AEA0AFB0A3101AC
:1015300042010E171F07D9F68A899B89892B19F05A
:101540008DE20E94EF1120E030E0F80182918F01DE
:10155000811106C02115310519F4EA15FB0529F49E
:10156000805D0E94EF1121E030E00A151B0569F74C
:1015700063960FB6F894DEBF0FBECDBFDF91CF915B
:101580001F910F91FF90EF90DF90CF90BF90AF90A1
:101590009F908F907F906F905F904F903F902F9093
:1015A00008950C94C5110C94EC11FF920F931F93A6
:1015B000CF93DF93EC01062FF72E18820E94C511FE
:1015C00010E08823D9F00E9499118823B9F00E9475
:1015D000A011803210F089931F5FE02FFF2D482F5C
:1015E00050E02191222339F0022E000C330B4217D8
:1015F0005307B9F702C08D3051F71882812FDF9160
:10160000CF911F910F91FF9008950F931F93CF9348
:10161000DF938C01EC01699170E080E090E00E9422
:101620003D0A0C5F1F4F8EE20E94EF11699170E03E
:1016300080E090E00E943D0AC017D107A1F784EF37
:1016400091E0DF91CF911F910F910C940F0ACF93EE
:10165000DF93EC0182E20E940D0ACE010E940F0A84
:1016600082E2DF91CF910C940D0A8DEE91E00C9403
:101670000F0ADC01809152048D3229F48FEF9FEF25
:10168000E3E5F4E004C081E090E0E2E5F4E01196E7
:101690001C921E926AE040812D913C911197442347
:1016A000C1F0629FA001639F500D112411965C93BD
:1016B0004E93219130ED320F3A30B8F4022E000CE7
:1016C000330B20533109240F351F11963C932E9371
:1016D000E2CF289FA001299F500D389F500D112463
:1016E0004D935C9381E090E0089580E090E0089550
:1016F0000C940D0A0C940F0A0C941B0A0C94340AD7
:101700000C943D0A0C94C5110C94EC11FF920F93AC
:101710001F93CF93DF93EC01062FF72E18820E94C0
:10172000C51110E08823D9F00E9499118823B9F0DF
:101730000E94A011803210F089931F5FE02FFF2DCF
:10174000482F50E02191222339F0022E000C330B58
:1017500042175307B9F702C08D3051F71882812F15
:10176000DF91CF911F910F91FF90089567EF71E086
:1017700082E594E00E94860B882349F0E82FF0E090
:10178000EF5AFB4F80818F3289F3803279F30895CD
:101790000F931F93CF93DF9300D000D01F92CDB74C
:1017A000DEB767EF71E082E594E00E94860B6AEF96
:1017B00071E082E594E00E94BE0E892B09F0BBC166
:1017C00067EF71E082E594E00E94860B65E773E0C5
:1017D00082E594E00E94BE0E892B09F081C267EF7A
:1017E00071E082E594E00E94860B6FEF71E082E584
:1017F00094E00E94BE0E892B09F072C282E193E050
:101800000E940F0A84EF91E00E940F0A86E092E0A6
:101810000E940F0A84EF91E00E940F0A80E192E09B
:101820000E940F0A88EF94E00E94270B8CE20E942E
:101830000D0A84EF91E00E940F0A8DE192E00E9470
:101840000F0A84E095E00E94270B8CE20E940D0AAB
:1018500084EF91E00E940F0A81E392E00E940F0A58
:1018600080E195E00E94270B8CE20E940D0A84EF34
:1018700091E00E940F0A86E492E00E940F0A6091B4
:101880001C0570911D0580911E0590911F050E94F9
:10189000CC078C01FC01128682E20E940D0AC8016D
:1018A0000E940F0A82E20E940D0A8CE20E940D0A39
:1018B00084EF91E00E940F0A8EE592E00E940F0AE9
:1018C000809120050E941B0A01E215E08AE30E9434
:1018D0000D0AF80181918F010E941B0AF5E0063282
:1018E0001F07A1F782E792E00E940F0A84EF91E0C0
:1018F0000E940F0A85E792E00E940F0A86E295E0B7
:101900000E94270B84EF91E00E940F0A85E393E089
:101910000E940F0A84EF91E00E940F0A89E892E08A
:101920000E940F0A60919D0470919E04072E000C86
:10193000880B990B0E943D0A8CE20E940D0A84EFED
:1019400091E00E940F0A87E992E00E940F0A6091DD
:101950009F047091A004072E000C880B990B0E9425
:101960003D0A8CE20E940D0A84EF91E00E940F0A6A
:1019700085EA92E00E940F0A6091A1047091A2048E
:10198000072E000C880B990B0E943D0A8CE20E94E6
:101990000D0A84EF91E00E940F0A83EB92E00E940F
:1019A0000F0A6091A3047091A404072E000C880B09
:1019B000990B0E943D0A8CE20E940D0A84EF91E08F
:1019C0000E940F0A81EC92E00E940F0A60910001D0
:1019D00070910101072E000C880B990B0E943D0AA3
:1019E0008CE20E940D0A84EF91E00E940F0A82EDC2
:1019F00092E00E940F0A80910001909101012091D4
:101A00009D0430919E04821793071CF08DED92E0A7
:101A100020C020919F043091A004821793071CF0EE
:101A200085EE92E016C02091A3043091A4042817FB
:101A300039071CF48DEE92E00CC02091A104309186
:101A4000A204281739071CF484EF92E002C08CEF3F
:101A500092E00E940F0A8CE20E940D0A84EF91E04E
:101A60000E940F0A84E093E00E940F0A84EF91E045
:101A70000E940F0A10E00E949A05181708F048C04B
:101A8000812F90E0A0E0B0E09E012B5F3F4FAE01C0
:101A90004F5F5F4FBC01CD010E94B305112339F0A8
:101AA0008CE20E940D0A84EF91E00E940F0A8EE002
:101AB00093E00E940F0A84EF91E00E940F0A84E1F4
:101AC00093E00E940F0A82E20E940D0A69817A81E6
:101AD0008B819C810E94CC070E940F0A82E20E94A7
:101AE0000D0A8CE20E940D0A87E293E00E940F0A21
:101AF0006D8170E080E090E00E943D0A84EF91E00B
:101B00000E940F0A83E393E00E940F0A1F5FB3CF86
:101B100084EF91E00E940F0A89E393E00E940F0A8C
:101B200084EF91E00E940F0A87E393E00E940F0A7E
:101B300084EF91E017C16DE373E082E594E00E94C9
:101B4000BE0E892B09F0D8C067EF71E082E594E002
:101B50000E94860B65E773E082E594E00E94BE0E6A
:101B6000892B09F0BDC062E473E082E594E00E9435
:101B7000860B66E473E082E594E00E94BE0E892B3A
:101B800089F56EE473E082E594E00E94860B62E5DD
:101B900073E082E594E00E94BE0E892B09F0A0C09C
:101BA00067EF71E082E594E00E94860B69E573E0DF
:101BB00082E594E00E94BE0E892B29F481E693E031
:101BC0000E940F0A8FC068E673E082E594E00E94ED
:101BD000BE0E892B09F084C081E693E00E940F0AB3
:101BE0000E943D016FE673E082E594E00E94BE0E24
:101BF000892B09F075C062E473E082E594E00E94ED
:101C0000860B67E773E082E594E00E94BE0E892BA5
:101C100009F066C06FE773E082E594E00E94860BEE
:101C200062E873E082E594E00E94BE0E892B91F495
:101C300067EF71E082E594E00E94860BCE01019689
:101C40000E94390B892B09F44BC089819A810E942B
:101C5000DD004FC06CE873E082E594E00E94BE0EA8
:101C6000892B89F467EF71E082E594E00E94860B8E
:101C7000CE0101960E94390B892B91F189819A81BD
:101C80000E94F00036C066E973E082E594E00E94AD
:101C9000BE0E892B89F467EF71E082E594E00E9423
:101CA000860BCE0101960E94390B892BC9F08981E0
:101CB0009A810E9407011DC060EA73E082E594E00A
:101CC0000E94BE0E892B61F467EF71E082E594E01B
:101CD0000E94860BCE0101960E94390B892B29F4B4
:101CE0000E94350B0E94B60B3FC089819A810E94E9
:101CF0001401892BA9F1F4CF6AEA73E082E594E03C
:101D00000E94BE0E892B61F767EF71E082E594E0D7
:101D10000E94860B65E773E082E594E00E94BE0EA8
:101D2000892BF1F667EF71E082E594E00E94860B63
:101D30006FE673E082E594E00E94BE0E892B81F687
:101D400067EF71E082E594E00E94860B62EB73E03E
:101D500082E594E00E94BE0E892B11F60E947D055B
:101D600081E693E00E940F0A0F900F900F900F9062
:101D70000F90DF91CF911F910F910895DC01FB012E
:101D80009D91992341F08191891784F09817C4F7A8
:101D90008FEF9FEF089581E090E02081211102C034
:101DA00080E090E0919581959109089581E090E01F
:101DB0000895DC0190E020E061507109422F50E06D
:101DC000FD01E40FF51F4617570720F48081980F97
:101DD0002F5FF4CF9195908308956115710581056A
:101DE000910541F060932C0170932D0180932E0199
:101DF00090932F01211531054105510541F02093A4
:101E000028013093290140932A0150932B01089512
:101E10004F925F926F927F928F929F92AF92BF92FA
:101E2000CF92DF92EF92FF92CF93DF9300D000D05A
:101E3000CDB7DEB72B013C0129833A834B835C830A
:101E4000C0902801D0902901E0902A01F0902B0148
:101E5000A701960144275527A9E6B0E90E94561329
:101E60006701EE24FF244B015C018C0C9D1CAE1C11
:101E7000BF1C8092280190922901A0922A01B09261
:101E80002B01C0902C01D0902D01E0902E01F090FC
:101E90002F01A701960144275527A0E5B6E40E942B
:101EA00056136701EE24FF24C60ED71EE81EF91E46
:101EB000C0922C01D0922D01E0922E01F0922F01C0
:101EC000D40199278827BC01CD016C0D7D1D8E1D85
:101ED0009F1D29813A814B815C812419350946096E
:101EE00057090E940013CB01840D951D0F900F9090
:101EF0000F900F90DF91CF91FF90EF90DF90CF90F8
:101F0000BF90AF909F908F907F906F905F904F9019
:101F10000895CF93DB01FC0120812D3221F401963D
:101F20006FEF7FEF02C061E070E011961C921E928D
:101F3000FC01CAE020818D919C9111972223C1F070
:101F4000C89FA001C99F500D112411965C934E9318
:101F5000219180ED820F8A30B8F4022E000C330BF1
:101F600020533109240F351F11963C932E93E2CF55
:101F7000869F9001879F300D969F300D11242D93E1
:101F80003C9381E090E002C080E090E0CF91089522
:101F90008091F404833561F48091F504853441F433
:101FA00081E090E02091F604223521F080E002C02B
:101FB00080E090E0E4EFF4E020E03191230F35E0A1
:101FC000EC32F307D1F7222311F080E090E008957E
:101FD000CF93DF93CDB7DEB7E7970FB6F894DEBFA8
:101FE0000FBECDBF87E3ECE3F1E0DE011196019077
:101FF0000D928A95E1F767E370E0CE0101960E94A9
:10200000D90E47E3BE016F5F7F4F80E090E00E94F2
:102010000E03E7960FB6F894DEBF0FBECDBFDF917B
:10202000CF9108950E945703892BE1F747E364EFAE
:1020300074E080E090E00E9442030E94C80F892B68
:1020400049F40E94E80F47E364EF74E080E090E019
:102050000C94420308951092C00087E690E090939C
:10206000C5008093C400E1ECF0E088E1808386E065
:102070008093C2008081806A808308951F920F92AE
:102080000FB60F9211242F933F938F939F93EF934B
:10209000FF9380919804882309F4F0C08091C600D2
:1020A00090919704992309F4E3C090EE980F9F351F
:1020B00018F08D3009F059C0209194049091950446
:1020C00030E0291B3109215031092F733327232B8D
:1020D00061F0E0919504F0E0E55DFA4F8083909126
:1020E00095049F5F9F739093950420919204909123
:1020F000930430E0291B3109215031092F73332714
:10210000232B89F0E0919304F0E0E559FA4F8083A6
:10211000909193049F5F9F73909393049091C1005B
:1021200090629093C1008D3009F0C5C080919204F7
:102130002091930490E0821B910901978F73992756
:10214000892B69F0E0919304F0E0E559FA4F8AE0B9
:102150008083809193048F5F8F7380939304809129
:1021600096048F5F80939604A6C0883011F08F3755
:10217000C1F5809195042091940490E0821B91090F
:102180008F739927892B09F496C0E0919504F0E0AC
:10219000E55DFA4F80818091950481508F73809323
:1021A0009504809192042091930490E0821B910900
:1021B00001978F739927892B09F47DC0E0919304CF
:1021C000F0E0E559FA4F8FE78083809193048F5FA9
:1021D0008F73809393048091C10080628093C100CB
:1021E0006AC0843009F067C08091950420919404FE
:1021F00090E0821B91098F739927892B31F1E0912F
:102200009504F0E0E55DFA4F80818D30F1F080912A
:1022100094042091950490E0821B910901978F739B
:102220009927892B91F0E0919504F0E0E55DFA4F54
:102230008DE08083809195048F5F8F7380939504E8
:10224000809196048F5F80939604809194042091EE
:10225000950490E0821B910901978F739927892B30
:1022600051F1E0919504F0E0E55DFA4F84E019C08A
:10227000833009F581E0809397041DC08091940418
:102280002091950490E0821B910901978F73992703
:10229000892B79F0E0919504F0E08091C600E55D2E
:1022A000FA4F8083809195048F5F8F73809395049C
:1022B00002C08091C600FF91EF919F918F913F9155
:1022C0002F910F900FBE0F901F9018951F920F9295
:1022D0000FB60F9211242F938F939F93EF93FF9339
:1022E000809193042091920490E0821B91098F7356
:1022F0009927892B79F0E0919204F0E0E559FA4FA3
:1023000080818093C600809192048F5F8F73809349
:10231000920405C08091C1008F7D8093C100FF9120
:10232000EF919F918F912F910F900FBE0F901F9063
:1023300018958091950490919404891B8F7308954A
:10234000809195042091940490E0821B91098F73F1
:102350009927892BC1F0E0919404F0E0E55DFA4FF4
:102360008081909194049F5F9F73909394049091C7
:102370009804992349F08D3039F490919604915046
:1023800090939604089580E0089581E080939804E6
:10239000809195042091940490E0821B91098F73A1
:1023A0009927892BB1F0E0919404F0E0E55DFA4FB4
:1023B0008081843071F410929704E0919404F0E0ED
:1023C000E55DFA4F8081809194048F5F8F738093D5
:1023D00094048091970408958091960408950FB60F
:1023E00007FE0EC0209192049091930430E0291BC7
:1023F0003109215031092F733327232B99F30DC055
:10240000209192049091930430E0291B31092150CE
:1024100031092F733327232B61F0E0919304F0E00F
:10242000E559FA4F8083809193048F5F8F73809377
:1024300093048091C10080628093C10008951F932E
:10244000CF93DF93EC0180E011E0180FFE01E80F5D
:10245000F11D8081882321F00E94EF11812FF4CF9C
:10246000DF91CF911F9108951F93CF93DF93EC01DC
:1024700080E011E0180FFE01E80FF11D8491882320
:1024800021F00E94EF11812FF4CFDF91CF911F91A6
:1024900008950E94AF010E9412100E94F7050E9449
:1024A000FF030E946B010E94090A0E945B030E94C5
:1024B00085090E942B010E94D90083E791E00E94C8
:1024C0000F0A84E991E00E940F0A84EF91E00E94D4
:1024D0000F0A80E00E942C050E94970968E873E1CA
:1024E00081E090E00E948202C0E00E943B010E94D5
:1024F0007A0381E090E00E946902892B09F10E9431
:102500009D0990930101809300010091A304109113
:10251000A4042091A1043091A20440919F04509101
:10252000A00460919D0470919E040E945C000E9432
:10253000970968EE73E081E090E00E948202D5CFB7
:10254000C11109C00E94820B882379F284EA91E0CC
:102550000E940F0A1BC00E94840B882359F00E941E
:10256000C80B0E94820B811111C08DEB91E00E947B
:102570007A0BBACF0E945703892B11F40E94C4042E
:102580000E945703892B11F40E94CA01C1E0ADCF0C
:10259000DB018F939F930E945613BF91AF91A29F2F
:1025A000800D911DA39F900DB29F900D1124089551
:1025B000AA1BBB1B51E107C0AA1FBB1FA617B70769
:1025C00010F0A61BB70B881F991F5A95A9F7809585
:1025D0009095BC01CD01089597FB072E16F4009449
:1025E00007D077FD09D00E94D81207FC05D03EF431
:1025F000909581959F4F0895709561957F4F0895AF
:10260000A1E21A2EAA1BBB1BFD010DC0AA1FBB1FF6
:10261000EE1FFF1FA217B307E407F50720F0A21B68
:10262000B30BE40BF50B661F771F881F991F1A94D5
:1026300069F760957095809590959B01AC01BD01FF
:10264000CF010895052E97FB1EF400940E943913C4
:1026500057FD07D00E94001307FC03D04EF40C94E2
:10266000391350954095309521953F4F4F4F5F4F0F
:10267000089590958095709561957F4F8F4F9F4FEE
:102680000895EE0FFF1F0590F491E02D0994A29F8D
:10269000B001B39FC001A39F700D811D1124911D36
:1026A000B29F700D811D1124911D08950E94471342
:1026B000A59F900DB49F900DA49F800D911D112496
:0626C0000895F894FFCF1D
:1026C600030B443100802500002D00040B4430002C
:1026D600802500002D0002060024F400010C617420
:0826E6006D65676133323800B5
:1026EE00580041535500FF03FE030000010000C0D7
:1026FE00A801640030302F30302F30303030203091
:10270E00303A30303A303000E5559A15B53B121F4D
:10271E001F1C1F1E1F1E1F1F1E1F1E1F5345520054
:10272E0053616E647900000000000000446F75670D
:10273E006C617300000000005F554E4153534947D2
:10274E004E45440000000000444F5553414E555332
:10275E004100005345523438362050726F6A65631B
:10276E00742033202D20496E746567726174696F11
:10277E006E0D0A00416E647265775F476F6F6F640E
:10278E006D616E00436F6E6E656374696F6E20458A
:10279E00737461626C69736865640D0A00436F6ED1
:1027AE006E656374696F6E204C6F73740D0A000D45
:1027BE000A414C41524D3A200030302F30302F30EC
:1027CE003030302030303A30303A303000494E56CA
:1027DE00414C49440D0A002F200047455420006407
:1027EE00657669636500202022767064223A7B004C
:1027FE0020202020226D6F64656C223A002020205C
:10280E0020226D616E756661637475726572223A0F
:10281E0000202020202273657269616C5F6E756DD9
:10282E00626572223A0020202020226D616E75664C
:10283E006163747572655F64617465223A0020206D
:10284E002020226D61635F61646472657373223A46
:10285E002200222C002020202022636F756E7472BD
:10286E00795F636F6465223A002020227463726977
:10287E00745F6869223A00202022747761726E5F5D
:10288E006869223A0020202274637269745F6C6F4B
:10289E00223A00202022747761726E5F6C6F223AAA
:1028AE000020202274656D706572617475726522E8
:1028BE003A002020227374617465223A0043524913
:1028CE00545F4849005741524E5F4849004E4F529F
:1028DE004D414C005741524E5F4C4F0043524954AC
:1028EE005F4C4F002020226C6F67223A5B00202045
:1028FE0020207B002020202020202274696D65730B
:10290E0074616D70223A00226576656E746E756D17
:10291E00223A00202020207D0020205D00505554BA
:10292E0020002F203F006465766963653F002F20ED
:10293E003D0072657365743D002266616C7365229D
:10294E00004F4B41590D0A002274727565220064C6
:10295E0065766963652F00636F6E6669673F003D3C
:10296E00200074637269745F68693D0074776172E8
:10297E006E5F68693D0074637269745F6C6F3D00D1
:10298E00747761726E5F6C6F3D0044454C455445E3
:06299E0020006C6F6700D1
:00000001FF
