:100000000C946D000C948A000C948A000C948A0065
:100010000C948A000C948A000C948A000C948A0038
:100020000C948A000C948A000C948A000C948A0028
:100030000C948A000C948A000C948A000C948A0018
:100040000C948A000C948A000C9481010C94B201E7
:100050000C948A000C948A000C948A000C948A00F8
:100060000C948A000C948A003801600160016001E0
:1000700060016001600160013D016001600160019B
:100080006001600160016001420160016001600186
:100090006001600160016001470160016001600171
:1000A00060016001600160014C016001600160015C
:1000B0006001600160016001510160016001600147
:1000C0006001600160016001560160016001600132
:1000D00060016001600160015B0111241FBECFEF70
:1000E000D8E0DEBFCDBF11E0A0E0B1E0EEEFF4E07C
:1000F00002C005900D92AA39B107D9F722E0AAE90A
:10010000B1E001C01D92AE31B207E1F70E948C0050
:100110000C9469020C940000CF93DF93CDB7DEB747
:1001200064970FB6F894DEBF0FBECDBF80E091E0BC
:100130009A8389838CE191E09C838B838DE391E0AA
:100140009E838D838DE491E098878F838AE591E08B
:100150009A87898786E691E09C878B8783E791E081
:100160009E878D8788E090E0988B8F8780E190E074
:100170009A8B898B80E290E09C8B8B8B0E946A012A
:1001800089819A810E94F1008B819C810E94F100FB
:100190008D819E810E94F1008F8198850E94F100DF
:1001A0008F8598890E941D018D859E850E94F10092
:1001B00089859A850E94F10089899A890E941D018A
:1001C0008D859E850E94F1008B859C850E94F100A3
:1001D0008B899C890E941D018D859E850E94F1005E
:1001E000FFCFCF93DF9300D000D0CDB7DEB79C8395
:1001F0008B831A8219820FC089819A812B813C815D
:10020000820F931FFC0180810E946D0189819A8178
:1002100001969A83898389819A812B813C81820FFF
:10022000931FFC018081882339F700000F900F9005
:100230000F900F90DF91CF910895CF93DF9300D06F
:10024000CDB7DEB79A83898389819A81092E000C04
:10025000AA0BBB0B48E050E028E330E0841B950B71
:100260002817390768F18C5C9F4FFC010C946302DE
:100270008AE791E00E94F10027C08CE791E00E949C
:10028000F10022C08FE791E00E94F1001DC082E8DA
:1002900091E00E94F10018C085E891E00E94F10011
:1002A00013C088E891E00E94F1000EC08BE891E055
:1002B0000E94F10009C08EE891E00E94F10004C0A4
:1002C00081E991E00E94F10000000F900F90DF9112
:1002D000CF91089503D07894089598C01092C000EB
:1002E00083E390E09093C5008093C400E1ECF0E0DC
:1002F00088E1808386E08093C2008081806A808369
:1003000008951F920F920FB60F9211242F938F937F
:100310009F93EF93FF9380919C0120919D0190E02A
:10032000821B910901978F739927892B79F0E091AE
:100330009D01F0E08091C600E256FE4F80838091DF
:100340009D018F5F8F7380939D0102C08091C600D5
:10035000FF91EF919F918F912F910F900FBE0F9072
:100360001F9018951F920F920FB60F9211242F9382
:100370008F939F93EF93FF9380919B0120919A011C
:1003800090E0821B91098F739927892B79F0E09176
:100390009A01F0E0E252FE4F80818093C600809186
:1003A0009A018F5F8F7380939A0105C08091C1007D
:1003B0008F7D8093C100FF91EF919F918F912F913D
:1003C0000F900FBE0F901F90189580919D019091F6
:1003D0009C01891B8F73089580919D0120919C0140
:1003E00090E0821B91098F739927892B69F0E09126
:1003F0009C01F0E0E256FE4F808190919C019F5F4E
:100400009F7390939C01089580E008950FB607FEB6
:100410000EC020919A0190919B0130E0291B310977
:10042000215031092F733327232B99F30DC02091CD
:100430009A0190919B0130E0291B3109215031092B
:100440002F733327232B61F0E0919B01F0E0E25200
:10045000FE4F808380919B018F5F8F7380939B0100
:100460008091C10080628093C10008951F93CF9353
:10047000DF93C82FD92F90E011E0190FEC2FFD2F3B
:10048000E90FF11D8081882319F0C0DF912FF4CF8F
:10049000DF91CF911F9108951F93CF93DF93C82FC2
:1004A000D92F90E011E0190FEC2FFD2FE90FF11D6E
:1004B000C895802D882319F0A9DF912FF3CFDF9104
:1004C000CF911F910895EE0FFF1F0590F491E02D3D
:0604D0000994F894FFCF2F
:1004D600030B443100004B00002D00040B44300098
:1004E600004B00002D0002060024F400010C61748C
:0804F6006D65676133323800C7
:1004FE0048656C6C6F20576F726C642066726F6DFE
:10050E002041746D6567613332380A0053455234A9
:10051E003836202D2D20486F6D65776F726B204118
:10052E00737369676E6D656E7420310A00416E6477
:10053E0072657720476F6F646D616E0A0063686144
:10054E00722073697A65203D2000696E742073698C
:10055E007A65203D20006C6F6E672073697A652086
:10056E003D200020626974730A0038003136003273
:10057E00340033320034300034380035360036342F
:0A058E0000746F6F206D616E79003C
:00000001FF
